:020000040800F2
:1000000068040020450100080B0A0008FF090008E9
:10001000070A00088D050008D5150008000000003B
:10002000000000000000000000000000E90C0008D3
:100030008D070008000000005B010008D50D0008D6
:100040005F0100085F0100085F0100085F01000810
:100050005F0100085F0100085F0100085F01000800
:10006000A50700085F010008B7070008930500080E
:100070005F0100085F0100085F0100085F010008E0
:100080005F0100085F0100088D0100085F010008A2
:10009000D3150008910500085F010008C907000892
:1000A000F50E00085F010008090F0008050F0008A1
:1000B000190F00081B0F00081D0F00085F01000842
:1000C0005F0100085F0100085F0100085F01000890
:1000D0005F010008591500085F0100085F01000872
:1000E0008F0700085F0100085F0100085F0100083A
:1000F000710F00085F010008650F00085F0100082C
:100100005F0100085F0100085F0100085F0100084F
:100110005F0100085F010008210F0008410F00087F
:100120005F0100085F0100085F0100085F0100082F
:10013000DFF80CD000F018F8004800473519000827
:10014000680400200648804706480047FEE7FEE7AF
:10015000FEE7FEE7FEE7FEE7FEE7FEE7FEE7FEE777
:10016000950E000831010008064C074D06E0E068D6
:1001700040F0010394E8070098471034AC42F6D3EE
:10018000FFF7DAFF581F0008781F000810B54FF47A
:100190009061054800F01FF9012804D14FF49061E7
:1001A000014800F0F3F810BD0024014008B501211A
:1001B000084600F043FC01214FF4047000F06EFC8F
:1001C0007D20ADF8000000208DF8030069460C4842
:1001D00000F086FB0220ADF8000000208DF803003F
:1001E0006946084800F07CFB3F20ADF80000002085
:1001F0008DF803006946044800F072FB08BD00005A
:1002000000080140000C01400010014000B591B011
:100210005B4800F0E1F95B4806905B4807900020DE
:1002200008901020099000200A9080200B90400038
:100230000C9080000D9020200E9000020F90002066
:10024000109006A94E4800F083FA01214C4800F0B6
:10025000B7F90020019001208DF808008DF8090001
:100260004FF4602003900020049010208DF81400BB
:1002700001A944484C3800F0CBF8052310220D2189
:1002800040484C3800F0ECF805230F220C213D4883
:100290004C3800F0E5F805230E220B2139484C3884
:1002A00000F0DEF805230D220A2136484C3800F014
:1002B000D7F805230C220F2132484C3800F0D0F833
:1002C00005230B220E212F484C3800F0C9F80523D6
:1002D000012209212B484C3800F0C2F805230322E3
:1002E000194628484C3800F0BBF8052304220321A6
:1002F00024484C3800F0B4F805231A46042121485C
:100300004C3800F0ADF80523072206211D484C3873
:1003100000F0A6F80523082200211A484C3800F006
:100320009FF805230A22022116484C3800F098F85D
:10033000012114484C3800F039F8012111484C389B
:1003400000F029F80F484C3800F0E6F800BF0D48DF
:100350004C3800F052F80028F9D10A484C3800F027
:10036000EBF800BF07484C3800F02BF80028F9D113
:10037000012104484C3800F0D4F811B000BD000051
:10038000080002404C2401404400002000220A12D0
:10039000D3430360704721B1826842F0010282605A
:1003A00003E0826822F001028260704721B1826816
:1003B00042F48072826003E0826822F4807282607C
:1003C0007047014600208A6802F004020AB1012049
:1003D00000E00020704770B5024600200023002492
:1003E0000B125568CEB205EA060415681D4015B11A
:1003F0000CB1012000E0002070BD014600208A6899
:1004000002F008020AB1012000E00020704700005D
:1004100030B502460020002350680F4C20400D7973
:100420000C6844EA05242043506090680B4C20403F
:10043000D1E902542C434D7944EA450420439060AD
:10044000D06A20F470000C7C641EE4B2234340EABE
:100450000350D06230BD0000FFFEF0FFFDF7F1FF5A
:10046000F0B504460D4600200021092D11DDE0689D
:10047000A5F10A0606EB4607072606FA07F18843A8
:10048000A5F10A0606EB460603FA06F10843E0600A
:100490000CE0206905EB4507072606FA07F18843BB
:1004A00005EB450603FA06F108432061072A0FDA37
:1004B000606B561E06EB86071F2606FA07F1884377
:1004C000561E06EB860605FA06F10843606322E035
:1004D0000D2A0FDA206BD61F06EB86071F2606FAB9
:1004E00007F18843D61F06EB860605FA06F1084396
:1004F000206310E0E06AA2F10D0606EB86071F26D6
:1005000006FA07F18843A2F10D0606EB860605FA06
:1005100006F10843E062F0BD816841F008018160A6
:10052000704721B1826842F4A002826003E08268D1
:1005300022F4A00282607047816841F0040181606A
:10054000704710B5012000F0C9FA002000F0C6FA8B
:1005500010BD000008B5014600200090034800903F
:100560000098084400900098008808BD006C004086
:1005700008B500220092044A0092009A02440092B8
:10058000009A116008BD0000006C004000BFFEE74B
:10059000704710B5022000F0C5F810B1022000F03D
:1005A00001F810BD00F0805111B10349086001E06D
:1005B0000249486070470000040402400000024005
:1005C00021B1026842F00102026004E002684FF6C5
:1005D000FE731A400260704701684FF6FE721140C8
:1005E00001600021016041608160C1604B49884227
:1005F00008D14A490839496841F00F01474A083A89
:1006000051608AE045491431884208D1434908398C
:10061000496841F0F001414A083A51607DE03F49A4
:100620002831884208D13D490839496841F4706150
:100630003A4A083A516070E038493C31884208D162
:1006400036490839496841F47041344A083A5160E2
:1006500063E032495031884208D13049083949684D
:1006600041F470212D4A083A516056E02B4964311B
:10067000884208D129490839496841F47001274A5C
:10068000083A516049E025497831884208D1234928
:100690000839496841F07061204A083A51603CE0ED
:1006A0001F49884206D1011F096841F00F01021F4E
:1006B000116032E01A491431884208D11849091FE3
:1006C000096841F0F001164A121F116025E0144933
:1006D0002831884208D11249091F096841F4706124
:1006E0000F4A121F116018E00D493C31884208D1B1
:1006F0000B49091F096841F47041094A121F116032
:100700000BE007495031884207D10549091F0968A4
:1007100041F47021024A121F116070470800024024
:100720000804024001460020002201F0805313B16A
:10073000054B1A6801E0054B1A6802EA01030BB188
:10074000012000E000207047000402400000024049
:1007500010B50022026847F6F0739A430C6A8B6862
:1007600023430C6923434C6923438C692343CC699D
:1007700023434C6A23438C6A23431A430260CB68A9
:1007800043600B6883604B68C36010BD704710B551
:100790004FF4004000F042F818B14FF4004000F070
:1007A00037F810BD10B5042000F038F810B104205F
:1007B00000F028F810BD10B5102000F02FF810B18F
:1007C000102000F01FF810BD10B5802000F026F8B2
:1007D00010B1802000F01CF84FF4807000F01EF87B
:1007E00018B14FF4807000F013F8202000F016F8D4
:1007F00020B103480068202000F00AF810BD000076
:10080000080C0140014908607047000014040140D1
:1008100001490860704700001404014001460020AF
:100820000022074B1B6803EA0102054B14331B68C7
:100830000B4013B10AB1012000E000207047000016
:10084000000401407047000008B54FF40070ADF897
:10085000000010208DF8030003208DF80200694687
:100860001C4800F03DF84FF40070ADF80000102077
:100870008DF8030003208DF802006946164800F049
:100880002FF80120ADF8000048208DF80300032068
:100890008DF802006946114800F022F80420ADF8F6
:1008A000000010208DF8030003208DF80200694637
:1008B000084800F015F84FF44050ADF8000014203F
:1008C0008DF8030003208DF802006946024800F00D
:1008D00007F808BD00180140001001400014014055
:1008E0002DE9F041024600250026002000230024C7
:1008F000002791F803C00CF00F0591F803C00CF02D
:10090000100CBCF1000F03D091F802C04CEA0505B1
:1009100091F800C0BCF1000F31D0146800202BE02A
:100920004FF0010C0CFA00F3B1F800C00CEA03061A
:100930009E4220D183004FF00F0C0CFA03F7BC430A
:1009400005FA03FC4CEA040491F803C0BCF1280F3B
:1009500006D14FF0010C0CFA00FCC2F814C00AE0FA
:1009600091F803C0BCF1480F05D14FF0010C0CFA0F
:1009700000FCC2F810C0401C0828D1D31460B1F8A4
:1009800000C0BCF1FF0F34DD546800202EE000F100
:10099000080C4FF0010808FA0CF3B1F800C00CEA9B
:1009A00003069E4221D183004FF00F0C0CFA03F78F
:1009B000BC4305FA03FC4CEA040491F803C0BCF103
:1009C000280F05D100F1080C08FA0CF8C2F81480C1
:1009D00091F803C0BCF1480F07D100F1080C4FF0AB
:1009E000010808FA0CF8C2F81080401C0828CED381
:1009F0005460BDE8F081416170470161704700F0CB
:100A00009DFD00BFFEE700BFFEE770477047000096
:100A1000014908627047000000000E4210B500F066
:100A20006DF8FFF7F3FFFFF70DFFFFF70DFF01F084
:100A30009DF900F077FE00F0F9F810BD29B1064AE3
:100A400052690243044B5A6104E0034A52698243EB
:100A5000014B5A61704700000010024029B1064A5C
:100A6000D2690243044BDA6104E0034AD26982434B
:100A7000014BDA61704700000010024029B1064ABC
:100A800012690243044B1A6104E0034A126982436B
:100A9000014B1A61704700000010024029B1064A5C
:100AA00092690243044B9A6104E0034A92698243CB
:100AB000014B9A61704700000010024029B1064ABC
:100AC000D2680243044BDA6004E0034AD2688243EE
:100AD000014BDA60704700000010024001490860D5
:100AE00070470000400442420348406A40F0807072
:100AF00001494862704700000010024010B500F044
:100B0000C9F9012146F67D20FFF7C8FF01210F201A
:100B1000FFF7A4FF01210846FFF7C0FF01210846A7
:100B2000FFF78CFF0121024800F023FA10BD0000FE
:100B30000004004010B501460022002300204A11A5
:100B4000012A02D1094C236806E0022A02D1074C8F
:100B5000236A01E0054C636A01F01F0201249440FE
:100B60001C400CB1012000E0002010BD001002402C
:100B700000210B4A11700A4A203A82F820100128FD
:100B800002D0042808D103E00121054A117004E0D5
:100B90000521034A117000E000BF00BF704700004C
:100BA0002010024001490860704700003C044242A6
:100BB0000249096A0143014A11627047001002406C
:100BC00010B50420FFF7C6FC4AF2A551884207D0B1
:100BD00000F030F84AF2A5510420FFF7C9FC0FE0FD
:100BE0007B20FFF7A7FF10B97A20FFF7A3FFFFF7DD
:100BF0007BFF0120FFF7D6FF00F064F800F058F803
:100C000010BD00000348008840F010000149088032
:100C10007047000004280040034800884FF6EF7139
:100C200008400149088070470428004010B5FFF7CC
:100C3000C7FF10BD10B501214FF0C050FFF70EFFE8
:100C40000120FFF7E5FEFFF77CFC0120FFF790FF96
:100C500000BF4120FFF76EFF0028FAD04FF48070EC
:100C6000FFF7A6FF0120FFF79DFF00F02BF800F033
:100C70001FF847F6FF7000F00BF800F019F801209C
:100C8000FFF790FF00F01EF800F012F810BD000012
:100C900000B50246FFF7B6FFC2F3034003490880E0
:100CA000091D0A80FFF7B8FF00BD000008280040BA
:100CB00000BF0348008800F020000028F9D07047EA
:100CC00004280040074800884FF6F771084005499E
:100CD000088000BF0348008800F008000028F9D011
:100CE0007047000004280040704710B500F002F87B
:100CF00010BD00000CB50020019000903348006842
:100D000040F480303149086000BF3048006800F48A
:100D1000003000900198401C0190009818B901988B
:100D2000B0F5A06FF1D12948006800F4003010B18F
:100D30000120009001E0002000900098012843D19C
:100D40002348006840F01000214908600846006808
:100D500020F0030008600846006840F002000860C8
:100D60001A48406819494860084640684860084683
:100D7000406840F4806048600846406820F47C1079
:100D800048600846406840F4E8104860084600683B
:100D900040F08070086000BF0C48006800F00070F0
:100DA0000028F9D00948406820F00300074948604E
:100DB0000846406840F00200486000BF03484068B1
:100DC00000F00C000828F9D10CBD00000010024012
:100DD0000020024010480068401C0F4908600F487E
:100DE0000068401C0D4908600D4801880088401CBF
:100DF0000B4A10804EF6602081420CDD0020114627
:100E0000088008480088401C064908800648008879
:100E1000401C0549088070472C000020300000204D
:100E200034000020360000203800002030B500BF1C
:100E3000154800684FF47A72B0FBF2F1B1F1807F8F
:100E400001D301201DE021F07F40401E4FF0E02241
:100E5000506150170F22002807DA13071D0E0B4BA5
:100E600000F00F04241F1D5503E013071C0E084B50
:100E70001C5400BF00204FF0E02290610720106159
:100E800000200028D4D130BD1800002018ED00E06B
:100E900000E400E010B51348006840F0010011497B
:100EA000086008464068104908400E4948600846F6
:100EB00000680E4908400B4908600846006820F4A5
:100EC000802008600846406820F4FE0048604FF427
:100ED0001F008860FFF709FF4FF0006004490860B9
:100EE00010BD0000001002400000FFF8FFFFF6FEFA
:100EF00008ED00E010B58021014800F055F810BD64
:100F0000002C014070470000024800880020014981
:100F100008807047102C01407047704770470000F0
:100F200010B50121054800F043F930B10020034914
:100F300088840121014800F037F810BD00100040FE
:100F400010B50121064800F033F938B100200449FA
:100F5000243108800121024800F026F810BD00006D
:100F600000140040002001490880704724340140EB
:100F7000704721B1028842F08002028004E00288BA
:100F80004FF67F731A400280704730B5002301246A
:100F90008C40A3B2048C9C430484048C02FA01F5B7
:100FA000ADB22C43048430BDCA430282704721B1E4
:100FB000028842F00102028004E002884FF6FE73CC
:100FC0001A4002807047000010B504466848844209
:100FD00008D10121C014FFF771FD0021E014FFF7D3
:100FE0006DFDC4E0B4F1804F08D101210846FFF740
:100FF00045FD00210120FFF741FDB8E05D48844236
:1010000008D101210220FFF739FD00210220FFF75E
:1010100035FDACE05848844208D101210420FFF797
:101020002DFD00210420FFF729FDA0E05348844254
:1010300008D101210820FFF721FD00210820FFF73A
:101040001DFD94E04E48844208D101211020FFF795
:1010500015FD00211020FFF711FD88E0494884426A
:1010600008D101212020FFF709FD00212020FFF7F2
:1010700005FD7CE04448844208D101214014FFF77B
:101080001DFD00216014FFF719FD70E03F48844208
:1010900009D10121C804FFF711FD00214FF4002000
:1010A000FFF70CFD63E03A48844209D101210805AD
:1010B000FFF704FD00214FF48010FFF7FFFC56E01E
:1010C0003448844209D101214805FFF7F7FC00218B
:1010D0004FF40010FFF7F2FC49E02F48844208D19A
:1010E00001214020FFF7CAFC00214020FFF7C6FC89
:1010F0003DE02A48844208D101218020FFF7BEFC50
:1011000000218020FFF7BAFC31E02548844208D155
:1011100001218015FFF7B2FC0021A015FFF7AEFCFE
:1011200025E02048844209D101210804FFF7C6FCCC
:1011300000214FF48030FFF7C1FC18E01A488442C8
:1011400009D101214804FFF7B9FC00214FF4003018
:10115000FFF7B4FC0BE01548844208D10121880454
:10116000FFF7ACFC00214FF48020FFF7A7FC10BD77
:10117000002C01400004004000080040000C00402A
:10118000001000400014004000340140004C0140B9
:10119000005001400054014000180040001C004075
:1011A0000020004000400140004401400048014050
:1011B00030B50246002000230024158A05EA010309
:1011C000958905EA010413B10CB1012000E000206B
:1011D00030BD01894FF6F87211400181704700005F
:1011E00070B5002400220023058C4FF6FE763540B2
:1011F0000584028C8388048B4FF68F752C40B51EB6
:101200002C400D882C43751E2A400D892A434D8899
:101210002A43144DA8420BD0134DA84208D0134DB9
:10122000A84205D0124DA84202D0124DA84213D1B7
:101230004FF6F7752A404D892A434FF6FB752A4031
:101240008D882A434FF6FF652B404FF6FF552B4004
:101250008D892B43CD892B4383800483CD8885865C
:10126000028470BD002C0140003401400040014068
:1012700000440140004801400A460021018B4FF61E
:10128000F7731940114301837047000070B50024C3
:1012900000220023058C4FF6EF7635400584028C42
:1012A0008388048B48F6FF752C404FF6FF452C4091
:1012B0000D884FF6FF7606EA05252C434FF6DF75BD
:1012C0002A400D8906EA05152A434D8806EA0515C8
:1012D0002A43154DA84202D0144DA8421DD14FF605
:1012E0007F752A404D894FF6FF7606EA05152A4399
:1012F0004FF6BF752A408D8806EA05152A434FF63A
:10130000FF352B404FF2FF752B408D8906EA85058E
:101310002B43CD8906EA85052B4383800483CD8842
:101320000587028470BD0000002C0140003401409C
:101330000A460021018B4FF2FF7319404FF6FF73ED
:1013400003EA0223194301837047000070B50024AB
:1013500000220023058C4FF6FF6635400584028C81
:101360008388848B4FF68F752C404FF6FC752C408C
:101370000D882C434FF6FF552A400D894FF6FF7616
:1013800006EA05252A434D8806EA05252A43154D18
:10139000A84202D0144DA8421DD14FF2FF752A4039
:1013A0004D894FF6FF7606EA05252A434FF6FF35AD
:1013B0002A408D8806EA05252A434EF6FF752B4004
:1013C0004DF6FF752B408D8906EA05152B43CD8917
:1013D00006EA05152B4383808483CD8885870284A4
:1013E00070BD0000002C0140003401400A4600217D
:1013F000818B4FF6F77319401143818370470000CA
:1014000070B5002200230024058C4EF6FF7635408F
:101410000584038C8488828B48F6FF752A404FF63A
:10142000FF452A400D884FF6FF7606EA05252A4338
:101430004DF6FF752B400D8906EA05352B434D8887
:1014400006EA05352B430B4DA84202D00A4DA842AF
:1014500008D14BF6FF752C408D894FF6FF7606EAD2
:1014600085152C4384808283CD88A0F84050038466
:1014700070BD0000002C0140003401400A460021EC
:10148000818B4FF2FF7319404FF6FF7303EA02237B
:101490001943818370470000002202881D4B984247
:1014A0000ED01D4B98420BD0B0F1804F08D01B4B93
:1014B000984205D01A4B984202D01A4B984204D158
:1014C0004FF68F731A404B881A43174B984207D038
:1014D000164B984204D04FF6FF431A40CB881A436C
:1014E00002808B8883850B8803850A4B98420BD03A
:1014F000094B984208D00E4B984205D00D4B9842AC
:1015000002D00D4B984201D10B7A038601238382CE
:1015100070470000002C01400034014000040040EE
:1015200000080040000C0040001000400014004083
:10153000004001400044014000480140012080F388
:10154000138800BF02480349086000BFFEE700009F
:101550000400FA050CED00E010B50A48048804F018
:10156000800028B1002240F22771064800F00CF8F4
:1015700004F0200020B10349091D0988C8B200BF4A
:1015800010BD000000380140F0B5034600240026DD
:101590000025002040F66A17B94200D100BF184666
:1015A000C1F3421401F01F06012707FA06F5012CCA
:1015B00001D10C3004E0022C01D1103000E01430D5
:1015C0001AB107682F43076002E00768AF4307605E
:1015D000F0BD704700BFFEE702E008C8121F08C157
:1015E000002AFAD170477047002001E001C1121FA4
:1015F000002AFBD1704710B5002100EB80035B008F
:101600000324B3FBF4F203E0491C914200DB10BD5C
:10161000FAE710B5002100EB80035B000324B3FB65
:10162000F4F203E0491C914200DB10BDFAE7000030
:1016300002463A48006800F4807090B9002107E043
:101640003648006800F4807000B103E0481C81B2A5
:101650000229F5DB00BF022903DB108840F00100FE
:1016600010802E48006800F4007090B9002107E057
:101670002A48006800F4007000B103E0481C81B201
:101680000229F5DB00BF022903DB108840F00100CE
:1016900010802348006800F4805090B9002107E0D2
:1016A0001F48006800F4805000B103E0481C81B27C
:1016B0000229F5DB00BF022903DB108840F001009E
:1016C00010801748006800F0400090B9002107E042
:1016D0001348006800F0400000B103E0481C81B2EC
:1016E0000229F5DB00BF022903DB108840F001006E
:1016F00010800A48006800F0800068B9002107E007
:101700000648006800F0800000B103E0481C81B288
:101710001429F5DB00BF00BF012070470814014009
:101720000818014008B54FF41940ADF800004820F2
:101730008DF8030003208DF8020069460148FFF789
:10174000CFF808BD00080140734800687349096874
:10175000884204D0714800686F49086001E00020A9
:1017600070476F48006800F40040B0F5004F01D0AA
:10177000012000E00020012815D16A4800884FF6BA
:10178000F071884205DA67480088401C6549088086
:101790001DE0644800884FF6FF71884217D1002091
:1017A0006049088013E05F4800884FF6F071884276
:1017B00009DA5C480088052805DD4FF6FF705949B5
:1017C00008800120CCE74FF6FF7056490880544846
:1017D000006800F40060B0F5006F01D0012000E067
:1017E0000020012815D14F4840884FF6F0718842FB
:1017F00005DA4C484088401C4A4948801DE0494869
:1018000040884FF6FF71884217D100204549488033
:1018100013E0444840884FF6F071884209DA4148A5
:101820004088052805DD4FF6FF703E4948800220BC
:1018300096E74FF6FF703B4948803948006800F44E
:101840008070B0F5807F01D0012000E000200128E9
:1018500015D1344880884FF6F071884205DA314856
:101860008088401C2F4988801DE02E4880884FF6D4
:10187000FF71884217D100202A49888013E0294847
:1018800080884FF6F071884209DA2648808805285A
:1018900005DD4FF6FF7023498880032060E74FF68F
:1018A000FF70204988801E48006800F48050B0F521
:1018B000805F01D0012000E00020012815D11948E7
:1018C000C0884FF6F071884205DA1648C088401C7F
:1018D0001449C8801DE01348C0884FF6FF71884244
:1018E00017D100200F49C88013E00E48C0884FF67A
:1018F000F071884209DA0B48C088052805DD4FF6EB
:10190000FF700849C88004202AE74FF6FF70054998
:10191000C880002024E70000080000202C000020E0
:10192000080801400C00002010B5FEF73FFCFEF750
:101930006DFC10BD72B6FFF771F8FFF777FA00F093
:1019400021F800F0EBFA04210C48FFF754F862B6D6
:1019500000200B494870012000F03AF9022000F005
:1019600037F909E00649487800F072F904484078F0
:10197000012801D100F06CFAF4E7000000180140E2
:101980000000002000B589B001210420FFF766F8AF
:1019900001210820FFF782F801210846FFF77EF8B1
:1019A00001213B48FFF7E5FA4FF47070ADF80400F1
:1019B00018208DF8070003208DF8060001A935488E
:1019C000FEF78EFF4FF47A70ADF81C000320ADF8DF
:1019D00018000020ADF81E001020ADF81A0006A96E
:1019E0002B48FFF759FD6020ADF808000120ADF845
:1019F0000A004FF44870ADF80E000020ADF810005A
:101A000002A92348FFF7ECFB02A92148FFF73EFC9F
:101A100002A91F48FFF79AFC02A91D48FFF7F0FC36
:101A200008211B48FFF728FC08211948FFF780FC14
:101A300008211748FFF7DAFC08211548FFF71EFDBB
:101A400001211348FFF7B3FA1148203000884FF600
:101A5000FC7108400E4920310880084600884FF686
:101A6000CF7108400A4920310880084600884FF6A7
:101A7000FF410840064920310880084600884CF69E
:101A8000FF71084002492031088009B000BD000004
:101A900000080040000C01407FB504460D46ADF83B
:101AA00006500020ADF8080004F00200D8B1602014
:101AB000ADF8000069461C48FFF7A2FC5020ADF8C5
:101AC000000069461848FFF741FC0122082116482A
:101AD000FFF75BFA01220C211348FFF756FA124870
:101AE00040301249086004F00100D8B16020ADF820
:101AF000000069460C48FFF7C9FB5020ADF8000014
:101B000069460948FFF76CFB012200210648FFF7F0
:101B10003CFA012204210448FFF737FA0248383022
:101B2000034908607FBD000000080040400000201D
:101B30003C0000207FB504460D46ADF8065000205D
:101B4000ADF8080004F00200D8B16020ADF8000044
:101B500069461C48FFF7FAFB5020ADF800006946C3
:101B60001848FFF74DFC012208211648FFF70DFA2F
:101B700001220C211348FFF708FA12483C301249A1
:101B8000086004F00100D8B16020ADF8000069469B
:101B90000C48FFF725FB5020ADF8000069460948C6
:101BA000FFF774FB012200210648FFF7EEF901223E
:101BB00004210448FFF7E9F902483430034908607A
:101BC0007FBD000000080040400000203C000020D5
:101BD0001FB504460020ADF80600ADF8080004F07B
:101BE0000200B8B15020ADF8000069461748FFF771
:101BF000ADFB5020ADF8000069461448FFF700FC2B
:101C0000012208211148FFF7C0F901220C210F48D9
:101C1000FFF7BBF904F00100B8B15020ADF80000A7
:101C200069460A48FFF7DCFA5020ADF80000694623
:101C30000648FFF72BFB012200210448FFF7A5F916
:101C4000012204210148FFF7A0F91FBD0008004050
:101C500070B50546FFF778FD04462000A4F10101A8
:101C6000CCB276D000203C49088034B1012C05D09C
:101C7000022C04D0032C6AD125E069E068E03748E3
:101C8000407890B904213648FEF7B7FE3348007813
:101C9000012803D102203149087002E001202F49B8
:101CA000087001202D4948700CE02C48407801282C
:101CB00008D10020294948700120FFF789FF022040
:101CC000FFF786FF44E027480078401CC0B2254952
:101CD0000870042801DB00200870224800780128E1
:101CE00011D104211E48FEF788FE0420FFF783FC73
:101CF0004FF480511C48FEF77EFE4FF400511A4805
:101D0000FEF77BFE20E017480078022809D1C102C7
:101D10001548FEF772FE4FF400511348FEF76BFEB4
:101D200012E01048007803280AD14FF480510E4881
:101D3000FEF763FE4FF400510B48FEF75EFE03E032
:101D400004210748FEF757FE02E002E0FFE700BF6C
:101D500000BF204670BD00003800002000000020B9
:101D600000180140140000200010014008B54FF495
:101D70000040ADF8000004208DF8030003208DF82A
:101D8000020069462E48FEF7ABFD8020ADF800004A
:101D900069462C48FEF7A4FD4FF48070ADF80000B2
:101DA00069462948FEF79CFD4FF44070ADF80000ED
:101DB00048208DF8030003208DF80200694623486F
:101DC000FEF78EFD4FF48250ADF8000069461D48C5
:101DD000FEF786FD4FF48060ADF8000004208DF81A
:101DE000030003208DF8020069461648FEF778FDCF
:101DF0004FF48050ADF8000004208DF8030003205C
:101E00008DF8020069460E48FEF76AFD8020ADF8A5
:101E1000000069460D48FEF763FD2020ADF8000084
:101E200069460748FEF75CFD4FF48060ADF800009E
:101E300069460648FEF754FDFFF776FD08BD000031
:101E4000000C014000180140001001400014014046
:101E500010B500202F4908800520FFF7DAFB2E4837
:101E60000078012809D14FF41671FFF763FE4FF493
:101E700016710220FFF75EFE0DE027480078022869
:101E800009D14FF416710120FFF706FE4FF41671C9
:101E90000220FFF701FE3CE01F48001DFFF7C8FBD2
:101EA0001D494878FFF7D4FE1B48407800B910BDA3
:101EB0001848008841F2883188421EDB002015490D
:101EC000088015480078012809D14FF41671FFF7F2
:101ED00031FE4FF416710220FFF72CFE0DE00E4884
:101EE0000078022809D14FF416710120FFF7D4FDC4
:101EF0004FF416710220FFF7CFFD0748007900F07C
:101F0000010030B10120FFF763FE0220FFF760FE01
:101F1000CDE7C1E7240C00400000002010B50D48BB
:101F2000FFF752F80B48FFF754F9472009492831C9
:101F300008804FF6FF70091D0880012005490C310B
:101F400008800020034924310880012001490880CD
:101F500010BD0000000C0040781F000800000020A9
:101F600044000000D8150008BC1F000844000020F1
:101F700024040000E8150008000000000000000034
:101F800000000000FFFF0000000000000000000053
:101F900000A24A0400000000000000000102030447
:101FA0000607080900000000000000000000000013
:0C1FB00000000000000000000000000025
:0400000508000131BD
:00000001FF
