:020000040800F2
:10000000287D002045010008090700080B070008AB
:100010000F0700081307000817070008000000007A
:100020000000000000000000000000001B070008A6
:100030001D070008000000005B0100082B090008F4
:100040005F0100085F0100085F0100085F01000810
:100050005F0100085F010008A9070008E907000820
:10006000870700085F0100085F01000825070008F6
:100070005F0100085F0100085F0100085F010008E0
:100080005F0100085F010008830800085F010008A5
:100090001F070008210700085F0100085D0700082E
:1000A000350800085F0100082908000881080008D9
:1000B000070700087F080008050700085F0100081F
:1000C0005F0100085F0100085F0100085F01000890
:1000D0005F0100089B0A0008230700085F01000871
:1000E000370700085F0100085F0100085F01000892
:1000F000750800085F010008770800085F01000824
:100100005F0100085F0100085F0100085F0100084F
:10011000470B00085F010008430800085F01000862
:100120005F0100085F0100085F0100085F0100082F
:10013000DFF80CD00AF0A2FA004800476901000875
:10014000287D00200648804706480047FEE7FEE776
:10015000FEE7FEE7FEE7FEE7FEE7FEE7FEE7FEE777
:10016000F59B00083101000808B500BF00F0CEFE85
:1001700001F0F8FB02F0ABFD00F014FF04F0D3F83F
:1001800000F0EFFC00F018FC4FF4FA7001F0B4F945
:1001900000F039FD4FF4FA6000F029FC4FF4C8700C
:1001A00000F025FC0020D4490880684604F02BF9B3
:1001B000D1480188D1A000F082FDD2A000F07FFDDF
:1001C00002F085FD0020D5490968C87300240BE0C2
:1001D0000A2000F00CFCD1480068C07B18B1D0A008
:1001E00000F06DFD03E0641CB4F5487FF0DB00BF58
:1001F0000020CA4909680870C84909688870C74959
:100200000968C1F89400C9A000F059FD0020CC494C
:10021000C8608860486108614FF41670C949088059
:1002200000BF04F06BF90020BC490968C1F89C00CC
:1002300001230022C3480188184600F067FF002010
:10024000AD4908800090B5490968C1F89800B349E4
:100250000968D1F89C0009F0D6FF05462A460B46EE
:10026000B9A000F02CFD0DE0684604F0CCF8AB48D6
:1002700000684078012803D1BDF8000006F071FC49
:1002800000F0B1FCF0E710B5022C03DD2146B148C7
:1002900002F060FE10BD00B58BB000210AA800F08E
:1002A00070FB21E0FFF7EFFFAB4890F83A00012820
:1002B00005D000231A461946184600F027FFC8212A
:1002C0000AA800F05EFB78B194480068006E0090C8
:1002D00092480068C36D91480068826D8F4800683D
:1002E000416D9EA000F0EBFC9B4890F83A0001287D
:1002F000D8D0994890F83A00022839D100231A46FC
:100300001946184600F002FF00219E4808F048FEFA
:1003100004F009F827E0FFF7B6FF0A210AA800F069
:1003200030FB00B39848807A9749497A964A127A06
:10033000954BDB79CDE90532CDE907109348817AF9
:10034000407A924A127A914BDB79CDE90132CDE9BC
:1003500003018F48807A00908D48437A027AC179F0
:100360008CA000F0ACFC7C4890F83A000228D2D077
:100370000BB000BD2DE9F0470027B846B94600256F
:100380001FE08E48006884B214F0800F02D1781C00
:10039000C7B20EE014F4807F04D108F1010000F030
:1003A000FF0806E014F4007F03D109F1010000F01A
:1003B000FF09002601E0701CC6B2082EFBDB681C9A
:1003C000C5B20A2DDDDB052F3EDB7D4800687D4987
:1003D0000968401A642836D97BA000F070FC7AA026
:1003E00000F06DFC78A000F06AFC4C4800680178D1
:1003F0007DA000F064FC49480068007801281ED008
:1004000082A000F05CFC01204449096808700020CB
:100410004249096888700021874808F0C1FD01231E
:10042000002248480188184600F070FE83480068A2
:10043000008C3A490968C86238490968886260488E
:1004400000686049086055E0B8F1050F28DB5C489A
:1004500000687B490968401A64284BD979A000F0EC
:100460002EFC78A000F02BFC76A000F028FC2B4896
:10047000006801787CA000F022FC00231A4619468F
:10048000184600F043FE00213E4808F089FD03F0C5
:100490004AFF01F070FD4A4800686949086029E098
:1004A000B9F1050F26DB4648006878490968401A0B
:1004B00064281FD976A000F002FC75A000F0FFFBB5
:1004C00073A000F0FCFB1548006801787AA000F0EA
:1004D000F6FB82A000F0F3FB0120104909680870C8
:1004E0000021554808F05CFD01F0EEFB344800683F
:1004F00066490860BDE8F087240C004025640D0AB9
:100500000000000073797320696E6974206F6B2C92
:10051000323031362D30322D390D0A006C0000207A
:100520006779726F204F4B0D0A000000656E74658D
:1005300072206D61696E206C6F6F700D0A00000093
:10054000344200207C00002061676E656C3D2566AA
:100550000D0A0000F4000020D044002063487731E9
:100560003D25642C634877323D25642C53706565C6
:1005700064313D25642C5370656564323D25640DFE
:100580000A00000000040040B8430020C4430020DB
:10059000AC4300202825642C25642C25642C25647C
:1005A0002C25642C25642C25642C25642C25642C96
:1005B00025642C25642C2564290D0A0008180140A7
:1005C0000C000020000000203D3D3D3D3D3D3D3DF7
:1005D0003D3D6B657920636C65616E0D3D3D3D3D34
:1005E0003D3D3D3D3D0A00005B70726F635F6B6592
:1005F000795D434C454E204D4F44452C73537461F7
:1006000074653D25640D0A0D0A000000696E697469
:1006100020636C65616E206D6F64652C656E616230
:100620006C6520697264612070776D2C72756E2E16
:100630002E2E0D0A0000000000100040780000205F
:10064000040000203D3D3D3D3D3D3D3D3D3D3D6B7C
:100650006579206368617267653D3D3D3D3D3D3D87
:100660003D3D3D0D0A0000005B70726F635F6B657E
:10067000795D4348415247204D4F44452C73537494
:100680006174653D25640D0A0D0A00000800002014
:100690003D3D3D3D3D3D3D3D3D3D3D3D3D3D6B6534
:1006A00079206E6561723D3D3D3D3D3D3D3D3D3DA9
:1006B0003D3D0D0A000000005B70726F635F6B656B
:1006C000795D6E6561724D4F44452C73537461744E
:1006D000653D25640D0A0D0A00000000696E69740D
:1006E000206E656172206D6F64652C656E61626C51
:1006F0006520697264612070776D2C72756E2E2E84
:100700002E0D0A0070477047704700BFFEE700BF1C
:10071000FEE700BFFEE700BFFEE770477047704787
:100720007047704710B5022007F05AFF10B1022041
:1007300007F069FF10BD10B54FF4805007F0E6FFD9
:1007400058B15748806810F4805F02D0554802F0D5
:10075000E5F94FF4005007F0EAFF10BD10B5202076
:1007600007F0D4FF70B15048006810F0200F06D099
:100770004E480068806A401C4C4909688862202005
:1007800007F0D5FF10BD10B5042007F0BFFF50B132
:100790004348806810F0040F02D0424802F0BEF9CE
:1007A000042007F0AFFF10BD10B5012007F0AEFF29
:1007B000C8B13F48006810F0010F11D03D480068F3
:1007C000401C3C49086008468068401C88603A48E4
:1007D000808CC8610846406910B90846C069486104
:1007E000012007F08FFF10BD10B5022007F08EFF2B
:1007F000C8B13248006810F0010F11D02D48C06810
:10080000401C2C49C86008464068401C48602A4883
:10081000808C88610846006910B9084680690861C3
:10082000022007F06FFF10BD2548008800202449F2
:100830000880704710B580212148103808F08AFEE2
:1008400010BD10B501211C4808F073FE88B10020CE
:10085000194988841B480068D0F8900042F2107152
:10086000084418490968C1F890000121124808F0AD
:1008700071FE10BD70470020134908807047704713
:10088000704710B54FF49061104807F08BFD0128B8
:1008900004D14FF490610D4807F096FD10BD0000A3
:1008A00000100140B8430020080C0140C4000020A3
:1008B00008080140344200200010004008140140A4
:1008C000102C01406C000020243401400024014021
:1008D00030B500BF514800686422B0FBF2F1B1F1BD
:1008E000807F01D301201DE021F07F40401E4FF0AA
:1008F000E022506150170F22002807DA13071D0E5F
:10090000474B00F00F04241F1D5503E013071C0E76
:10091000444B1C5400BF00204FF0E02290610720A0
:10092000106100200028D5D130BD3F480068401C30
:100930003D4908603D480068D0F8940040B13B480C
:100940000068D0F89400401E38490968C1F8940046
:1009500036480068C079002806DD34480068C07950
:10096000401E32490968C87130480068007A002882
:1009700006DD2E480068007A401E2C49096808727E
:10098000704730B502460020274D2B6815685C1B68
:1009900009B18C4201D31360012030BD18B5044663
:1009A00000216846FFF7EDFF00BF21466846FFF7CC
:1009B000E8FF0028F9D018BD10B51D4807F0C0FEAB
:1009C0001B4808F021FB47201949283108804FF6C1
:1009D000FF70091D0880012015490C310880002096
:1009E00013492431088001201149088010BD10B539
:1009F00086B00446684606F0D2FD42F210710198B6
:100A0000B0FBF1F06043059002E00598401E0590B0
:100A100005980028F9D106B010BD0000DC000020C8
:100A200018ED00E000E400E00C0000206C00002065
:100A3000000C004010B5012240F22771A84807F0D1
:100A40000AF910BD10B5AFF21301A64802F008FC78
:100A50000021A54802F004FC10BD10B50446002298
:100A60002146A04802F019FC10BD10B5044603E071
:100A70002078FFF7F2FF641C20780028F8D110BD21
:100A800070B504460D46002604E014F8010BFFF78C
:100A9000E4FF761CAE42F8DB70BD2DE9F0419048D2
:100AA000058815F0800F23D08E4C2068616888423D
:100AB00014D0216804F10C00405C8949091D0880AC
:100AC000204602F0D5FB2168491C884202D1002053
:100AD00020600CE02068401C206008E0002240F20A
:100AE00027717F4807F0B7F80026761C761C00BFF8
:100AF00015F0200F25D07C4C7948001D0088C7B226
:100B0000204602F0B9FB00F10108204602F0B0FBDC
:100B1000804504D1A068401CA060BDE8F0816168F8
:100B200004F10C004754204602F0A2FB6168491C06
:100B3000884202D10020606002E06068401C606072
:100B400000BF00BFE9E710B56848008810F0200F2B
:100B500006D06648001D0088C4B2204603F034FB6E
:100B600010BD00B585B04FF40070ADF8100018202E
:100B70008DF8130003208DF8120004A95C4806F0DC
:100B800043FE4FF48060ADF8100004208DF8130090
:100B900004A9574806F038FE4FF4E13000900020D9
:100BA000ADF80400ADF80600ADF80800ADF80C0093
:100BB0000C20ADF80A006946494806F0B4FF01224E
:100BC00040F22551464807F046F8012240F22771CD
:100BD000434807F040F80121414807F030F8FFF79B
:100BE00031FF05B000BD10B50AE03F4802F0DDFB63
:100BF0000446002C03DBE0B202F04DFD00E000E013
:100C0000F3E700BF10BD00B587B00121C80406F0AE
:100C100040FD4FF48060ADF8180018208DF81B00DF
:100C200003208DF81A0006A9324806F0EDFD4FF4B6
:100C30000060ADF8180028208DF81B0006A92D488B
:100C400006F0E2FD684606F0F4FF6946274806F024
:100C5000DFFF4FF4E13002900020ADF80C00ADF85A
:100C60000E00ADF810000C20ADF812000020ADF819
:100C7000140002A91D4806F056FF012240F225513A
:100C80001A4806F0E8FF0121184806F0D8FF07B01F
:100C900000BD00BF1549098811F0800FFAD0134933
:100CA000091D0880704770B505460E46002403E014
:100CB000285DFFF7D2FE641CB442F9DB70BD0FB4AF
:100CC00008B503A800900C48009A029909F056FD57
:100CD0000948FFF7CAFE0020009001B05DF814FB40
:100CE000003801401401002024210020004C004065
:100CF00000080140001001403441002008B54FF6C3
:100D00001F40ADF8000004208DF8030003208DF88B
:100D1000020069468E4806F077FD0220ADF800001B
:100D200004208DF8030003208DF8020069468948ED
:100D300006F06AFD1020ADF8000004208DF80300D5
:100D400003208DF802006946834806F05DFD2020EF
:100D5000ADF8000004208DF8030003208DF8020098
:100D600069467B4806F050FD40F28130ADF8000046
:100D700004208DF8030003208DF8020069467648B0
:100D800006F042FD0620ADF8000004208DF80300B7
:100D900003208DF8020069466E4806F035FDC0203C
:100DA000ADF8000014208DF8030003208DF8020038
:100DB0006946674806F028FD08BD1CB5012007F00C
:100DC000B6FC022007F0B3FC202007F0B0FC0021A5
:100DD000084606F02DFE0121032006F029FE05211C
:100DE000012006F025FE2320009000208DF804004D
:100DF00008208DF8050001208DF80600684607F0F0
:100E00001FFC1CBD08B54FF4E06007F04DF836201C
:100E10008DF8000003208DF801008DF802000120FC
:100E20008DF80300684607F044F825208DF800008F
:100E300002208DF801008DF8020001208DF80300DA
:100E4000684607F036F834208DF8000002208DF84F
:100E500001008DF8020001208DF80300684607F0BC
:100E600028F84FF4A06007F01FF807208DF8000065
:100E700000208DF801008DF8020001208DF803009C
:100E8000684607F016F806208DF8000001208DF85E
:100E900001008DF802008DF80300684607F009F89C
:100EA00017208DF8000003208DF801008DF8020056
:100EB00001208DF80300684606F0FBFF28208DF81E
:100EC000000004208DF801008DF8020001208DF84B
:100ED0000300684606F0EDFF08BD10B508F08AFE75
:100EE000012146F67D2006F0C7FB01211B4806F0D4
:100EF000D0FB0121084606F0BFFB0121084606F0A1
:100F0000AEFB0121164808F04BF910BD10B5FFF7F4
:100F1000E4FFFFF777FFFFF750FFFFF7EFFE03F067
:100F200045FA10BD08B54FF46060ADF80000102020
:100F30008DF8030003208DF802006946094806F089
:100F400063FC08BD00BF0100A0F10100FBD17047A8
:100F5000000C014000140140001801400E000A007E
:100F60000004004000100140FE4800884FF6FF4199
:100F70000840FC490880084600884CF6FF7108408C
:100F8000F84908807047F74800884FF6FC71084020
:100F9000F4490880084600884FF6CF710840F149AF
:100FA0000880704700B589B00121042006F071FB6C
:100FB0000121082006F060FB0121084606F05CFBD9
:100FC0000121E848203808F0EBF84FF47070ADF8D4
:100FD000040018208DF8070003208DF8060001A9F1
:100FE000E14806F011FC4FF47A70ADF81C000320C4
:100FF000ADF818000020ADF81E001020ADF81A0062
:1010000006A9D848203807F06FFC6020ADF808002A
:101010000120ADF80A004FF44870ADF80E00002032
:10102000ADF8100002A9CF48203807F09AFC02A9B9
:10103000CC48203807F0D7FC02A9CA48203807F06E
:101040001FFD02A9C748203807F065FD0821C548E3
:10105000203808F0D5F80821C248203808F0D9F81F
:101060000821C048203808F0E1F80821BD482038A0
:1010700008F0E5F80121BB48203807F091FFFFF7A1
:1010800082FFFFF771FF09B000BDB64A128842F433
:101090004072B44B1A801A46128842F440521A80A9
:1010A000012808D10022AF4B20331A80C1F57A7293
:1010B0001B1F1A8007E00022AA4B1C331A80C1F5BF
:1010C0007A721B1D1A80A94A1268D1637047A54A1B
:1010D000128842F00302A34B1A801A46128842F08B
:1010E00030021A80012808D100229E4B18331A8042
:1010F000C1F57A721B1F1A8007E00022994B143346
:101100001A80C1F57A721B1D1A8070472DE9F041D3
:1011100004460E4617461D46092C7BD2DFE804F034
:1011200005191A2C23475C7A6500FFF71DFFFFF7AE
:101130002AFF00218D4800686430FFF722FC002060
:101140008A490968A1F8520088490968A1F8500045
:101150006BE000BF31462046FFF797FF314620463F
:10116000FFF7B5FF61E031460220FFF78EFF314601
:101170000120FFF7ACFF58E031460220FFF7A7FF40
:1011800031460120FFF781FF002078490968087582
:1011900076480068B0F85200401C74490968A1F80C
:1011A0005200002071490968A1F850003DE07048E4
:1011B00001880120FFF769FF4FF425710120FFF737
:1011C00086FF40F24C406949096888624FF4E1604B
:1011D00066490968C86228E031460120FFF755FFDB
:1011E00031460120FFF773FF1FE04FF4D271012059
:1011F000FFF74BFF40F226210120FFF768FF002098
:101200005A490968A1F8520058490968A1F85000E4
:101210000BE0FFE7564801880120FFF736FF5448EE
:1012200001880120FFF753FF00BF00BF4F4800684F
:1012300044704E480068C57000204C490968C86574
:10124000BDE8F0812DE9FE4F83460C464FF4167041
:101250000290204608F08EFF07460022454B08F01A
:1012600003FF054608F0B0FF81464FF4967002F088
:1012700057FF00203D490968C1F8980000231A462D
:101280004FF416715846FFF741FF00203A49088095
:1012900082462EE038480088B0F5FA6F29DB02F06C
:1012A00098FE484608F058FF054630480068D0F8D8
:1012B0009810284608F0D6FF0CD3C9F1000008F0BA
:1012C0004BFF054629480068D0F89810284608F0DA
:1012D000D3FF0ED2BAF1030F05DA00231A461946DE
:1012E0001846FFF713FF50460AF1010AC82800DD2F
:1012F00000E0CFE700BF1D490968D1F89C0008F065
:1013000082FF05460E4619490968D1F8980008F091
:101310007AFF07463A460B4618A0CDE90056FFF77C
:10132000CEFC00231A4619461846FFF7EFFEBDE82B
:10133000FE8F2DE9F041184801780078401CC0B2BA
:10134000154A10700F297DDB02F043FE074909683A
:10135000D1F89C00114908F08FFF2AD2034909688F
:101360001EE0000020080040000C01406C0000203E
:101370007C00002000000440240C00407475726E54
:10138000206F6B202C7961773D25662C61676C6539
:101390003D25660D0A0000003A0000200000AA4327
:1013A000D1F89C00404908F042FD40490968C1F865
:1013B0009C003E480068D0F89C203D480068D0F86A
:1013C00000113C4800F04EF938480068806CC0F5C8
:1013D0007A703949088035480068406CC0F57A70E9
:1013E00035490831088000203449087072B6344904
:1013F000086908F0BAFE04463149886908F0B5FE6C
:1014000005462F49C86808F0B0FE064600202C4962
:10141000C860886108612B49888462B621462846E5
:1014200008F005FD0746314608F03DFD1F490968F3
:10143000C1F8A4002448007803280CDA2248007878
:10144000401C00E007E02049087018480068D0F808
:10145000A4001E490860BDE8F081014601EB41008F
:101460001B4A02EB400070470EB5104800684078F8
:1014700000EB4000164901EB40000C490968096B7C
:101480000A4A1268126ECDE90021029007480068EE
:10149000C36D06480068826D04480068416D0DA068
:1014A000FFF70DFC0EBD00000000B4436C000020EF
:1014B000C400002088420020340800403A00002088
:1014C00034420020001000403B0000203C0000207F
:1014D0001000002048313D25642C48323D25642C05
:1014E00053313D25642C53323D25642C773D2564D2
:1014F0002C25730D0A0000002DE9F04F91B08346B2
:10150000DFF8F0A30020CAF80000CAF80400CAF807
:101510000800CAF81400CAF80C00584608F01CFE6F
:10152000CAF82400DFF8D0A30020CAF80000CAF8E7
:101530000400CAF80800CAF81400CAF80C00CAF877
:101540001000584608F008FECAF82400EB49096864
:10155000888808F00AFE0446E94908F0A4FCE54939
:101560008861E6490968C88808F0FFFD0446E44937
:1015700008F099FCDF49C861E0490968088908F06A
:10158000F4FD0446DE4908F08EFCDA490862DB49C6
:101590000968488908F0E9FD0446D94908F083FC48
:1015A00051468861D5490968888908F0DEFD0446FE
:1015B000D34908F078FC5146C861D0490968C88908
:1015C00008F0D3FD0446CE4908F06DFC5146086290
:1015D0000020CC4909688873CA480068C0F848B040
:1015E000C8480068C0F844B0C6480068C0F84CB0AD
:1015F0005146086A08F007FE04460D465146C86980
:1016000008F001FE06460F465146886908F0FBFDCA
:1016100080468946B749086A08F0F5FDCDE90E0114
:10162000B449C86908F0EFFDCDE90C01B1498869FA
:1016300008F0E9FDCDE90489CDE90667CDE9084563
:10164000CDE90A01DDE90E01CDE90201DDE90C0178
:10165000CDE90001ACA0DDE90A23FFF730FB11B0B2
:10166000BDE8F08F2DE9F84F04460D46164625607B
:101670006660D4E9000108F0DAFBA060A168206987
:1016800008F083FB2061A168A06908F0D6FB8246C0
:10169000D4E9020108F0CBFB8146216A08F0CDFBBA
:1016A00080462169E06908F0C8FB00905046009927
:1016B00008F06BFB8146414608F067FB07469D49F1
:1016C000384608F0CFFD00D29A4F9B49384608F0C3
:1016D000D3FD00D2984F3946606A08F056FB60622D
:1016E00088490968C86C08F037FD8346394608F018
:1016F0004CFB814608F04FFD8249096888648149A6
:101700000968C86C08F028FD8346394608F08FFB4D
:10171000814608F040FD7B490968486479480068C3
:10172000806CB0F57A7F04DB40F2E73075490968D8
:10173000886474480068806C322803DC3220714968
:10174000096888646F480068406CB0F57A7F04DBF4
:1017500040F2E7306B49096848646A480068406CA9
:10176000322803DC32206749096848647349606A9B
:1017700008F082FD01D8724860627249606A08F020
:1017800071FD01D26F486062E0686061A068E0604E
:10179000606A08F000FDBDE8F88F2DE9F84F0446B7
:1017A0000D46164625606660D4E9000108F03FFB4F
:1017B000A060A168206908F0E8FA2061A168A0692A
:1017C00008F03BFB8246D4E9020108F030FB814679
:1017D000216A08F032FB80462169E06908F02DFBA0
:1017E00000905046009908F0D0FA8146414608F032
:1017F000CCFA07465449384608F034FD00D2524F1F
:101800005249384608F038FD00D2504F3D4909682A
:10181000C86C08F0A1FC8346394608F0B6FA814648
:1018200008F0B9FC37490968C86436480068C06CDC
:10183000B0F5487F04DB4FF4487032490968C8644A
:1018400030480068C06CB0F5967F04DA4FF49670AB
:101850002C490968C864E0686061A068E060606A5B
:1018600008F099FCBDE8F88F2DE9F04172B63849CF
:10187000086908F07AFC04463549886908F075FC67
:1018800005463349C86808F070FC06460020304918
:10189000C860886108612F49888462B6214628465D
:1018A00008F0C5FA0746314608F0FDFA15490968FF
:1018B000C1F8A4002848007803280DDB114800680F
:1018C000D0F8A420254801680A48FFF7CBFEC0F5F0
:1018D0007A70234908800AE01F480078401C1E499E
:1018E000087008480068D0F8A4001C490860BDE8EA
:1018F000F081000060420020884200207800002033
:101900000000C8426C0000206C65667420703D25A4
:10191000662C693D25662C643D25662C72696768D6
:101920007420703D25662C693D25662C643D256636
:101930000D0A0000000048C30000484300007A443C
:1019400000C079440000F041000020C100002041A7
:1019500034420020001000404000002044000020DD
:1019600034080040F948FA490860012009684870C5
:10197000F7490968C8700020F54909688871F44979
:1019800009688865F24909684865F149096808638A
:101990004FF47A70EE49096888620020EC490968C2
:1019A0004871EB4909680871EA49086070470146C7
:1019B00000220BE0E8480068084201D00020704790
:1019C000002300E05B1C0A2BFCDB521C052AF1DB28
:1019D0000120F4E7014600220CE0DF4800680840DF
:1019E000884201D000207047002300E05B1C0A2BD6
:1019F000FCDB521C052AF0DB0120F4E702468A4298
:101A000001DD501A7047881AFCE710B5002115E077
:101A1000D24A32F8112082420FD100F00F02521E3A
:101A2000CF4B9A5C521CD4B200F00F02521E9C5451
:101A30009A1E5278521C9B1E5A70491C0929E7DBDA
:101A400010BD00280DDD08280BDC411EC54A515C85
:101A5000491CCBB2411E5354911E4978491C921E19
:101A60005170704710B5BE48BF49491C401C002248
:101A700008E00B780478A34200D010BD491C401C3C
:101A8000531CDAB2082AF4DB00BFF6E700B587B0D2
:101A90000121480305F0F0FD0121102005F0ECFDC7
:101AA0008020ADF8180004208DF81B0006A9AF486F
:101AB00005F0AAFE4FF4FA60ADF804004720ADF837
:101AC00000000020ADF80600ADF802008DF8080017
:101AD0006946A74806F008FF0420ADF80C00002076
:101AE000ADF80E00ADF812000120ADF81000052091
:101AF000ADF8140003A99E4807F089F904219C4819
:101B000007F014FD01219A4807F010FD012204217D
:101B1000974807F060FA01221146954807F05BFAF2
:101B20000121934807F03CFA07B000BD08B58020BA
:101B3000ADF8000004208DF8030069468D4805F0DB
:101B400063FE47208C4908804FF4FA60091D088025
:101B500089481038008840F480708749103908801F
:101B60000846008840F4A040088083480838008870
:101B700020F020008049083908800846008840F09D
:101B8000100008807C481C38008840F004007A4926
:101B90001C3908800846008840F0010008800120B8
:101BA00075492839088074481838008820F00100E9
:101BB00071491839088008BD05285ED2DFE800F0B9
:101BC000030D213549006C4A083A12884CF6CC4383
:101BD0001A40694B083B1A804FE041B1664A083A07
:101BE000128842F00302644B083B1A8008E0624A04
:101BF000083A12884FF6FC731A405F4B083B1A8074
:101C00003BE041B15C4A083A128842F030025A4B3C
:101C1000083B1A8008E0584A083A12884FF6CF73FA
:101C20001A40554B083B1A8027E041B1524A083A06
:101C3000128842F44072504B083B1A8008E04E4A2A
:101C4000083A12884FF6FF431A404B4B083B1A8064
:101C500013E041B1484A083A128842F44052464BD8
:101C6000083B1A8008E0444A083A12884CF6FF7391
:101C70001A40414B083B1A8000BF00BF704700BFAD
:101C80003348006840780028FAD1704738B50446D8
:101C90000CE0684602F0B7FBBDF8000048F6100102
:101CA000084203D035A0FFF70AF838BD284800687D
:101CB000406DA042EDD326480068416D224636A013
:101CC000FEF7FDFF00BFF0E710B53AA0FEF7F7FF03
:101CD00001201F490968887000203B4908700023D3
:101CE0001A4619461846FFF711FA01230022374811
:101CF00001881846FFF70AFA10BD7CB50646002594
:101D000001A802F080FB00240AE0684602F07BFB99
:101D1000BDF80400BDF8001008430190601CC4B277
:101D2000052CF2DB2848007820B101286DD002286C
:101D30006CD10AE1BDF8040010F0010F5FD0044837
:101D40000068407801285AD142E00000B0420020EB
:101D50006C0000200C000020080C0140480000200E
:101D60005E430020724300206843002000100140C1
:101D70000034014000080140280400405B7761699D
:101D800074696E675F68775D666F756E64206275F3
:101D90006D212121210D0A005B77616974696E67ED
:101DA0005F68775D6D5F634877313D256428256402
:101DB000290D0A00696E69745F6E6561725F7761F3
:101DC0006C6C0D0A000000005A0000207C0000200E
:101DD000EAA0FEF774FF00231A4619461846FFF7DB
:101DE00095F90520FEF7DAFD002346224FF44371F2
:101DF0000420FFF78BF901250120ED490870BDF89B
:101E0000040010F4084F34D001E033E0A1E0E9A071
:101E1000FEF755FF00236422F24801880220FFF7F5
:101E200075F9FFF72CFF0520FEF7B8FDBDF804009B
:101E300000F40840B0F5006F0AD1EBA0FEF73FFFB9
:101E4000002332224FF443710420FFF75FF909E0C9
:101E5000ECA0FEF734FF002350224FF4437104201E
:101E6000FFF754F9EEA0FEF72AFF0120D0490870D1
:101E700001256EE0BDF8040048F61001084228D0A4
:101E8000BDF8040010F4084F03D0F3A0FEF717FFCD
:101E900002E0FBA0FEF713FF00231A46194618467E
:101EA000FFF734F9BDF8040010F4084F08D0002300
:101EB0005022CC4801880220FFF728F9FFF7DFFE07
:101EC000002323224FF443710420FFF71FF901255B
:101ED0003AE0BDF8040010F0200F11D000231A469C
:101EE00019461846FFF712F900230A224FF44371EE
:101EF0000420FFF70BF901250020EE49087023E0CC
:101F0000EC480078401CEB49087000231A4619463B
:101F10001846FFF7FBF8E7480078032807DD0023A1
:101F20001E224FF443710320FFF7F0F806E0002370
:101F30000A224FF443710320FFF7E8F80125DD483A
:101F40000178DDA0FEF7BBFE03E0E0A0FEF7B7FEE0
:101F500000BF00BF75B1FFF792FEE3A0FEF7AFFE32
:101F6000012300229F4801881846FFF7CFF8502030
:101F7000FFF78CFE7CBD10B5E3A0FEF7A0FE0020AD
:101F8000E64908700220E64909680870002340F617
:101F9000B8324FF42F710420FFF7B8F8E148E24956
:101FA0004860032008754875E0488860401EC86096
:101FB000DC48401C0861DE48DE49486004200875A2
:101FC0004875DA48401E8860401CC860D548401CEF
:101FD000086110BD10B5D848007830B1012854D040
:101FE00002287BD003287AD1BAE0CD480068406D42
:101FF000B0F57A7F06D3D1A0FEF761FE1420CE495A
:10200000087049E2C64800684078F0B9D6A0FEF7EB
:1020100056FEE5480068C18A00234FF47A62012029
:10202000FFF774F8E0480068408BBD490968C86252
:10203000BB49096888620120BF4908700020DB495C
:1020400009688875DA4908701EE0D8480068406859
:102050000078C8B9D4480068018AD648FEF72FFE38
:1020600000231A4619461846FFF750F8CE4B1B6856
:102070001A8ACD4B1B68D98ACC4B1B68587D00232C
:10208000FFF744F8FFF7FBFD06E2A8480938007A9D
:1020900048B9A6480938407A002804DDC3480068DA
:1020A000407D03280ED0A1480938407A002836D157
:1020B0009E480938007A002831DDBC480068407D20
:1020C00004282CD1BA4801780078401CB84A107016
:1020D000022924DBB4480068418A01E020E0D5E110
:1020E000B5A0FEF7ECFD00231A4619461846FFF787
:1020F0000DF8AD480068428AAB480068C08A00F11C
:102100003C0100230120FFF701F800208449096801
:10211000C862834909688862022087490870BBE168
:102120007F4800684078D0B9B2A0FEF7C8FD002013
:102130009E49096888759C4A1268D28A02F11E017C
:102140009A4A1268107D00234FF4FA62FEF7DEFF10
:102150000320794908700020954908709CE19BE1B3
:102160006F480068406DB0F57A7F06D3ADA0FEF7EA
:10217000A6FD1420704908708EE167E15B6E656111
:102180007277616C6C5D46575F4D49444C2C696EAB
:1021900020746865206C65667420736964652C74AE
:1021A00075726E2072696768742E2E2E0D0A0000FB
:1021B0005A0000205B6E65617277616C6C5D6C65C6
:1021C00066742062756D2C6261636B2C616E642095
:1021D0007475726E20726967687420323020687777
:1021E0000D0A00007C0000206F6E6C79206C656623
:1021F000742062756D2C7475726E20393068770D9D
:102200000A0000006D6964646C652062756D202CA5
:102210007475726E203230306368770D0A000000EA
:102220005B6E65617277616C6C5D7475726E206F48
:102230006B2C474F5F464F525741524420616E64AA
:1022400020696E746F204E4541525F4C45465420C4
:102250006D6F64650D0A00005B4E454152204C4590
:1022600046545D62756D21216261636B202C616E45
:1022700064202C7475726E2072696768740D0A0090
:102280005B4E454152204C4546545D6C656674205A
:10229000736C616E742C73746F7020616E64207443
:1022A00075726E20726967687420313020636877B8
:1022B0000D0A00005B00002063206C6F7374206CBB
:1022C0006566743D25640D0A000000007269676848
:1022D000742073696465202C6E6F20636F64652EB3
:1022E0002E2E0D0A000000005B6E5F6C6F6F705D3C
:1022F0007475726E206F6B2C474F5F464F5257417B
:1023000052440D0A00000000646F636B696E675FE2
:10231000696E69742E2E2E0D0A00000071000020D7
:102320006C000020B34300207C430020CD430020FC
:10233000C243002094430020640000205B646F636C
:102340006B696E675F736974655D6E6F7420666F2D
:10235000756E6420562C6D5F63487731203E3D31A9
:102360003030300D0A0000005B646F636B696E678C
:102370005F736974655D6261636B204F4B2C6E6F98
:102380007720474F5F464F525741524420666F7245
:1023900020666F756E64696E67206D6964646C6534
:1023A0002E2E2E0D0A000000780000207400002060
:1023B0006500002030B800085B646F636B696E676E
:1023C0005F736974655D666F756E64204D696464E2
:1023D0006C652C73746F7020616E64207374696C0B
:1023E0006C20676F202564206368772E2E2E0D0ADF
:1023F000000000005B646F636B696E675F736974F4
:10240000655D676F20313730206F7665722C6E6F97
:1024100077207475726E20746F206D6964646C65CA
:102420000D0A00005B646F636B696E675F736974AC
:10243000655D666F756E64206D6964646C65206CA3
:10244000696E65204552524F520D0A00F248007ADB
:10245000D8B1F248407A10B9F048007AA8B1F048F3
:1024600001780078401CEE4A1070EE480068808ABF
:1024700081420ADDECA0FEF722FC00231A46194631
:102480001846FEF743FE012010BD05E0F048017834
:10249000F0A0FEF714FC00BF00BF0020F4E770B509
:1024A0000025F548007810B101287DD193E0DA4885
:1024B000007A18B9D948407A002830D0EF4800682F
:1024C0004078012813D0EEA0FEF7F9FB00231A464E
:1024D00019461846FEF71AFED2480068C08A00F175
:1024E0001E01002340F6B8320120FEF70FFECA4855
:1024F000007A00286ED0C948407A00286AD0ED489A
:10250000FEF7DDFBC7480068018B002340F6B832B8
:102510000120FEF7FBFD0120D74908705AE0D7489B
:1025200000684078012855D1BB48407A90B1E2A0BC
:10253000FEF7C5FB00231A4619461846FEF7E6FDCE
:10254000B8480068C18A00234FF47A720320FEF76E
:10255000DDFD3FE0B148007A90B1E5A0FEF7AFFBAA
:1025600000231A4619461846FEF7D0FDAD4800680C
:10257000C18A00234FF47A720420FEF7C7FD29E0D8
:10258000E948007AA0B1E9A0FEF799FB00231A46BA
:1025900019461846FEF7BAFDA2480068C18A002312
:1025A0004FF47A72042000E07DE0FEF7AFFD11E009
:1025B000EEA0FEF784FB00231A4619461846FEF7E4
:1025C000A5FD98480068C18A00234FF47A72032061
:1025D000FEF79CFD67E09048007AD0B18F48407AC2
:1025E000B8B1A6480068407801283AD0EFA0FEF7BD
:1025F00066FB00231A4619461846FEF787FD8948F0
:102600000068018B002340F6B8320120FEF77EFD02
:1026100027E08148007A90B1EFA0FEF750FB00233D
:102620001A4619461846FEF771FD7E480068018B70
:10263000002340F6B8320420FEF768FD11E0EFA059
:10264000FEF73DFB00231A4619461846FEF75EFDCD
:1026500074480068018B002340F6B8320320FEF76F
:1026600055FD002500240EE0ED48006810F0010F34
:1026700001D1681CC5B2002601E0701CC6B2082E4C
:10268000FBDB601CC4B2322CEEDB282D0ADBE5A09C
:10269000FEF715FB00231A4619461846FEF736FDCD
:1026A000012070BD00BF00BF0020FAE770B58AB0FE
:1026B000E14890F83A00032820D15848807A5749D9
:1026C000497A564A127A554BDB79CDE90532CDE984
:1026D00007109548817A407A934A127A924BDB79B7
:1026E000CDE90132CDE903014B48807A00904A4898
:1026F000437A027AC179D1A0FEF7E1FAD94800788D
:1027000030B101284DD002285DD0042876D169E08F
:102710005A4800684078042842D158480068406D03
:10272000B0F57A7F3CD23C48C079D8B10120CD4980
:102730000870CDA0FEF7C3FA00231A4619461846C2
:10274000FEF7E4FCD648D7490860002040490870ED
:1027500034480068C18A00234FF4FA620420FEF76F
:10276000D5FC1DE02D48807AD0B1CFA0FEF7A7FAA6
:102770000120BC49087000231A4619461846FEF786
:10278000C5FCD748C7490860002031490870254872
:102790000068C18A00234FF4FA620320FEF7B6FCFA
:1027A000A7E1FFF717FC012802D0022808D106E0B4
:1027B0000220AC49087000202F49087001E000E0B9
:1027C00000BF00BF95E1FFF76AFE012802D0022892
:1027D00005D103E00420A349087001E000E000BF38
:1027E00000BF86E1002500240FE08D48006810F04E
:1027F000010F01D0681CC5B2002602E078E1701C10
:10280000C6B20A2EFBDB601CC4B23C2CEDDB322DC1
:1028100000DB67E16BE10000AC430020B84300201F
:1028200065000020780000205B646F636B696E6751
:102830005F736974655D666F756E64206D6964644D
:102840006C65206C696E65204F4B0D0A000000001E
:10285000640000205B646F636B696E675F7369740B
:10286000655D6572726F722C7374615F73697465F4
:102870003D25640D0A000000660000206C00002069
:102880005B646F636B5F6D6964646C655D6D6F74D1
:10289000657220737461213D464F52574152442C5A
:1028A0006E6F7720474F5F464F52574152440D0A93
:1028B0000000000074B800085B646F636B5F6D69B3
:1028C00064646C655D6C6F737420746865206D69F9
:1028D000646C652C696E2074686520726967687421
:1028E0002C6D61737420676F206C6566740D0A002F
:1028F0005B646F636B5F6D6964646C655D6C6F7363
:102900007420746865206D69646C652C696E207430
:102910006865206C6566742C6D61737420676F2028
:1029200072696768740D0A00C44300205B646F63BA
:102930006B5F6D6964646C655D6C6F737420746843
:1029400065206D69646C652C696E20746865206C07
:10295000656674206C6566742C6D61737420676F96
:102960002072696768740D0A000000005B646F6381
:102970006B5F6D6964646C655D6C6F737420746803
:1029800065206D69646C652C696E207468652072C1
:10299000696768742072696768742C6D617374204C
:1029A000676F2072696768740D0A00004D4D2C6DC9
:1029B0006F7465722073746120213D20666F727799
:1029C0006172642C6E6F7720474F5F464F525741BC
:1029D00052440D0A000000004D4D2C696E207468B1
:1029E00065204C4546542C6E6F7720746F207468B8
:1029F000652072696768740D0A0000004D4D2C69EE
:102A00006E207468652052494748542C6E6F7720B9
:102A1000746F20746865206C6566740D0A00000090
:102A200008180140636861726765204F4B2C53544E
:102A30004F50200D0A000000D04400202825642CAF
:102A400025642C25642C25642C25642C25642C25D8
:102A5000642C25642C25642C25642C25642C256489
:102A6000290D0A00710000205B444F434B5F415227
:102A700045415F4E4F5D666F756E64206C65667490
:102A800020736964652E77652077696C6C20747596
:102A9000726E2072696768742E2E2E0D0A00000077
:102AA0007C430020740000205B444F434B5F415245
:102AB00045415F4E4F5D666F756E642052494748D1
:102AC0005420736964652E77652077696C6C207477
:102AD00075726E206C6566742E2E2E0D0A00000035
:102AE0009443002037A0FEF7EAF8FFF744FA00E02D
:102AF00000BF00BF00203B49C871487208723A49C4
:102B0000C871487208723949C8714872087288726F
:102B100035498872334988720AB070BD30B5344C7B
:102B20002468D4F89040334DAD8C62190468111BB1
:102B30000260B1F5967F03D300244471847104715F
:102B40000479002C39DD0479082C36DC0479631E05
:102B50003C2901D387290ED3912907D3C82905D24F
:102B6000847901259D402C43847104E00024447144
:102B70008471047130BD0479082C1ED18479E12C54
:102B800003D1447A641C447213E08479D22C03D1BB
:102B9000C479641CC4710CE08479C32C03D1047A19
:102BA000641C047205E08479B42C02D1847A641C1C
:102BB000847200244471847104710479641C04716A
:102BC00000BFD7E7636861726765206C6F73742C10
:102BD000696E697420646F636B696E672E2E2E0DAB
:102BE0000A0D0A00AC430020B8430020C443002073
:102BF0006C0000200010004010B503E010F8013B0D
:102C000001F8013B1300A2F10104A2B2F6D110BDFC
:102C10002DE9F04100274FF48077FE4CFE4E06F080
:102C2000BCFC352006F054FF304606F0FBFC12E0F9
:102C300014F8015B14F8011B45EA012514F8011B87
:102C400045EA014514F8011B45EA0165294630466D
:102C500006F0B8FD361D3800A7F101018FB2E7D1AB
:102C600006F0A7FCBDE8F08110B545F2AA50EB498B
:102C7000096808803C20E949096848820F20E74933
:102C8000096808820120E549096888824FF42F709D
:102C9000E2490968C88240F20230E04909680883C5
:102CA0004FF47A60DD490968488340F28A20DB49A5
:102CB000096888834FF43470D8490968C8834FF491
:102CC0004860D64909680884FFF7A2FF10BD10B517
:102CD0000024D048D14908604FF480720146CE48A4
:102CE000FFF78AFFCD4800680088A0F5AA41AA39FD
:102CF00004D0CBA0FDF7E3FFFFF7B6FFC74800689D
:102D0000408AB0F52F7F03DCC4480068408A38B998
:102D10003C20C24909684882C8A0FDF7D0FF0124C1
:102D2000BE480068008A20B1BC480068008A642858
:102D300007DD0F20B94909680882C7A0FDF7BFFF6A
:102D40000124B6480068808A0A2807DD0120B349BB
:102D500009688882C0A0FDF7B2FF0124AF4800686F
:102D6000C08A64280EDAAD480068C08AB0F57A7F60
:102D700008DB4FF42F70A9490968C882BDA0FDF790
:102D80009EFF0124A5480068008B64280EDAA34842
:102D90000068008BB0F57A7F08DB40F202309F4973
:102DA00009680883B9A0FDF78AFF01249B480068E1
:102DB000408BB0F5FA6F0FDA98480068008B41F24B
:102DC0007071884208DD4FF47A609449096848833D
:102DD000B5A0FDF774FF012490480068808B64283B
:102DE0000EDA8E480068808BB0F57A7F08DB40F2FF
:102DF0008A208A4909688883B2A0FDF760FF012410
:102E000086480068C08B64280EDA84480068C08B4E
:102E1000B0F57A7F08DB4FF4347080490968C883C5
:102E2000A8A0FDF74CFF01247C480068008CB0F599
:102E30007A7F0FDA79480068008C41F2707188421D
:102E400008DD4FF44860754909680884A4A0FDF7BF
:102E500036FF012471480068808BA84908806F48BC
:102E60000068C08BA64908804FF461706B490968FF
:102E700048846A480068838A68480068428A6748CC
:102E80000068418A9FA0FDF71AFF64480068438BE1
:102E900062480068028B61480068C18AA4A0FDF7FF
:102EA0000EFF5E480068038C5C480068C28B5B487C
:102EB0000068818BA9A0FDF702FF0CB1FFF7A8FE07
:102EC00010BD2DE9F04188B007468846384606F027
:102ED0003FFF202806D3ACA0FDF7F1FE002008B08C
:102EE000BDE8F0812021AB4806F01DFF002407E07B
:102EF000385D3D2803D10020A649085502E0641C36
:102F0000052CF5DB00BFA349A3A0FDF7D8FE394689
:102F1000684606F024FF3D21684606F00FFF05468F
:102F200025B9A0A0FDF7CBFE0020D8E70D2168460B
:102F300006F004FF064626B99EA0FDF7C0FE00205D
:102F4000CDE700203070681C06F012FFC8F80000C2
:102F50009048C4E770B586B005460E462C462088DA
:102F6000A0F5AA41AA3904D097A0FDF7A8FE06B0A3
:102F700070BDA078012839D1162221462748006863
:102F800006F0B8FE25480068808B5C49088023481D
:102F90000068C08B5A49088020480068838A1F480F
:102FA0000068428A1D480068418A56A0FDF787FEE6
:102FB0001A480068438B19480068028B174800685C
:102FC000C18A5BA0FDF77BFE14480068038C1348A0
:102FD0000068C28B11480068818B60A0FDF76FFE0E
:102FE000FFF716FE7CA0FDF76AFE28E1A078022814
:102FF0000ED1162209480168684606F07BFE45F2AC
:10300000AA50ADF8000002208DF802000020E9E08F
:10301000F5E00000D043002000F000087800002018
:103020007265616420666C617368206572726F728C
:103030002C72657365742069740D0A00646F636B8C
:103040005F66775F636877206572726F722C726556
:103050007365740D0A000000646F636B5F68775FCF
:103060006261636B206572726F722C726573657436
:103070000D0A0000646F636B5F70776D206572727C
:103080006F722C72657365740D0A0000646F636B58
:103090005F6D5F70776D206572726F722C726573F1
:1030A00065740D0A00000000646F636B5F737065E8
:1030B0006564206572726F722C72657365740D0A97
:1030C0000000000070776D5F6E6F726D616C20653F
:1030D00072726F722C72657365740D0A00000000C5
:1030E00073706565645F6E6F726D616C206572727E
:1030F0006F722C72657365740D0A00007C000020ED
:103100007E000020646F636B5F66773A25642C66EF
:10311000775F6368773D25642C68775F6261636BD6
:103120003D25642C68775F7475726E0D0A0000008F
:10313000646F636B5F70776D3A25642C646F636BAB
:103140005F6D5F70776D3D25642C646F636B5F739B
:10315000706565643D25640D0A00000070776D5F41
:103160006E6F726D616C3A25642C70776D5F736C55
:103170006F773D25642C73706565645F6E6F726D4B
:10318000616C3D25640D0A006C656E206572726F7E
:10319000720D0A000C450020636D643D25730D0A15
:1031A000000000006E6F7420666F756E64203D0D28
:1031B0000A0000004E4F5420464F554E44203078B0
:1031C00030440D0A000000006D616769632065727C
:1031D000726F720D0A000000736574204F4B0D0A68
:1031E000000000008DF803000A20FDF7D7FB162130
:1031F0006846FDF758FD0A20FDF7D0FB1FE0A078D8
:1032000003281CD1E078182819D13C2221460D480A
:1032100006F070FD0B4890F83B2090F83A100AA099
:10322000FDF74DFD074890F83A00012807D1054801
:1032300090F83B1000231A460120FDF767FF00BFFE
:1032400095E60000D04400207379732064656275B0
:10325000673D25642C70776D3D25640D0A000000E4
:10326000002202604260826042F20C0211507047FC
:1032700001464FF40050704700B502461046FFF774
:10328000F7FF51681368C91A43181046FFF7F0FF9B
:1032900093FBF0F100FB113000BD70B504460D4604
:1032A00016466068401C2168884202D100202060D8
:1032B0006060616804F10C0045542046FFF7D8FFB8
:1032C0006168491C884202D10020606002E06068A9
:1032D000401C606042F20C00005918B142F20C012F
:1032E0000859804770BD2DE9F047044688461546C9
:1032F0009946B9F1000F0AD000BF2046FFF7BCFF86
:1033000042192046FFF7B4FF8242F6DA15E0204664
:10331000FFF7B2FF42192046FFF7AAFF82420CDBFB
:10332000A0682844A06042F20C00005918B142F293
:103330000C0108598047BDE8F0872046FFF798FF49
:103340006168461AB54215DC626804F10C01501838
:103350002A46414606F0CEFC2046FFF789FF616809
:103360002944884202D10020606014E0606828444B
:10337000606010E0626804F10C015018324641466A
:1033800006F0B8FCAF1B08EB06013A4604F10C004E
:1033900006F0B0FC676042F20C00005918B142F22E
:1033A0000C010859804700BFC5E700B50246106808
:1033B0005168884202D14FF0FF3000BD116802F120
:1033C0000C00435C1046FFF753FF1168491C88420C
:1033D00002D10020106002E01068401C1060184606
:1033E000EBE7014608684A68904202D14FF0FF308F
:1033F00070470B6801F10C02D05C00BFF8E70000D9
:1034000038B504460D467E208DF800005D208DF80D
:10341000010002216846FDF733FB29462046FDF7EF
:103420002FFB6D208DF800007D208DF8010002211A
:103430006846FDF725FB38BD2DE9F04F93B00446F3
:10344000002012902078012806D0022852D00328AC
:103450007ED006287DD110E1A1464C4699F80100A6
:10346000401C00F0FF0ABAF1040F05DD99F80110C5
:10347000B2A0FDF724FC0AE1B9F80200B0F57A7FAA
:1034800005DDB9F80210B3A0FDF719FCFFE0B9F8AB
:10349000020030B900231A4619461846FDF736FED9
:1034A00027E0BAF1010F02D0BAF1020F17D1BAF139
:1034B000010F0CD1B9F80200FEF71EF84FF4967018
:1034C00000F02EFE0020A8490968C1F89800B9F85C
:1034D000021000231A465046FDF718FE09E0BAF123
:1034E000030F02D0BAF1040F03D15A215046FDF761
:1034F000A9FECCE0A3465C46BBF802009B490968E4
:103500008880BBF8040099490968C880BBF80600A8
:10351000964909680881BBF8080094490968488100
:10352000BBF80A00914909688881BBF80C008F49F3
:103530000968C8818D480068C1898C480068808905
:103540008A4A12685289CDE900200291874801E039
:1035500088E098E00068038984480068C28883484E
:103560000068818882A0FDF7AAFBFFF751FB7F4925
:103570000968888806F0F9FD0546874906F093FC3E
:103580008649886179490968C88806F0EEFD0546D4
:10359000814906F088FC8149C86174490968088935
:1035A00006F0E3FD05467C4906F07DFC7B49086298
:1035B0006E490968488906F0D8FD0546764906F047
:1035C00072FC7749886169490968888906F0CDFDF0
:1035D0000546714906F067FC7149C861634909688D
:1035E000C88906F0C2FD05466B4906F05CFC6C49D3
:1035F0000862086A06F007FE05460E466849C86973
:1036000006F001FE074688466549886906F0FBFD1D
:10361000CDE910016149086A06F0F5FDCDE90E011A
:103620005E49C86906F0EFFDCDE90C015B49886988
:1036300006F0E9FDCDE90678CDE90856CDE90A01A5
:10364000DDE91001CDE90401DDE90E01CDE902015A
:10365000DDE90C01CDE9000152A0DDE90A23FDF707
:103660002EFB14E0032041490968887080213F48FF
:103670000068801CFFF7C4FE09E01E222146544862
:1036800006F038FB03E053A0FDF719FB00BF00BFB5
:1036900013B0BDE8F08F10B504465148007820B152
:1036A000012808D0022840D116E07E2C02D101204A
:1036B0004B4908703FE05D2C0AD102204849087050
:1036C0004021484806F02FFB00204749087002E0DF
:1036D0000020434908702EE0434801780078401CE0
:1036E000414A10703F48445410460078402808DB97
:1036F0003EA0FDF7E4FA00203B4908703849087005
:1037000019E07D2C10D138480078801E3549085CBE
:103710006D2809D1344801783248FFF78DFE00202A
:10372000314908702E49087005E000202E490870C4
:103730002B49087000BF00BF10BD000072756E20DD
:10374000737461206572726F722C7374613D2564AD
:103750000D0A000070776D206572726F722C7077A1
:103760006D3D25640D0A00006C00002078000020EB
:1037700070313D25642C69313D25642C64313D2533
:10378000642C70323D25642C69323D25642C6432F2
:103790003D25640D0A0000000000C8426042002080
:1037A000884200206C65667420703D25662C693D5A
:1037B00025662C643D25662C726967687420703D0F
:1037C00025662C693D25662C643D25660D0A0000A2
:1037D000D04400206572726F7220636D640D0A0020
:1037E000800000202C450020810000207278206598
:1037F00072726F720D0A0000022001E0411E48B291
:103800000028FBDC704710B501225103F84804F092
:10381000AAF801229103F64804F0A5F8FFF7ECFF9F
:1038200000224FF40051F24804F09DF8FFF7E4FF46
:1038300000224FF48041EE4804F095F8FFF7DCFFDA
:1038400010BD10B500224FF48041E94804F08BF818
:10385000FFF7D2FF00224FF40051E54804F083F84F
:10386000FFF7CAFF01229103E14804F07CF8FFF75B
:10387000C3FF01225103DE4804F075F8FFF7BCFFD7
:1038800010BD10B500224FF48041D94804F06BF808
:10389000FFF7B2FF00224FF40051D54804F063F85F
:1038A000FFF7AAFF01229103D14804F05CF8FFF76B
:1038B000A3FF00224FF48041CD4804F054F8FFF7F5
:1038C0009BFF10BD10B500224FF48041C84804F0A2
:1038D0004AF8FFF791FF01225103C54804F043F86D
:1038E000FFF78AFF01229103C14804F03CF8FFF77B
:1038F00083FF00224FF48041BD4804F034F8FFF705
:103900007BFF10BD70B50446082523E000224FF46C
:103910008041B74804F027F8FFF76EFF14F0800FDE
:1039200004D001225103B24804F01DF814F0800FB6
:1039300005D100224FF40051AD4804F014F86006A0
:10394000040EFFF759FF01229103A94804F00BF878
:10395000FFF752FF2800A5F10101CDB2D6D1002218
:103960004FF48041A24803F0FEFF70BD2DE9F04105
:1039700008270024012251039D4803F0F4FF20E0B2
:103980006006040E00224FF48041994803F0EBFFDB
:10399000FFF732FF01229103954803F0E4FF002670
:1039A000002508E04FF40051914803F0BEFF304479
:1039B000C6B2681CC5B2082DF4DB042E01DB44F04E
:1039C00001043800A7F10101CFB2D9D100224FF490
:1039D0008041874803F0C7FF2046BDE8F08110B55D
:1039E00000224FF48041824803F0BDFFFFF704FF3F
:1039F000012251037E4803F0B6FFFFF7FDFE0122CE
:103A000091037B4803F0AFFFFFF7F6FE4FF4005140
:103A1000774803F08AFF012806D176490860764886
:103A20000068401C7449086000224FF480417048CF
:103A300003F099FF10BD10B5012280216C4803F0FE
:103A400092FF012240216A4803F08DFFFFF7D4FE68
:103A500000228021664803F086FFFFF7CDFE00229A
:103A60004021634803F07FFFFFF7C6FE10BD10B58D
:103A7000002240215E4803F076FFFFF7BDFE0022E2
:103A800080215B4803F06FFFFFF7B6FE0122402163
:103A9000574803F068FFFFF7AFFE0122802154482A
:103AA00003F061FFFFF7A8FE10BD10B50022402112
:103AB0004F4803F058FFFFF79FFE002280214C483B
:103AC00003F051FFFFF798FE01224021484803F020
:103AD0004AFFFFF791FE00224021454803F043FFD3
:103AE000FFF78AFE10BD10B500224021404803F0C8
:103AF0003AFFFFF781FE012280213D4803F033FFAA
:103B0000FFF77AFE01224021394803F02CFFFFF72E
:103B100073FE00224021364803F025FFFFF76CFEBC
:103B200010BD70B50446082521E000224021304830
:103B300003F019FFFFF760FE14F0800F04D001229C
:103B400080212B4803F00FFF14F0800F04D10022D6
:103B50008021274803F007FF6006040EFFF74CFEA4
:103B600001224021224803F0FEFEFFF745FE280017
:103B7000A5F10101CDB2D8D1002240211C4803F0AB
:103B8000F2FE70BD2DE9F0410827002401228021BA
:103B9000174803F0E8FE1EE06006040E00224021F4
:103BA000134803F0E0FEFFF727FE012240211048F2
:103BB00003F0D9FE0026002507E080210C4803F021
:103BC000B4FE3044C6B2681CC5B2082DF5DB042E25
:103BD00001DB44F001043800A7F10101CFB2DBD1D1
:103BE00000224021024803F0BEFE2046BDE8F081DD
:103BF000000C0140840000208800002010B5002245
:103C00004021134803F0AFFEFFF7F6FD01228021AB
:103C10000F4803F0A8FEFFF7EFFD012240210C48FA
:103C200003F0A1FEFFF7E8FD8021094803F07DFEC7
:103C3000012806D10749086007480068401C06496A
:103C4000086000224021024803F08DFE10BD0000F4
:103C5000000C01408C0000209000002070B505464B
:103C60000C46FFF7D0FDD020FFF74CFEFFF7B7FE64
:103C70002846FFF747FEFFF7B2FE2046FFF742FE59
:103C8000FFF7ADFEFFF7DDFD70BD38B54FF4C04066
:103C9000ADF8000014208DF8030003208DF8020019
:103CA0006946FA4803F0B0FDFFF7ADFDD020FFF7FD
:103CB00029FEFFF794FE7520FFF724FEFFF78FFE25
:103CC000FFF7BFFD3220FCF792FEFFF79CFDD120ED
:103CD000FFF718FEFFF783FEFFF748FE0446FFF7E5
:103CE000F1FDFFF7AEFD2146E9A0FCF7E8FF702CDF
:103CF00003D02146EBA0FCF7E2FF80216B20FFF709
:103D0000ADFF6420FCF773FE07216820FFF7A6FFD4
:103D10006420FCF76CFE01216B20FFF79FFF002160
:103D20006C20FFF79BFF02211A20FFF797FF00216D
:103D30001920FFF793FF00211B20FFF78FFF0021C1
:103D40001D20FFF78BFF002038BD2DE9F04106460E
:103D50000F4615460020DA490860FFF754FDD020D1
:103D6000FFF7D0FDFFF73BFED548006800BBF0B27F
:103D7000FFF7C8FDFFF733FED1480068C0B9FFF771
:103D800060FDFFF740FDD120FFF7BCFDFFF727FEE8
:103D9000CB48006860B9002408E0FFF7E7FD38551C
:103DA000681EA04201DDFFF76CFD641CAC42F4DB31
:103DB000FFF788FDFFF745FDBDE8F0811FB504461C
:103DC0000E2269463B20FFF7C0FF002C6ED19DF804
:103DD00001009DF8001040EA0120BA490988401A04
:103DE00000B2B94908809DF803009DF8021040EA2E
:103DF0000120B4494988401A00B2B34948809DF86F
:103E000005009DF8041040EA012000B2AE49888008
:103E10009DF809009DF8081040EA0120AB49098887
:103E2000401A00B2AA4908809DF80B009DF80A10BC
:103E300040EA0120A5494988401A00B2A4494880B7
:103E40009DF80D009DF80C1040EA01209F498988DB
:103E5000401A00B29E4988800846B0F9000010F16F
:103E6000040F06DD0846B0F90000042801DA00203E
:103E700008809748B0F9020010F1040F07DD94485C
:103E8000B0F90200042802DA0020914948809048E5
:103E9000B0F9040010F1040F3FDD8D48B0F90400C3
:103EA00004283ADA00208A49888036E0ACB39DF8CD
:103EB00001009DF8001040EA012000B2824908800C
:103EC0009DF803009DF8021040EA012000B27E49EF
:103ED00048809DF805009DF8041040EA012000B2DA
:103EE000794988809DF809009DF8081040EA012072
:103EF00000B2774908809DF80B009DF80A1040EA4F
:103F0000012000B2724948809DF80D009DF80C1008
:103F100040EA012000B26E4988801FBD2DE9FE43B2
:103F20008146002400206B4909684883022202A9C7
:103F30004720FFF70AFF62480068012804D166A005
:103F4000FCF7BDFEBDE8FE839DF809009DF8081052
:103F500040EA01205D498988401A04B2322C07DA10
:103F600014F1320F04DD002401205A490968488306
:103F7000204606F0FFF8074600225C4B06F07AF870
:103F8000054606F053F95A4988605A488088F0B1CE
:103F90005848008C401C80B2564908848988884261
:103FA00015DB5349886806F02EF905460B469DF847
:103FB00009009DF8081040EA012000B22A46CDE928
:103FC00000404DA0FCF77BFE00204A49088400BF5A
:103FD000B8E710B500BF7E20FCF75BFE6D20FCF754
:103FE00058FE0020484908704849088027E04748A3
:103FF000008840F6B831884206DB0020434908803B
:1040000043A0FCF75CFEE6E73F480078012816D1A4
:104010003D4840682F490968C1F89C003A49B1F908
:10402000020006F099F804463C4905F03CFF294996
:104030000968C1F8A00000203449088010BDD6E707
:1040400070B504460D460026002D06DC2F4800887A
:10405000A04201DBFFF7BDFF70BD0AE02B480088DE
:10406000A04206DBFFF7B5FF701C0646A84200DB46
:10407000F2E7F3E770B5002400250120154909682F
:1040800048666420FCF7B3FC70BD0000000C0140E2
:104090006D707536353030206164643A25303258A1
:1040A0000D0A00004D5055363530305F496E697449
:1040B00020206572726F722C253032580D0A000074
:1040C0008400002094000020A00000209A0000201E
:1040D000A60000206C000020726561642067797280
:1040E0006F206572726F720D0A00000000407F3F02
:1040F00084450020D04400202A2C25662C25642CE1
:1041000025640D0A00000000B0000020240C0040CF
:104110002D6779726F2065720D0A00000000C84299
:1041200070B505460024C820FCF761FC7E20FCF732
:10413000B0FD5D20FCF7ADFD002048490968C8735B
:1041400000BF0BE00A20FCF752FC44480068C07B2B
:1041500018B143A0FCF7B3FD03E0641CB4F5487F3D
:10416000F0DB00BFFFF735FF70BDF8B50446002651
:1041700000203E49086048608860264614E002221C
:1041800069464720FFF7E1FD9DF801009DF800100A
:1041900040EA012005B235488068284433498860E8
:1041A0000120FCF724FC761E002EE8DC2F488068F6
:1041B00090FBF4F000B22E4988800846B0F9041054
:1041C0002CA0FCF77CFDF8BD10B504462B48007808
:1041D00020B101280DD002283AD122E0AA2C03D127
:1041E00001202649087003E0214625A0FCF767FD61
:1041F00032E0BB2C0BD10220204908702249087004
:1042000022480021016041608160C16008E0CC2C3F
:1042100003D1012011490968C873002017490870AB
:104220001AE0194801780078401C174A10701748A6
:10423000445410460078082809DB1548134A06CA7A
:1042400006C001201249087000200C49087003E0E4
:1042500000200A49087000BF00BF10BD6C0000209C
:104260006F6666736574206F6B0D0A0078450020D9
:104270009A0000205A3A25640D0A0000AC00002084
:104280002530325820000000AD000020904500206D
:10429000B000002000B589B04FF42070ADF80400E4
:1042A00018208DF8070003208DF8060001A9834827
:1042B00003F0AAFA0121824803F075FB4FF47A70EB
:1042C000ADF81C0040F2CF20ADF818000020ADF88A
:1042D0001E001020ADF81A0006A97A4804F004FB6D
:1042E0006020ADF808000120ADF80A004FF44870D6
:1042F000ADF80E000020ADF8100002A9714804F0DE
:1043000072FB02A96F4804F006FC08216D4804F016
:1043100080FF08216B4804F092FF0121694804F0F6
:104320003FFE09B000BD0EB50121102003F0B1F928
:104330004FF6FF70ADF80400B320ADF80000002088
:10434000ADF80600ADF802008DF8080069465E4839
:1043500004F0CAFA012211465B4804F03CFE012138
:10436000594804F01DFE0EBD0EB50121042003F0D6
:1043700090F94FF6FF70ADF8040040F26710ADF809
:1043800000000020ADF80600ADF802008DF808002E
:1043900069464D4804F0A8FA012211464B4804F042
:1043A0001AFE0121494804F0FBFD0EBD08B530207E
:1043B000ADF8000004208DF8030003208DF8020002
:1043C00069463E4803F020FAC020ADF80000694677
:1043D0003F4803F019FA0120ADF8000069463D4856
:1043E00003F012FA4FF40060ADF8000069463A4855
:1043F00003F00AFA4FF40040ADF800006946374870
:1044000003F002FA08BD2DE9F04104460027002020
:104410002080002504E00020314921F815006D1CA2
:10442000102DF8DB00251CE02C480830006800F453
:104430000040074328480830006800F40060074344
:1044400000260BE00120B040384206D1244830F865
:104450001600401C224921F81600761C102EF1DBB4
:104460006D1C642DE0DB1E48C08A32280FDB2088DB
:1044700040F40060208050201A490968C8711A4829
:1044800090F83A00032802D118A0FCF718FC144851
:10449000C08B32280FDB208840F400402080502061
:1044A000104909680872104890F83A00032802D1B0
:1044B00010A0FCF704FCBDE8F081000000100140F2
:1044C000000C1A00000400400010004000080040EA
:1044D00000080140000C0140001401400018014098
:1044E000A04500206C000020D0440020424C0D0A62
:1044F0000000000042520D0A000000002DE9F047C4
:10450000FD48FE49086000200968C1F80001FB4928
:104510000968D1F8000105F076FE074607F030F98A
:10452000054605F083FEF5490968C1F80401F34921
:104530000968D1F8080105F066FE074607F0CAF8D9
:10454000054605F073FEED490968C1F8080100242D
:1045500026E0204605F000FE8246E94905F06DFCA4
:10456000814605F050FE074607F00AF9054605F0BA
:104570005DFEE44941F82400204605F0EDFD824649
:10458000DF4905F05AFC814605F03DFE074607F07D
:10459000A1F8054605F04AFEDB4941F82400641CF9
:1045A000B4F5B47FD5DD0020D64908604FF07E50C9
:1045B000C1F868010020C1F8D002D449D148C0F840
:1045C00038140021C0F8A0154FF07E50CE49086085
:1045D0000020C1F86801CD48C1F8D0020021CA48C6
:1045E000C0F838144FF07E51C0F8A0150020C34920
:1045F00009688862C1490968C1F80001BF490968B2
:10460000C1F8E800BDE8F0872DE9F0410446944682
:10461000002C00DA002441F65837BC4200DD7C1E35
:10462000002900DA002141F65837B94200DD791E31
:1046300001EBC10707EB011704EBC7004FEAE07875
:1046400000EB58784FEAE8054FEAE07800EB58783D
:104650004FEAE808A0EBC8065A5DBCF1000F04DD84
:104660000127B7401743FAB202E00127B740BA4327
:104670005A55BDE8F08130B5232490FBF4F464343E
:104680001460232491FBF4F464341C60232490FB15
:10469000F4F504FB15040A2C02DD1468641C146094
:1046A000232491FBF4F504FB15140A2C02DD1C688D
:1046B000641C1C601468C82C01DDC82414601468D4
:1046C000002C01DA002414601C68C82C01DDC82409
:1046D0001C601C68002C01DA00241C6030BD2DE930
:1046E000F04186490968886A05F036FD0746834827
:1046F0000068D0F80811384605F09FFB05467F4951
:104700000968086805F028FD0646294605F03DFBC6
:10471000044605F040FD79490968886077490968D1
:10472000886A05F019FD074674480068D0F804113E
:10473000384605F082FB054670490968486805F06F
:104740000BFD0646294605F020FB044605F023FD37
:104750006A490968C860BDE8F0812DE9FE4F04464A
:10476000204605F0F9FC8046002564490968D1F827
:10477000000105F048FD06460F4665490968D1F875
:104780009C0005F040FD81464A460B4661A0CDE9FC
:1047900000670294FCF793FA5D490968D1F89C0020
:1047A000684905F069FD02D20CB9DFF89C816749C0
:1047B000404605F057FD12D155490968D1F89C00D3
:1047C000634905F04FFD0AD251490968D1F89C00B0
:1047D0005D4905F0DAFA4E490968C1F89C004C4978
:1047E0000968D1F89C00414605F03CFD06D203253E
:1047F0005849404605F01BFB804605E00425554915
:10480000404605F0C2FA8046404605F0FCFC0646EC
:1048100032460B4650A0FCF752FAE8B200231A4683
:104820004FF41671FCF772FC37E04E480088B0F583
:10483000FA6F32DBFFF7CDFBB4F5877F12D1344935
:104840000968D1F89C00424905F00CFD0AD23049B4
:104850000968D1F89C003C4905F097FA2C49096891
:10486000C1F89C002A490968D1F89C00414605F02E
:1048700003FD01D8032D09D025490968D1F89C0012
:10488000414605F0EFFC08D8042D06D100231A4656
:1048900019461846FCF73AFC00E0C6E700BF96212F
:1048A0004FF4FA60FFF7CCFB204605F055FC1349A6
:1048B0000968C1F8000111490968D1F8000105F043
:1048C0006AFC104951F820000C490968C1F804013C
:1048D0000A490968D1F8000105F05DFC0A4951F860
:1048E000200006490968C1F8080104490968D1F89F
:1048F000000105F088FC37E0C0450020C40000201E
:1049000039FA8E3CE06D002084730020000080BFE7
:104910006C0000202020202020205B7475726E5FC8
:10492000746F5F6465675D616E676C653D25352EEC
:1049300033662825352E3366292C746F3D2564286F
:1049400000000000000034430000B443000087432F
:104950000000B4420000604025352E3366292E2E1B
:104960002E000000240C004081468A46FB4909685D
:10497000D1F89C0005F047FC064632460B46F8A0ED
:10498000CDE9009AFCF79BF9BDE8FE8FF0B5034630
:104990000C4604EBC40000EB041003EBC0014FEA2B
:1049A000E17C01EB5C7C4FEAEC064FEAE17C01EB39
:1049B0005C7C4FEAEC0CA1EBCC07955D45FA07F067
:1049C00000F001052846F0BD2DE9F04381460C4674
:1049D0001546AC4202DD2F46A04601E02746A84618
:1049E0003E4617E0E448026802F5887231464846C0
:1049F000FFF7CCFF012809D0DF48006841F2984159
:104A0000421831464846FFF7C1FF10B90120BDE802
:104A1000F083761C4645E5DD0020F8E72DE9FC5FD4
:104A200005460E469846DDE90DABDDF830902C4684
:104A3000D24903C9CDE90001002740E02C463BE004
:104A4000872C04D1722E02D10120401C00BFCA481D
:104A5000026802F5887231462046FFF797FF012869
:104A600009D0C548006841F29841421831462046B5
:104A7000FFF78CFF00B920E0424631462046FFF7A1
:104A8000A3FFB0B942463146601CFFF79DFF10B14D
:104A9000BBF1000F0DD0C9F80040CAF80060DAF889
:104AA0000020B7A0D9F80010FCF709F90120BDE8F3
:104AB000FC9F5DF827000444C2E700BF7F1C022F63
:104AC000BCDB0020F3E72DE9F04304468946154698
:104AD000AC4202DD2F46A04601E02746A8463E46EE
:104AE00017E0A548026802F5887249463046FFF78C
:104AF0004DFF012809D0A048006841F298414218B2
:104B000049463046FFF742FF10B90120BDE8F08367
:104B1000761C4645E5DD0020F8E72DE9F04F87B02B
:104B20008246894693469846DDE9107593490839CF
:104B300003C9CDE904019048006842465946D0F8BF
:104B4000E83096A0FCF7BBF88B490968D1F8FC0067
:104B500005F059FBCDE90201CDE900018648006866
:104B6000C26985480068816995A0FCF7A8F8C1452D
:104B700065D15A4649465046FFF7A5FF38B9C7F8F0
:104B800000B0C5F80080012007B0BDE8F08F002418
:104B90004DE004A850F8240000EB090644E05A4612
:104BA00031465046FFF78FFFA0BB3246414658467C
:104BB000FFF70AFF70BB324649465046FFF704FF35
:104BC00040BBC7F800A02E6001216B480068D0F8F8
:104BD000E82069480068D430815467480068D0F8FC
:104BE000E81065480068343040F821B06248006839
:104BF000D0F8E81060480068D0F8E800401C5E4A31
:104C00001268C2F8E8005C480068843040F821600F
:104C10000120B9E7FFE7002E01DBC82E00DD04E02C
:104C200004A850F824000644B9E700BF641C022C15
:104C3000AFDBC7F800B0C5F800800120A4E7002072
:104C400043465A464946CDE9007502905046FFF763
:104C5000E5FE48B13868504504D12868484501D17F
:104C6000C5F8008001208FE7002433E004A850F845
:104C7000240000EB09062AE03F48026802F588722A
:104C800031465046FFF782FE48B93B48006841F282
:104C90009841421831465046FFF778FE00B917E0B8
:104CA000002043465A463146CDE9007502905046F1
:104CB000FFF7B4FE20B1C7F800A02E60012063E723
:104CC000464500D104E004A850F824000644D3E788
:104CD00000BF641C022CC9DB012043465A464946EA
:104CE000CDE9007502905046FFF798FE48B138684C
:104CF000504504D12868484501D1C5F800800120FD
:104D000042E7002476E004A850F8240000EB0906EE
:104D10006DE01948026802F5887231465046FFF787
:104D200035FE48B91448006841F2984142183146AE
:104D30005046FFF72BFE00B95AE0012043465A4681
:104D40003146CDE9007502905046FFF767FE20B16D
:104D5000C7F800A02E60012016E741E06C0000209B
:104D6000204F4B2C616E676C653D256628256629B2
:104D70000D0A0D0A00000000C4000020CCB8000895
:104D800020205B7365617263685F726F7574655D27
:104D9000783D25642C793D25640D0A000D0A3E3EC0
:104DA0003E5B726F757465725D746F78793D2564D2
:104DB0002C25642C6C656E3D25643E3E3E0D0A003C
:104DC000232825642C25642C25662C33292D5B6E25
:104DD0006F7720706F696E745D230D0A000000000C
:104DE000464500D104E004A850F82400064490E7AA
:104DF00000BF641C022C86DB0020C5E62DE9FF47BE
:104E0000FD490968D1F8000105F0FDF907460B4698
:104E1000F9480068C069F849096889693A46CDE9E6
:104E20000010F6A0FBF74BFFF3480068F030F249A2
:104E30000968EC31F04FCDE900103F68D7F8E87011
:104E40007F1EDFF8B4C3DCF800C00CF1840C5CF802
:104E50002730E94F3F68D7F8E8707F1EDFF898C326
:104E6000DCF800C00CF1340C5CF82720E24F3F68FE
:104E7000F969E14F3F68B869FFF74FFE012806D195
:104E8000EAA0FBF71CFF012004B0BDE8F087DA4977
:104E90000968D1F80001002105F0E4F907D0D649EE
:104EA0000968D1F80001EA4905F0DCF973D1D2496B
:104EB0000968D1F80001002105F0D4F901D10120E1
:104EC00001E04FF0FF3005460026A7E0CA48006821
:104ED000C4694FF000099BE00EB9641C00E0641E39
:104EE000C82C01DA002C00DC96E0C3490968886907
:104EF000C1490A6802F588722146FFF747FD01287B
:104F000000D189E0BC4909688869BB49096841F258
:104F100098420A442146FFF739FD012876D1B64967
:104F2000096889694819B449096841F298420A44F4
:104F30002146FFF72BFD012868D1AF49096889692F
:104F400001EB4500AC49096841F298420A44214608
:104F5000FFF71CFD012859D10121A7480068D0F8AE
:104F6000E820A5480068D4308154A3490968D1F8E5
:104F70000001002105F076F90ED19F480068806994
:104F8000401C9D490968D1F8E8209B4909683431E3
:104F900041F822000DE07AE0974800688069801EA1
:104FA00095490968D1F8E82093490968343141F8F6
:104FB000220091480068D0F8E8108F480068D0F8C7
:104FC000E800401C8C4A1268C2F8E8008A48006871
:104FD000843040F8214088490968D1F8FC0005F088
:104FE00012F90746884684480068D0F8E800012195
:104FF000CDE90078CDE902107F480068224681693A
:1050000094A0FBF75CFE01203EE7FFE709F10109F0
:10501000B9F1320FFFF660AF00BF761C022EFFF62B
:1050200055AF75480068F03073490968EC31724F2C
:10503000CDE900103F68D7F8E8707F1EDFF8B8C1EF
:10504000DCF800C00CF1840C5CF827306A4F3F6834
:10505000D7F8E8707F1EDFF8A0C1DCF800C00CF1C3
:10506000340C5CF82720644F3F68F969624F3F6851
:10507000B869FFF752FD012804D182A0FBF71FFE9B
:10508000012001E78AA0FBF71AFE0020FCE65A493E
:105090000968D1F800018E4905F0E4F807D05649B7
:1050A0000968D1F800018B4905F0DCF87ED152493E
:1050B0000968D1F80001864905F0D4F801D1012032
:1050C00001E04FF0FF300546002623E14A48006822
:1050D00084694FF0000917E10EB9641C00E0641EFA
:1050E000C82C01DA002C00DA12E143480068C169DB
:1050F0004148026802F588722046FFF747FC012804
:1051000000D105E13C480068C06941193A4800688F
:1051100041F2984202442046FFF738FC01286AD148
:1051200035480068C06941193348006841F2984227
:1051300002442046FFF72AFC01285CD12E48006873
:10514000C06900EB45012C48006841F298420244D6
:105150002046FFF71BFC01284DD10122264800689C
:10516000D0F8E81024480068D4304254224800683F
:10517000D0F8E81020480068343040F821401E493B
:105180000968D1F80001524905F06CF818D11A48A5
:105190000068C069801C18490968D1F8E8201649E0
:1051A0000968D1F8E810491C134B00E0EDE01B68DA
:1051B000C3F8E81010490968843141F8220015E06D
:1051C0000D480068C069801E0B490968D1F8E820C5
:1051D00009490968D1F8E810491C074B1B68C3F856
:1051E000E81005490968843141F82200024909683C
:1051F000D1F8FC0070E085E0C400002020202020D1
:105200005B7365617263685F62756D5F726F757401
:10521000655D61676C653D25352E312C6E6F773D80
:105220002825642C256429660D0A000020202020F2
:105230005B7365617263685F62756D5F726F7574D1
:10524000655D63616E20726F7574652E00000000ED
:1052500000003443232825642C25642C25662C3338
:10526000292D5B6E65772061206E617669676174B8
:1052700020706F696E7420746F6C656E3D25645D7F
:10528000230D0A00202020205B7365617263685F34
:1052900062756D5F726F7574655D6572726F2062A5
:1052A00075742063616E20726F7574652E00000046
:1052B000202020205B7365617263685F62756D5F9B
:1052C000726F7574655D45524F524F0D0A000000B4
:1052D0000000B4420000874304F095FF074688466B
:1052E000FE480068D0F8E8000121CDE90078CDE95A
:1052F0000210FA4800682146C269F9A0FBF7DFFCFA
:105300000120C1E509F10109B9F1320FFFF6E4AE60
:1053100000BF761C022EFFF6D9AEF0480068F030D0
:10532000EE490968EC31ED4FCDE900103F68D7F840
:10533000E8707F1EDFF8A4C3DCF800C00CF1840C19
:105340005CF82730E54F3F68D7F8E8707F1EDFF83C
:105350008CC3DCF800C00CF1340C5CF82720DF4F64
:105360003F68F969DD4F3F68B869FFF7D6FB012850
:1053700005D1AFF2F000FBF7A2FC012084E5AFF20B
:10538000D000FBF79CFC00207EE500207CE5024677
:105390008A4201DD501A7047881AFCE710B50446AE
:1053A000FFF79DF9CD4A1268D168CC4A126890681F
:1053B000CA4A13681C3312681832FFF75CF97CB1D3
:1053C000C64800688068C54909680860C348006825
:1053D000C068C249096848600020C04909688862FD
:1053E00010BD2DE9F04F87B0824689469346BAF149
:1053F000000F02D00020FFF7D1FFB84A1268D16930
:10540000B64A12689069B54A126841F2984313444B
:105410004A46FFF7F9F8B14800688069002811DDB5
:10542000B9F1000F0ED0AD4A1268D169AB4A1268CB
:105430009269501EA94A126841F2984313444A46A1
:10544000FFF7E2F8A54800688069C72811DAB9F1CA
:10545000000F0ED0A14A1268D169A04A1268926961
:10546000501C9E4A126841F2984313444A46FFF783
:10547000CBF89A490968D1F8000104F0C4FE05464A
:105480000E4696490968D1F8000104F0BCFE0746B3
:1054900088469248CDE904560068C0688F4909687B
:1054A0008968CDE90078CDE902108C480068C269AE
:1054B0008A480068816997A0FBF701FCBBF1000FE7
:1054C00055D086490968D1F80001002104F0CAFED0
:1054D00007D082490968D1F80001964904F0C2FE5C
:1054E00046D17E490968D1F80001002104F0BAFED6
:1054F00001D1012001E04FF0FF300446774A1268E5
:10550000D169764A126892691019744A136803F5D2
:1055100088730122FFF778F870490968D1F8000113
:1055200004F071FE05460E4683490968D1F89C00D7
:1055300004F069FE074688466848CDE904560068CD
:10554000C068664909688968C4EBC40202EB82023C
:105550001144CDE90078CDE9021060480068C269C5
:105560005E4800688069011974A0FBF7A8FBA9E0F8
:105570005A490968D1F80001784904F073FE07D050
:1055800056490968D1F80001754904F06BFEEED167
:1055900052490968D1F80001704904F063FE01D155
:1055A000012001E04FF0FF3004464C4A1268D269F6
:1055B00011194A4A12689069484A136803F58873BA
:1055C0000122FFF721F845490968D1F80C01594932
:1055D00004F048FE3BD1414A1268D26911193F4A92
:1055E00012689269501E3D4A136803F588730122C0
:1055F000FFF70AF839490968D1F8000104F003FE01
:1056000005460E464C490968D1F89C0004F0FBFDA4
:10561000074688463148CDE904560068C068C4EBA7
:10562000C40101EB810108442C4909688968CDE96E
:105630000078CDE9021029480068C069021927489E
:1056400000688069411E3DA0FBF739FB3AE0234A20
:105650001268D2691119214A12689269501C1F4AB6
:10566000136803F588730122FEF7CEFF1B49096812
:10567000D1F8000104F0C7FD05460E462E49096821
:10568000D1F89C0004F0BFFD074688461348CDE9D9
:1056900004560068C068C4EBC40101EB81010844F2
:1056A0000E4909688968CDE90078CDE902100B48F8
:1056B0000068C0690219094800688069411C1FA080
:1056C000FBF7FDFA05480068D0F8F40003490968C3
:1056D000C96988424BDA0148006843E0C4000020F1
:1056E000232825642C25642C25662C33292D5B6EFC
:1056F00065772061206E61766967617420706F69DB
:105700006E743220746F6C656E3D25645D230D0AE6
:10571000000000002A2825642C25642C25662C30E6
:10572000292D5B25642C25642C25352E31665D0DD5
:105730000A000000000034436C0000202328256488
:105740002C25642C25662C31292D5B25642C2564A1
:105750002C25352E31665D230D0A00000000B44271
:1057600000008743C069FE490968C1F8F40007B02A
:10577000BDE8F08F2DE9F04387B00446F848006893
:10578000D0F828900020F749088000231A464FF4EB
:1057900016710220FBF7BAFC0020F1490968886203
:1057A00012E0F0480088B0F5FA6F0DDBFEF711FC4F
:1057B000EB480068806AA04206DD00231A461946BD
:1057C0001846FBF7A3FC00E0EBE700BFFEF752FC36
:1057D000E3480068806AA9EB0000E1490968886233
:1057E0000120FFF7DBFDE0490968D1F89C0004F0D7
:1057F0000AFD05460E46DA490968D1F8000104F0B1
:1058000002FD07468846D648CDE904560068C068C0
:10581000D34909688968CDE90078CDE90210D048FC
:105820000068C269CE4800688169D0A0FBF747FADA
:1058300007B0BDE8F083F8B504462146D3A0FBF7D6
:105840003EFA0020C6490968886200231A464FF4D0
:1058500016710120FBF75AFC3CE06846FEF7D3FDC9
:10586000C0480088B0F5FA6F0EDBFEF7B2FBBC480B
:105870000068816AE01E814206DD00231A4619464F
:105880001846FBF743FC26E0BDF8000010F4084F73
:1058900020D000231A4619461846FBF737FCB249B8
:1058A0000968D1F89C0004F0AEFC05462A460B4678
:1058B000BDA0FBF704FA96214FF4FA60FEF7C0FB97
:1058C000012211461046FFF78CFDBAA0FBF7F7F94D
:1058D0000020F8BDC1E700BF96214FF4FA60FEF743
:1058E000AFFB9F480068816AB3A0FBF7E8F900228C
:1058F00001210846FFF775FDAEA0FBF7E0F9012096
:10590000E7E710B5A0F16404C4EBC40404EB84041D
:105910001460A1F16404C4EBC40404EB84041C60AF
:1059200010BD2DE9F0478CB00646894692461D46CB
:105930000AAB0BAA49463046FFF7E3FF504604F096
:1059400062FC0746884686490968D1F8000104F0E0
:105950005AFCCDE908018DE84302CDE904780695AB
:105960007F480068C2697E480068816996A0FBF79D
:10597000A6F97B4800688069B04218D17848006871
:10598000C0680A99884208DA75480068C0680A99B0
:105990000C1A5A20FEF7E1FE2BE071480068C0683F
:1059A0000A99441A4FF48770FEF7D7FE21E06C483D
:1059B0000068C069484517D16948006880680B993C
:1059C000884208DA6648006880680B990C1A002043
:1059D000FEF7C3FE0DE06248006880680B99441A28
:1059E000B420FEF7BAFE04E084A0FBF768F900BF1C
:1059F000FEE7641D214671A0FBF761F900205849BC
:105A0000096888622046FFF716FF68B91DB128466D
:105A1000FFF7B0FE04E052490968886AFFF7AAFE62
:105A200000200CB0BDE8F0870120FFF7B7FC002292
:105A300001211046FFF7D5FC00204949096888621A
:105A40007449504604F00EFC05D2504604F0A3FB06
:105A50000746FEF782FE70A0FBF731F90120E0E770
:105A6000F0B502460B4603EBC30000EB031002EB5C
:105A7000C0014FEAE17C01EB5C7C4FEAEC044FEAA9
:105A8000E17C01EB5C7C4FEAEC0CA1EBCC053448EB
:105A9000006841F2984C6044065D46FA05F000F05B
:105AA00001062F48006800F58870075D47FA05F089
:105AB00000F0010746EA0700F0BD2DE9FE4F06465B
:105AC000894692464FF0FF30029083462448006892
:105AD00090F8F800002841D1C82417E1012511E110
