:020000040800F2
:10000000A00A0020450100083D0200083F02000848
:1000100043020008470200084B02000800000000ED
:100020000000000000000000000000004F02000877
:1000300051020008000000005B010008A50600084E
:100040005F0100085F0100085F0100085F01000810
:100050005F0100085F0100086B0200087D020008D4
:10006000A7020008B90200085F0100085902000851
:100070005F0100085F0100085F0100085F010008E0
:100080005F0100085F010008A50500085F01000886
:1000900053020008550200085F0100085F010008D4
:1000A000D90200085F010008CB020008A305000880
:1000B000E9020008E70200085F0100085F0100088C
:1000C0005F0100085F0100085F0100085F01000890
:1000D0005F0100086D070008570200085F01000873
:1000E0005F0100085F0100085F0100085F01000870
:1000F0005F0100085F0100085F0100085F01000860
:100100005F0100085F0100085F0100085F0100084F
:100110005F0100085F0100085F0100085F0100083F
:100120005F0100085F0100085F0100085F0100082F
:10013000DFF80CD003F0C2FE004800476901000858
:10014000A00A00200648804706480047FEE7FEE771
:10015000FEE7FEE7FEE7FEE7FEE7FEE7FEE7FEE777
:10016000BD3900083101000808B501F0ADF800F014
:1001700021FC00F03DFB00F0A9FC00F026FD21A0D1
:1001800000F0A5FB00F054FA0123022249F6404199
:10019000B32000F0B7FD012300225A21184600F0D9
:1001A000E9FE0021684600F0B8FA2AE01948046820
:1001B00014F0010F1ED118480068C078D0B9012092
:1001C00001F09BF8B0B11348016814A000F07FFB68
:1001D00000F0CFFE104800684078012805D10423C4
:1001E00064225A21022000F0C5FE4FF00A000A499D
:1001F0000968C8706421684600F08FFA08B100F001
:10020000B8FED3E773797320696E6974206F6B0D44
:100210000A000000080C0140B00000203D3D3D3DBB
:100220003D3D3D666F756E64205353204952512801
:100230002558293D3D3D3D0D0A000000704700BF97
:10024000FEE700BFFEE700BFFEE700BFFEE7704726
:10025000704770477047704710B5022002F093FA5C
:1002600010B1022002F0A3FA10BD10B5012002F077
:1002700033FB10B1012002F02CFB10BD10B50220A1
:1002800002F02AFB70B10221CD4801F061FB18B1E8
:10029000CCA000F01CFB02E0CCA000F018FB022078
:1002A00002F017FB10BD10B5042002F015FB10B1D1
:1002B000042002F00EFB10BD10B5082002F00CFB6C
:1002C00010B1082002F005FB10BDC24800884FF0B5
:1002D0000000C0490880704710B58021BD48103823
:1002E00003F000FB10BD704710B54FF000004FF059
:1002F000804188844FF002014FF0804003F0DEFA25
:1003000000287DD00221480703F0ECFA4FF00000EE
:10031000B14909688860B0480068006A00F10100CE
:10032000AD4909680862AC4800684078042809D0E3
:10033000A94800684078022804D0A748006840789F
:1003400001283FD1A4480068C06800283AD0A248DC
:100350000068006AA0490968C968884232D39FA032
:1003600000F0B5FA4FF000009B490968C8609A4850
:1003700000688078B8B1012804D003280AD0042886
:1003800018D106E0012300225A21184600F0F2FDA0
:1003900017E000BF9049096888780123CC225A21D0
:1003A00000F0E8FD0DE000231A461946184600F05B
:1003B000E1FD06E0012300225A21184600F0DAFD93
:1003C00000BF00BF84480068006A282842D94FF067
:1003D0008040808E854909680844844908608448C3
:1003E000006800F10100824908600846006828287A
:1003F00036DB7E480068096890FBF1F0764900E042
:100400002EE00968886274480068816A79A000F06B
:100410005EFA714800684078012814D16E4A12686B
:10042000516A6D4A1268106A6B4A12681C3200F0F9
:10043000D9FE69480068C069704908807048C16881
:1004400070A000F044FA4FF0000068490860684965
:10045000086005E04FF000006449086064490860E6
:100460000421080703F02AFA002855D004210807C0
:1004700003F038FA4FF00000574909688860564881
:100480000068406A00F10100534909684862524817
:100490000068407803283FD14F480068C06890B397
:1004A0004D480068406A4C490968C968884233D39E
:1004B00056A000F00CFA4FF0000047490968C860E8
:1004C000454800688078B8B1012804D003280AD0D4
:1004D000042819D106E0012300225A21184600F011
:1004E00049FD18E000BF3C4909688878012364226F
:1004F0005A2100F03FFD0EE000231A461946184627
:1005000000F038FD07E007E0012300225A211846D9
:1005100000F030FD00BF00BF0121880703F0CEF9D5
:1005200098B30121880703F0DDF92B480068407873
:1005300058B33BA000F0CBF927480068806800F171
:1005400001002549096888602348006880680328FD
:1005500026DB214800684078012806D002280CD00C
:10056000032814D004281AD110E004234FF4967203
:100570005A21022000F0FEFC11E001234FF4967294
:100580005A21042000F0F6FC09E009E000BF042332
:100590004FF496725A21022000F0ECFC00BF00BF1D
:1005A00010BD704710B54FF49061204801F0C8FFAE
:1005B000012804D14FF490611C4801F0D7FF10BD11
:1005C0000008014068690D0A000000006C6F0D0A08
:1005D00000000000102C0140B00000202D2D6363AE
:1005E00031206F766572202D2D0D0A000C00002041
:1005F0000800002053313A25640D0A00382C0140D0
:100600002806002063323D25640D0A006363322012
:100610006F766572202C6E6F7720676F210D0A0050
:1006200074696D7232206F75740D0A0000240140E8
:1006300030B500BF484800684FF06402B0FBF2F1EB
:10064000B1F1807F02D34FF0010028E021F07F401C
:10065000A0F101004FF0E02250614FF0FF304FF069
:100660000F0200280ADA4FEA02734FEA13653B4B88
:1006700000F00F04A4F104041D5505E04FEA0273D5
:100680004FEA1364364B1C5400BF4FF000004FF08C
:10069000E02290614FF0070010614FF00000002849
:1006A000C8D130BD2F48006800F101002D49086015
:1006B0002D480068C078002807DD2B480068C07806
:1006C000A0F1010028490968C8702748006800792E
:1006D000002807DD244800680079A0F101002249C4
:1006E00009680871204800684079002807DD1E4825
:1006F00000684079A0F101001B49096848711A4857
:1007000000688079002807DD174800688079A0F12B
:100710000100154909688871704730B502464FF0ED
:100720000000104D2B681568A3EB050409B18C423D
:1007300002D313604FF0010030BD18B504464FF0EE
:1007400000016846FFF7E9FF00BF21466846FFF752
:10075000E4FF0028F9D018BDC800002018ED00E023
:1007600000E400E014000020B000002010B540F2CA
:100770002551664801F0D1FBD0B165480068B0F55D
:10078000806F03DB4FF00000614908605F4801F0B3
:100790002DFBC1B25E480268006800F101005C4BAD
:1007A00018605C48815440F22551584801F0E9FB3B
:1007B00010BD014658480068554A1268904215D04D
:1007C00055480068B0F5806F03DB4FF00000524AD7
:1007D000106051480268006800F101004E4B18603B
:1007E0004C48805C08704FF0010070470020FCE727
:1007F00000B585B00121092000F038FF0121042057
:1008000001F0EEF84FF04000ADF810004FF0180086
:100810008DF813004FF003008DF8120004A93F4833
:1008200000F0FAFF4FF08000ADF810004FF0040028
:100830008DF8130004A9394800F0EEFF0121880368
:1008400000F014FF4FF4E13000904FF00000ADF8DD
:100850000400ADF80600ADF80800ADF80C004FF04C
:100860000C00ADF80A006946284801F08EF9012213
:1008700040F22551254801F03FFA0121234801F0BB
:100880002EFA05B000BD70B505460E464FF00004C7
:100890000CE0295D1D4801F0A5FA00BF40211B486E
:1008A00001F016FB0028F9D004F10104B442F0DB9A
:1008B00070BD10B504462146144801F093FA00BFFC
:1008C0004021124801F004FB0028F9D010BD0FB4FC
:1008D00038B505A800901248009A049903F090FBDF
:1008E0000F4C0CE02178094801F07CFA00BF402150
:1008F000064801F0EDFA0028F9D004F1010420784F
:100900000028EFD1009038BC5DF814FB003801409E
:1009100020000020DC0000201C000020000C014012
:10092000DC04002008B54FF01F00ADF800004FF0C8
:1009300004008DF803004FF003008DF802006946B3
:10094000464800F069FF08BD08B54FF4E06001F0CB
:100950002DFB4FF01C008DF800004FF000008DF8CB
:1009600001004FF002008DF802004FF001008DF8F9
:100970000300684601F020FB4FF025008DF80000D1
:100980004FF004008DF802004FF001008DF80300D5
:10099000684601F011FB08BD10B503F00FF8012106
:1009A00040F61D2000F062FE01214FF0021000F021
:1009B0006CFE10BD10B5FFF7EFFFFFF7C5FFFFF7A7
:1009C000B1FF00F04CF910BD08B54FF46060ADF810
:1009D00000004FF010008DF803004FF003008DF879
:1009E000020069461E4800F017FF08BD1CB5022032
:1009F00001F085FF042001F082FF082001F07FFF55
:100A0000102001F07CFF0121002001F037F80221C5
:100A1000002001F033F80321002001F02FF8042119
:100A2000002001F02BF84FF01E0000904FF0000066
:100A30008DF804004FF010008DF805004FF0010014
:100A40008DF80600684601F0D6FE1CBD704700BF59
:100A50000100A0F10100FBD170470000000C014033
:100A60000010014010B5FBA0FFF731FFFD480088E2
:100A70004FF6CF7100EA0100FA4908804FF4007187
:100A8000F94800F087FF0421F74800F083FF0821B0
:100A9000F54800F07FFF10BD10B5F4A0FFF717FF79
:100AA000F04800884FF6FC7100EA0100ED4908802B
:100AB0004FF48071EC4800F06DFF2021EA4800F00F
:100AC00069FF1021E84800F065FF10BD10B5EB4844
:100AD000806940F40060E9498861E94800686FF383
:100AE0000F00E7490860084600684BF6BB3140EA52
:100AF0000100E3490860E348006840F48070E14980
:100B000008604FF0C800E04908804FF0B300A1F141
:100B100004010880DD48008840F06000DB4908805F
:100B20000846008840F0080008800846008840F425
:100B3000C04008800846008840F40060088001F149
:100B40000400008840F0600001F1040108800846BC
:100B5000008840F0080008800846008840F4C04043
:100B600008800846008840F400600880C848008873
:100B700040F08000C64908800846008840F0100018
:100B80000880C448008840F40040C24908804FF4FF
:100B90009670C149088001F10401088001F1040147
:100BA000088001F104010880BC48008840F0010081
:100BB000BA490880B648008840F00100B44908806E
:100BC000FFF76AFFFFF74EFF10BD00B589B04FF089
:100BD0004000ADF820004FF018008DF823004FF0D2
:100BE00003008DF8220008A99F4800F015FE4FF081
:100BF0006400ADF8180040F26710ADF814004FF033
:100C00000000ADF81A00ADF8160005A9A44801F0DF
:100C100059FF4FF06000ADF804004FF00100ADF84F
:100C200006004FF03200ADF80A004FF00000ADF8BA
:100C30000C0001A99A4801F088FF0821984802F0A9
:100C400059FC0821964802F061FC0121944802F009
:100C50001DFC0121924802F0F2FA09B000BD08B56E
:100C60004FF40F70ADF800004FF010008DF8030046
:100C70004FF003008DF8020069467B4800F0CCFD80
:100C800008BD70B505460C46012D08D110217648E7
:100C900000F07EFE2021744800F07CFE07E0102169
:100CA000714800F077FE20216F4800F071FE6D481A
:100CB000008840F003006B49088077490C8070BDC4
:100CC00070B505460C46012D08D10421664800F098
:100CD0005FFE0821644800F05DFE07E004216248E1
:100CE00000F058FE0821604800F052FE5D48008880
:100CF00040F030005B4908806A490C806A4800680F
:100D0000C46170BD30B55D4CE46944F001045B4DD5
:100D1000EC612C46A46944F00404AC61012A06D0BD
:100D2000022A10D0032A1AD0042A36D126E04E4CCB
:100D3000246824F00F044C4D2C602C46246844F0A9
:100D400008042C6029E0484C246824F0FF04464D38
:100D50002C602C46246844F088042C601DE0424C32
:100D600024686FF30B04404D2C602C46246840F639
:100D7000880544EA05043C4D2C600EE03A4C24689A
:100D80006FF30F04384D2C602C46246848F6880514
:100D900044EA0504344D2C6000BF00BF4FF080448E
:100DA0002085A185012A54D0022A4CD0032A25D0BF
:100DB000042A7BD1A48B44F480744FF08045AC832B
:100DC00033B94FF08044248C44F400542C8407E061
:100DD0004FF08044248C24F400544FF080452C8440
:100DE0004FF08044248C44F480544FF080452C8490
:100DF0002C46A48944F01004AC8100BF4FF080441D
:100E0000A48B44F001044FF08045AC832BB92C46F1
:100E1000248C44F400742C8407E04FF08044248C2C
:100E200024F400744FF080452C844FF08044248CCF
:100E300044F480744FF080452C842C46A48944F0FF
:100E40000804AC8100BF4FF08044248B44F48074CC
:100E50002DE051E06D6F746F322073746F700D0A66
:100E600000000000202C0140000801406D6F746FED
:100E7000312073746F700D0A0000000000100240F2
:100E8000040801400C0801402C2C0140182C0140A2
:100E9000002C0140442C0140342C0140142C014012
:100EA00000040040382C0140B00000204EE04FF01C
:100EB00080452C832C46248B44F4A0442C832BB9EE
:100EC0002C46248C44F020042C8407E04FF080440E
:100ED000248C24F020044FF080452C844FF0804473
:100EE000248C44F010044FF080452C842C46A489B7
:100EF00044F00404AC8100BF4FF08044248B44F0E4
:100F000001044FF080452C832C46248B44F0500480
:100F10002C832BB92C46248C44F002042C8407E04B
:100F20004FF08044248C24F002044FF080452C8440
:100F30004FF08044248C44F001044FF080452C8411
:100F40002C46A48944F00204AC8100BF00BF4FF0DE
:100F50008044A48944F001044FF08045AC814FF0F7
:100F600001042C804FF08044248A24F001042C8258
:100F700030BD7047F8B504460F4615461E4606EBD1
:100F80008600364901EB8000009004EB84000A469D
:100F900002EB80012B463A4631A0FFF798FC072C64
:100FA00034D2DFE804F004090A131A212A00FFF7FB
:100FB00059FDFFF771FD32E000BF39462046FFF7CB
:100FC0007FFE39462046FFF75CFE28E0FFF764FD10
:100FD00039460120FFF774FE21E0FFF743FD394653
:100FE0000120FFF74EFE1AE05A210120FFF768FEAC
:100FF00078210120FFF745FE11E039462046FFF732
:101000005FFE39462046FFF73CFE08E05A210120EA
:10101000FFF756FE5A210120FFF733FE00BF00BF45
:1010200019480068C5601848006844701648006890
:1010300086704FF0000014490968886012490968F9
:101040004862114909680862FFF793FFF8BD01463D
:1010500001EB8100014A02EB800070472400002070
:101060005B6D6F746F722072756E5D25732C707777
:101070006D3D25642C635F68773D25642C6E657437
:10108000783D25730D0A0000B00000204FF00000ED
:101090006D4908606D4908606B49C8606B49C8605C
:1010A00069498860694988604FF05A00664908615B
:1010B000664908614FF000006349C8626349C8622D
:1010C00061490863614908635F4948635F49486350
:1010D0005F4960485C4AC2E906105C4AC2E90610F2
:1010E0005D495E48584AC2E90810584AC2E90810EA
:1010F0004FF00000544988621146886240F6B830CB
:101100005149C8631146C8634FF496704E498863CD
:10111000114688634FF005004B4908641146086486
:101120004FF0C8004849486411464864704703605E
:101130000161C16070477CB504466568A06BA84238
:1011400001DDA56B03E0E06BA84200DAE56B2068E7
:10115000A0EB0500E062E06A002812DBE06A50289C
:1011600004DD206900F10200E0601EE0E06A14285E
:1011700004DD206900F10100E06016E02069E06014
:1011800013E0E06A10F1500F04DA2069A0F10200C8
:10119000E0600AE0E06A10F1140F04DA2069A0F1BF
:1011A0000100E06001E02069E060D4E90310CDE9CE
:1011B00000012A462AA0E36A2168FFF788FBE0685D
:1011C0002061616CE068884202DB606CE06005E0F1
:1011D000216CE068884201DC206CE060E0682061FE
:1011E000E0687CBDF8B505460F461446BD4215DBE8
:1011F000A5EB0706642E04DD2068A0F10200206044
:1012000003E0322E01DDA4F1040420682B463A46A7
:10121000294600901AA0FFF75AFB14E0A7EB050639
:10122000642E04DD206800F10200206003E0322E0D
:1012300001DD04F1040420682B463A46294600905B
:1012400018A0FFF744FBF8BDE005002028060020A9
:10125000B81E85EB51B89E3F9A9999999999A93FE3
:10126000743D25642C496E3D25642C656B3D2564D9
:101270002C6F313D25642C6F3D25640D0A00000064
:101280005A2064697374313D25642C646973743227
:101290003D2564282564292C70776D3D25640D0A51
:1012A00000000000462064697374313D25642C649D
:1012B000697374323D2564282564292C70776D3D4F
:1012C00025640D0A000000001B481C4908604FF00F
:1012D0000100096848701949096888704FF00000DA
:1012E00016490968C87015490968486213490968B0
:1012F000086212490968C860704701464FF0000251
:101300000EE00F480068084201D0002070474FF0FF
:10131000000301E003F101030A2BFBDB02F10102F0
:10132000052AEEDB0120F1E702468A4201DD501A70
:101330007047881AFCE7000070060020B00000200B
:10134000080C0140F748006840F00100F5490860CA
:1013500008464068F44900EA0100F249486008463E
:101360000068F24900EA0100EE490860084600689A
:1013700020F4802008600846406820F4FE004860A1
:101380004FF41F0088607047E649096821F48031F6
:10139000E44A11601146096821F480211160B0F51A
:1013A000803F03D0B0F5802F0ED106E0DD490968FB
:1013B00041F48031DB4A116007E0DA49096841F401
:1013C000A021D84A116000E000BF00BF704710B5EF
:1013D00001464FF00002134610464FEA6112012AFF
:1013E00002D1D04C236806E0022A02D1CD4C236AF8
:1013F00001E0CC4C636A01F01F024FF0010404FAD3
:1014000002F41C4202D04FF0010001E04FF0000056
:1014100010BD70B54FF000042546264600BF3120B0
:10142000FFF7D5FF064604F10104B4F5A06F01D023
:10143000002EF4D03120FFF7CAFF10B14FF00105A4
:1014400001E04FF00005284670BD01464FF0000056
:10145000B44A106820F0F80040EAC10010607047FC
:10146000B3490860704702464FF00000AD4B586822
:1014700020F47C1042EA010343EA0000A94B5860C3
:101480007047AB490866704701464FF00000A54A17
:10149000506820F0030040EA010050607047A14806
:1014A000406800F00C00704701464FF000009D4A74
:1014B000506820F0F00040EA01005060704701469B
:1014C0004FF00000974A506820F4E06040EA0100C5
:1014D0005060704701464FF00000924A506820F477
:1014E000605040EAC1005060704731B18D4A527A75
:1014F00042EA00028B4B5A7208E08A4A527A6FEA3B
:101500000003DBB202EA0302864B5A727047894934
:101510000860704701464FF00000824A506820F48E
:10152000404040EA0100506070474FF00001824A9D
:1015300011707C4A82F82010012802D004280AD1B8
:1015400004E04FF001017C4A117005E04FF0050105
:10155000794A117000E000BF00BF7047774908600A
:1015600070477049096A41EA00016E4A116270478A
:1015700073490860704730B54FF000010A460C46C9
:101580000B46684D6D6805F00C0121B1042905D0AA
:10159000082927D105E06B4D056026E0694D0560FF
:1015A00023E0604D6D6805F470125E4D6D6805F4C2
:1015B00080344FF0020505EB924224B9624D02FBE4
:1015C00005F505600DE0574D6D6815F4003F04D03A
:1015D0005D4D02FB05F5056003E05A4D02FB05F584
:1015E000056002E0574D056000BF00BF4D4D6D68BE
:1015F00005F0F0014FEA1111544D6B5C056825FAB6
:1016000003F54560474D6D6805F4E0614FEA11212F
:101610004E4D6B5C456825FA03F58560414D6D685C
:1016200005F460514FEAD121484D6B5C456825FABD
:1016300003F5C5603B4D6D6805F440414FEA9131BB
:10164000434D6B5CC568B5FBF3F5056130BD31B149
:10165000344A526942EA0002324B5A6105E0314A8B
:10166000526922EA00022F4B5A61704731B12D4A6C
:10167000926942EA00022B4B9A6105E0294A92697D
:1016800022EA0002274B9A61704731B1254AD2699C
:1016900042EA0002234BDA6105E0224AD26922EADB
:1016A0000002204BDA61704731B11E4AD26842EA2B
:1016B00000021C4BDA6005E01A4AD26822EA0002F6
:1016C000184BDA60704731B1164A126942EA0002DB
:1016D000144B1A6105E0134A126922EA0002114B09
:1016E0001A6170471B49086070471149C864704708
:1016F0000C49C87170470B48406A40F08070094936
:101700004862704701464FF00000064A92680A425C
:1017100002D04FF0010001E04FF000007047014996
:1017200088727047001002400000FFF8FFFFF6FECD
:1017300000004242D800424220100240800442424F
:101740003C04424200127A0000093D00B40000202F
:10175000C40000204004424210B50446DE488442E2
:1017600008D101210420FFF79FFF00210420FFF78B
:101770009BFF46E0D948844208D101210820FFF7A9
:1017800093FF00210820FFF78FFF3AE0D4488442FE
:1017900008D101211020FFF787FF00211020FFF75B
:1017A00083FF2EE0CF48844208D101212020FFF79B
:1017B0007BFF00212020FFF777FF22E0CA48844208
:1017C00008D101214020FFF76FFF00214020FFF7E3
:1017D0006BFF16E0C548844208D101218020FFF745
:1017E00063FF00218020FFF75FFF0AE0C0488442CA
:1017F00007D101218015FFF757FF0021A015FFF742
:1018000053FF10BD10B501210846FFF74DFF002121
:101810000120FFF749FF10BD2DE9F04102464FF0CE
:1018200000052E46284603460446074691F803C0A5
:101830000CF00F0591F803C01CF0100F03D091F8C5
:1018400002C04CEA0505B1F800C01CF0FF0F35D00E
:1018500014684FF000002EE04FF0010C0CFA00F37A
:10186000B1F800C00CEA03069E4222D14FEA800381
:101870004FF00F0C0CFA03F724EA070405FA03FCF7
:101880004CEA040491F803C0BCF1280F06D14FF0D4
:10189000010C0CFA00FCC2F814C00AE091F803C075
:1018A000BCF1480F05D14FF0010C0CFA00FCC2F856
:1018B00010C000F101000828CED31460B1F800C0B8
:1018C000BCF1FF0F38DD54684FF0000031E000F14B
:1018D000080C4FF0010808FA0CF3B1F800C00CEA4C
:1018E00003069E4223D14FEA80034FF00F0C0CFAFF
:1018F00003F724EA070405FA03FC4CEA040491F810
:1019000003C0BCF1280F05D100F1080C08FA0CF84F
:10191000C2F8148091F803C0BCF1480F07D100F160
:10192000080C4FF0010808FA0CF8C2F8108000F11A
:1019300001000828CBD35460BDE8F0814FF6FF7159
:1019400001804FF0020181704FF00401C1707047B7
:1019500002464FF0000093680B4202D04FF00100A6
:1019600001E04FF0000070470146886880B2704780
:1019700002464FF00000D3680B4202D04FF0010046
:1019800001E04FF0000070470146C86880B2704720
:1019900001617047416170470AB1016100E0416136
:1019A0007047C16070474FF4803242EA01028261A1
:1019B0008161826182698269704702464FF000004E
:1019C0004C4B18684FF6807300EA030040EA02109F
:1019D00040EA0100474B186070474749C8617047AB
:1019E000F0B50A464FF000031C4619460D4600F0BC
:1019F0000046B6F1004F02D13E4EF16901E03D4E86
:101A00007168C0F3034583B200F44016B6F5401F79
:101A100008D121F07061374E766826F07066354F38
:101A20007E6017E000F48016B6F5801F08D14FF0F5
:101A3000030606FA05F421EA040141F0706109E0A9
:101A40004FEA50564FEA061603FA06F621EA060157
:101A500041F070613AB14FEA50564FEA061603FA68
:101A600006F646EA010100F00046B6F1004F02D149
:101A7000204EF16101E01F4E7160F0BD30B54FF0B6
:101A800000024FEA81734FEA13744FF00F0303FA19
:101A900004F21A4B4FEAA10453F8243023EA02035C
:101AA000164C4FEAA10544F8253023464FEAA1041D
:101AB00053F824304FEA81744FEA147400FA04F4A6
:101AC00043EA04030D4C4FEAA10544F8253030BD2C
:101AD0000B4908607047000000080140000C0140FD
:101AE000001001400014014000180140001C01409A
:101AF0000020014000000140000020420800014099
:101B0000DC00204210B50446F848844209D1012186
:101B10008803FFF7C9FD00214FF48040FFF7C4FDA3
:101B200032E0F348844209D101214804FFF7CBFD9C
:101B300000214FF40030FFF7C6FD25E0ED48844258
:101B400009D101218804FFF7BEFD00214FF4802058
:101B5000FFF7B9FD18E0E848844209D10121C80423
:101B6000FFF7B1FD00214FF40020FFF7ACFD0BE0C3
:101B7000E248844208D101210805FFF7A4FD0021B5
:101B80004FF48010FFF79FFD10BD2DE9F04786B0A0
:101B900005460E464FF00004A24600BFA146274668
:101BA000B08900B100BF2F462C8A4CF6FF7004EAC2
:101BB0000004F08840EA04042C82AC894EF6F3104D
:101BC00004EA0004B088318940EA0100718940EAE2
:101BD000010040EA0404AC81AC8A4FF6FF4004EAFD
:101BE0000004B08940EA0404AC8201A8FFF7C3FCFA
:101BF000BE48874202D1DDF810A001E0DDF80CA05C
:101C0000A88910F4004F09D00AEBCA0000EB0A10B3
:101C100031684FEA4101B0FBF1F808E00AEBCA0075
:101C200000EB0A1031684FEA8101B0FBF1F84FF088
:101C30006400B8FBF0F04FEA00144FEA14104FF0C4
:101C4000640101FB1089A88910F4004F0AD04FF0FD
:101C5000320000EBC900B0FBF1F000F0070040EAF1
:101C600004040BE04FF0320000EB09104FF0640168
:101C7000B0FBF1F000F00F0040EA04042C8106B044
:101C8000BDE8F0874FF4165101604FF000018180EC
:101C9000C18001814FF00C0141814FF00001818131
:101CA000704710B502464FF00000108A4FF2FF0354
:101CB00000EA03000B884C8843EA04038C8843EA5B
:101CC0000403CC8843EA040343EA0000108210BDF9
:101CD0004FF00001018041808180C180704721B1B7
:101CE000828942F40052828105E082894DF6FF73B9
:101CF00002EA030282817047F0B503464FF0000408
:101D0000264625462046A1F510676A3F00D100BF50
:101D10001846C1F3421401F01F064FF0010707FAFD
:101D200006F5012C02D100F10C0006E0022C02D1D4
:101D300000F1100001E000F1140022B1076847EA49
:101D40000507076003E0076827EA05070760F0BD9D
:101D500010B522B1838A43EA0103838206E0838AB5
:101D60006FEA0104A4B203EA0403838210BD028A6D
:101D70004FF6F07302EA03020282028A42EA01028B
:101D80000282704782894FF2FF7302EA0302828166
:101D9000828942EA01028281704721B1828942F040
:101DA0000202828105E082894FF6FD7302EA030296
:101DB00082817047028A4FF6DF7302EA03020282D1
:101DC000028A42EA01020282704721B1028A42F489
:101DD0008042028205E0028A4BF6FF7302EA0302A8
:101DE00002827047C1F308028280704701468888EA
:101DF000C0F308007047818941F00101818170477B
:101E0000028BD2B20283028B42EA01220283704724
:101E1000028B02F47F420283028B42EA01020283B8
:101E2000704721B1828A42F02002828205E0828AD4
:101E30004FF6DF7302EA03028282704721B1828A81
:101E400042F01002828205E0828A4FF6EF7302EAC6
:101E500003028282704721B1828A42F008028282A4
:101E600005E0828A4FF6F77302EA03028282704726
:101E700021B1828942F40042828103E08289C2F367
:101E80000E028281704721B1828A42F4006282820E
:101E900005E0828A4FF2FF7302EA030282827047F2
:101EA000828A4FF6FB7302EA03028282828A42EA46
:101EB00001028282704721B1828A42F0020282824C
:101EC00005E0828A4FF6FD7302EA030282827047C0
:101ED00002464FF00000B1F5007F00D100BF13882B
:101EE0000B420DD04FF001000CE000000038014023
:101EF0000044004000480040004C004000500040BA
:101F00004FF00000704701F40072B2F5007F00D17D
:101F100000BF6FEA01020280704770B502464FF0C1
:101F2000000423461D461846A1F510666A3E00D1FE
:101F300000BFC1F3421501F01F034FF0010606FA7E
:101F400003F3012D03D1968906EA030308E0022D6D
:101F500003D1168A06EA030302E0968A06EA03031F
:101F60004FEA21244FF0010606FA04F4168806EA27
:101F700004041BB114B14FF0010001E04FF0000068
:101F800070BD10B54FF000021346A1F510646A3C15
:101F900000D100BF4FEA21224FF0010404FA02F4FD
:101FA000A3B26FEA0304048010BD0000384940EA80
:101FB0000101384A1160704770B54FF000010B46BF
:101FC0004FF00F02C4784CB3324C246804F4E06440
:101FD000C4F5E0644FEA1421C1F1040322FA01F2CE
:101FE000447804FA03F1847804EA020444EA010123
:101FF0004FEA0111284C0678A155047804F01F051A
:102000004FF0010404FA05F405784FEA65154FF026
:10201000E02606EB8505C5F800410CE0047804F0E5
:102020001F054FF0010404FA05F41C4D06784FEA31
:10203000661645F8264070BD194A01EA020242EAD6
:102040000002184B1A60704731B1174A126842EA11
:102050000002154B1A6005E0134A126822EA0002DA
:10206000114B1A607047042808D14FF0E02109692C
:1020700041F004014FF0E022116107E04FF0E02150
:10208000096921F004014FF0E0221161704700005E
:102090000000FA050CED00E000E400E080E100E063
:1020A00080FFFF1F08ED00E010ED00E010B50446D2
:1020B000FA48844208D101214015FFF7F5FA0021C2
:1020C0006015FFF7F1FA17E0F548844208D10121C5
:1020D0000015FFF7E9FA00212015FFF7E5FA0BE0FC
:1020E000F048844208D10121C803FFF7DDFA00213E
:1020F0004FF40040FFF7D8FA10BD30B502464FF05C
:10210000000003465068E84C00EA04000D790C68B2
:1021100044EA052444EA000050609068E34C00EA79
:102120000400D1E9025444EA05044D7944EA450427
:1021300044EA00009060D06A20F470000C7CA4F1A6
:102140000104E4B244EA030340EA0350D06230BD24
:102150004FF000010160017141718160C1604FF079
:1021600001010174704721B1826842F0010282606E
:1021700003E0826822F001028260704721B1826828
:1021800042F48072826003E0826822F4807282608E
:10219000704710B54FF00003CBB222B1446844EA57
:1021A0000304446003E0446824EA0304446010BD6F
:1021B000816841F008018160704701464FF00000DE
:1021C0008A6812F0080F02D04FF0010001E04FF0D2
:1021D00000007047816841F004018160704701464A
:1021E0004FF000008A6812F0040F02D04FF0010097
:1021F00001E04FF00000704721B1826842F4A00274
:10220000826003E0826822F4A00282607047014687
:102210004FF000008A6812F4800F02D04FF00100E6
:1022200001E04FF00000704710B50A464FF0000182
:102230000B46416821F46041A2F1010341EA4331B8
:10224000416010BD21B1426842F40062426003E087
:10225000426822F4006242607047F0B504460D46C1
:102260004FF000000146092D14DDE068A5F10A06D3
:1022700006EB46074FF0070606FA07F120EA0100D1
:10228000A5F10A0606EB460603FA06F140EA01004C
:10229000E0600FE0206905EB45074FF0070606FAFE
:1022A00007F120EA010005EB450603FA06F140EAD2
:1022B00001002061072A14DA606BA2F1010606EB27
:1022C00086074FF01F0606FA07F120EA0100A2F187
:1022D000010606EB860605FA06F140EA0100606396
:1022E0002AE00D2A14DA206BA2F1070606EB860716
:1022F0004FF01F0606FA07F120EA0100A2F10706D7
:1023000006EB860605FA06F140EA0100206313E0B9
:10231000E06AA2F10D0606EB86074FF01F0606FAEB
:1023200007F120EA0100A2F10D0606EB860605FA88
:1023300006F140EA0100E062F0BD21B1826842F49A
:102340008012826003E0826822F48012826070470B
:102350000146C86C80B2704750484C3000687047E6
:1023600021B1426842F48062426003E0426822F494
:1023700080624260704721B1426842F480524260FC
:1023800003E0426822F48052426070470A464FF0F0
:102390000001816821F4E04141EA02018160704757
:1023A00021B1826842F40042826003E0826822F434
:1023B00000428260704721B1826842F4021282605A
:1023C00003E0826822F402128260704701464FF0F7
:1023D00000008A6812F4001F02D04FF0010001E0F3
:1023E0004FF000007047F0B5044615464FF000006E
:1023F00002460646092914DDE068A1F10A0707EB49
:10240000470C4FF0070707FA0CF220EA0200A1F18F
:102410000A0707EB470703FA07F240EA0200E06009
:102420000FE0206901EB410C4FF0070707FA0CF2AF
:1024300020EA020001EB410703FA07F240EA02003A
:102440002061A06BC0F3015605F1030706F1010CF2
:10245000A7EB0C0707EB870C4FF01F0707FA0CF2EE
:1024600020EA020005F1030706F1010CA7EB0C07B7
:1024700007EB870701FA07F240EA0200A063F0BD0C
:1024800010B50A464FF000010B46816B21F4401154
:10249000A2F1010341EA0351816310BD0024014010
:1024A00000280140003C0140FFFEF0FFFDF7F1FF76
:1024B00010B54FF0000303460B441A6010BD0246EE
:1024C0004FF00003134601F128000344186880B25E
:1024D00070470A464FF000014168284B01EA0301AA
:1024E00041EA0201416070474162826270470A46D8
:1024F0004FF00001416821F01F0141EA02014160F3
:10250000704730B11E49096841F400011C4A11604E
:1025100005E01B49096821F40001194A1160704760
:1025200002464FF0000013680B4202D04FF001004A
:1025300001E04FF0000070476FEA0102026070474F
:1025400070B502464FF00000034604464FEA2123CF
:102550005568CEB205EA060415681D4203D014B1D1
:102560004FF0010001E04FF0000070BD4FF000029D
:102570004FEA21226FEA020303607047FFFD3FFF2D
:102580000824014001684FF6FE7201EA0201016071
:102590004FF00001016041608160C160884988425C
:1025A00006D18849496841F00F01864A516078E0B8
:1025B00083491431884206D18249496841F0F001CB
:1025C000804A51606DE07E492831884206D17D49BC
:1025D000496841F470617B4A516062E078493C315E
:1025E000884206D17749496841F47041754A516083
:1025F00057E073495031884206D17249496841F425
:102600007021704A51604CE06D496431884206D1B6
:102610006C49496841F470016A4A516041E0684977
:102620007831884206D16749496841F07061654A4E
:10263000516036E06449884208D1A0F1040109687C
:1026400041F00F01A0F1040211602AE05E4914314B
:10265000884206D15D49096841F0F0015B4A11608A
:102660001FE059492831884206D15849096841F488
:102670007061564A116014E053493C31884206D1DA
:102680005249096841F47041504A116009E04E49CD
:102690005031884205D14D49096841F470214B4AB7
:1026A0001160704710B54FF00002026847F6F073F2
:1026B00022EA03020C6A8B6843EA04030C6943EACA
:1026C00004034C6943EA04038C6943EA0403CC69BC
:1026D00043EA04034C6A43EA04038C6A43EA0403B2
:1026E00043EA02020260CB6843600B6883604B6878
:1026F000C36010BD4FF00001016041608160C160A6
:10270000016141618161C161016241628162704721
:1027100021B1026842F00102026005E002684FF652
:10272000FE7302EA03020260704722B1036843EAC3
:102730000103036003E0036823EA010303607047B9
:10274000416070470146486880B2704701464FF0CB
:102750000000024611F0805F02D01D4B1A6801E0B4
:10276000184B1A680A4202D04FF0010001E04FF006
:102770000000704710F0805F02D01449086001E04B
:1027800010494860704701464FF00000024611F0C2
:10279000805F02D00E4B1A6801E00A4B1A680A42A9
:1027A00002D04FF0010001E04FF00000704710F040
:1027B000805F02D00549086001E002494860704727
:1027C00008000240000002400804024004040240E5
:1027D000000402404FF000004A49086001F1040182
:1027E000086001F10401086001F104010860464835
:1027F0004649086070474FF0000142498279002A3B
:1028000040D00A461268036822EA03020B461A60A7
:1028100001F104021268036822EA030201F10403D1
:102820001A60027911440A68036842EA03020A60E6
:10283000374A1268036822EA0302354B1A6003F133
:1028400004021268036822EA0302324B1A604279DA
:10285000102A0ED12E4A1268036842EA03022C4B5A
:102860001A602C4A1268036842EA0302294B1A6074
:102870000FE02449427911440A68036842EA0302DE
:102880000A6006E0027911440A68036822EA03023A
:102890000A6070474FF00001016001714FF00C01B8
:1028A00041714FF00001817170471B49096841EA8D
:1028B0000001194A1160704701464FF00000134AA9
:1028C00012680A4202D04FF0010001E04FF0000010
:1028D00070470E490860704701464FF000000246FD
:1028E000084B1B6803EA0102084B1B680B4203D02C
:1028F00012B14FF0010001E04FF0000070470349B2
:102900000860704700040140FFFF0F0014040140FD
:10291000080401400C0401401004014010B50446B5
:10292000FE48844208D10121C014FEF7BDFE0021FB
:10293000E014FEF7B9FEC4E0B4F1804F08D10121E4
:102940000846FEF7C0FE00210120FEF7BCFEB8E0FD
:10295000F348844208D101210220FEF7B4FE002191
:102960000220FEF7B0FEACE0EE48844208D101211F
:102970000420FEF7A8FE00210420FEF7A4FEA0E03C
:10298000E948844208D101210820FEF79CFE00217D
:102990000820FEF798FE94E0E448844208D1012123
:1029A0001020FEF790FE00211020FEF78CFE88E03C
:1029B000DF48844208D101212020FEF784FE002157
:1029C0002020FEF780FE7CE0DA48844208D1012115
:1029D0004014FEF769FE00216014FEF765FE70E00A
:1029E000D548844209D10121C804FEF75DFE0021CB
:1029F0004FF40020FEF758FE63E0D048844209D12E
:102A000001210805FEF750FE00214FF48010FEF76B
:102A10004BFE56E0CA48844209D101214805FEF721
:102A200043FE00214FF40010FEF73EFE49E0C5488A
:102A3000844208D101214020FEF745FE00214020BC
:102A4000FEF741FE3DE0C048844208D101218020CC
:102A5000FEF739FE00218020FEF735FE31E0BB484D
:102A6000844208D101218015FEF72DFE0021A0151A
:102A7000FEF729FE25E0B648844209D10121080469
:102A8000FEF712FE00214FF48030FEF70DFE18E035
:102A9000B048844209D101214804FEF705FE002117
:102AA0004FF40030FEF700FE0BE0AB48844208D143
:102AB00001218804FEF7F8FD00214FF48020FEF785
:102AC000F3FD10BD4FF000020288944B98420ED0E7
:102AD000984B98420BD0B0F1804F08D0904B984261
:102AE00005D0904B984202D08F4B984206D14FF6BA
:102AF0008F7302EA03024B8843EA02028B4B98422F
:102B000009D08B4B984206D04FF6FF4302EA0302EE
:102B1000CB8843EA020202808B8883850B88038579
:102B20007E4B98420BD0834B984208D0884B9842FA
:102B300005D0884B984202D0874B984201D10B7A3E
:102B400003864FF001038382704770B54FF0000495
:102B500022461346058C4FF6FE7605EA06050584E7
:102B6000028C8388048B4FF68F7504EA05044FF6B8
:102B7000FC7504EA05040D8845EA04044FF6FD756A
:102B800002EA05020D8945EA02024D8845EA020281
:102B9000624DA8420BD0674DA84208D06C4DA842A8
:102BA00005D06C4DA84202D06B4DA8421BD14FF608
:102BB000F77502EA05024D8945EA02024FF6FB75F8
:102BC00002EA05028D8845EA02024FF6FF6503EA34
:102BD00005034FF6FF5503EA05038D8945EA030314
:102BE000CD8945EA030383800483CD8885860284EA
:102BF00070BD70B54FF0000422461346058C4FF6A9
:102C0000EF7605EA06050584028C8388048B48F676
:102C1000FF7504EA05044FF6FF4504EA05040D8834
:102C20004FEA056544EA15444FF6DF7502EA0502EE
:102C30000D894FEA055542EA15424D884FEA055580
:102C400042EA1542354DA84202D03A4DA84223D15E
:102C50004FF67F7502EA05024D894FEA055542EAB3
:102C600015424FF6BF7502EA05028D884FEA0555F9
:102C700042EA15424FF6FF3503EA05034FF2FF75AE
:102C800003EA05038D894FEA854543EA1543CD895B
:102C90004FEA854543EA154383800483CD88058741
:102CA000028470BD70B54FF0000422461346058CB7
:102CB0004FF6FF6605EA06050584028C8388848B3F
:102CC0004FF68F7504EA05044FF6FC7504EA050417
:102CD0000D8845EA04044FF6FF5502EA05020D8906
:102CE0004FEA056542EA15424D884FEA056542EA1A
:102CF00015420A4DA84202D00E4DA84244D14FF2CF
:102D0000FF7502EA05024D894FEA056542EA154260
:102D10004FF6FF3502EA05028D881FE0002C0140C6
:102D20000004004000080040000C0040001000407B
:102D30000014004000340140004C014000500140AC
:102D40000054014000180040001C004000200040DA
:102D50000040014000440140004801404FEA056541
:102D600042EA15424EF6FF7503EA05034DF6FF757C
:102D700003EA05038D894FEA055543EA1543CD89DA
:102D80004FEA055543EA154383808483CD888587C0
:102D9000028470BD70B54FF0000213461446058CD6
:102DA0004EF6FF7605EA06050584038C8488828B3F
:102DB00048F6FF7502EA05024FF6FF4502EA0502F2
:102DC0000D884FEA056542EA15424DF6FF7503EAA4
:102DD00005030D894FEA057543EA15434D884FEA0F
:102DE000057543EA1543FB4DA84202D0FA4DA842AF
:102DF00008D14BF6FF7504EA05048D894FEA855525
:102E000044EA154484808283CD88A0F8405003842E
:102E100070BD828B4FF2FF3302EA03028283828B02
:102E20004FEA016342EA134282837047F0B50C46D1
:102E300015464FF0000211460E46078C4EF6FF7CF9
:102E400007EA0C070784828B018C4FEA04774FEA6C
:102E5000174640F6FF4702EA07024FEA056742EAD3
:102E600017424FEA037742EA1742DA4FB8420ED0D0
:102E7000D94FB8420BD0B0F1804F08D0D74FB842ED
:102E800005D0D74FB84202D0D64FB84208D14DF640
:102E9000FF7701EA070146F4805747EA010107E09E
:102EA00047F6FF5701EA070144F4805747EA01015A
:102EB00082830184F0BD828B4FF6F37302EA030232
:102EC0008283828B42EA010282837047F0B50C460E
:102ED00015464FF0000211460E46078C4FF6FF6C68
:102EE00007EA0C070784828B018C4FEA04674FEADC
:102EF00017464FF60C7702EA07024FEA035745EAF6
:102F0000174747EA0202B34FB8420ED0B24FB84259
:102F10000BD0B0F1804F08D0B04FB84205D0B04FC1
:102F2000B84202D0AF4FB84208D14FF6FF5701EA7E
:102F3000070146F4807747EA010107E04FF2FF57A7
:102F400001EA070144F4807747EA010182830184A2
:102F5000F0BD028B4FF2FF3302EA03020283028BC1
:102F60004FEA016342EA134202837047F0B50C4610
:102F700015464FF0000211460E46078C4FF6EF7CC7
:102F800007EA0C070784028B018C4FEA04574FEACB
:102F9000174640F6FF4702EA07024FEA037742EA84
:102FA00017424FEA056742EA17428A4FB8420ED0ED
:102FB000894FB8420BD0B0F1804F08D0874FB8424C
:102FC00005D0874FB84202D0864FB84208D14FF69D
:102FD000DF7701EA070146F0100747EA010107E041
:102FE0004FF65F7701EA070144F0100747EA010155
:102FF00002830184F0BD028B4FF6F37302EA0302F1
:103000000283028B42EA010202837047F0B50C464C
:1030100015464FF000021146068C4FF6FE7706EA81
:1030200007060684028B018C4FF60C7602EA060234
:103030004FEA035645EA164646EA0202654EB0429A
:103040000ED0654EB0420BD0B0F1804F08D0634E29
:10305000B04205D0624EB04202D0624EB04208D1BA
:103060004FF6FD7601EA060144F0010646EA010149
:1030700007E04FF6F57601EA060144F0010646EA5C
:10308000010102830184F0BD70B505460C4651482C
:1030900085420ED0504885420BD0B5F1804F08D004
:1030A0004E48854205D04E48854202D04D48854263
:1030B00000D100E000BF208850B92389A288618830
:1030C0002846FFF7A3FFE1882846FFF794FF25E095
:1030D000208804280AD12389A28861882846FFF71E
:1030E00045FFE1882846FFF734FF17E020880828CD
:1030F0000AD12389A28861882846FFF7E7FEE18884
:103100002846FFF7D8FE09E02389A288618828466F
:10311000FFF78CFEE1882846FFF77BFE70BD2DE9A6
:10312000F04105460C464FF000064FF0010760885D
:1031300010B94FF0020601E04FF00006A088012808
:1031400002D14FF0020701E04FF001072088A0B93B
:103150002389A28861882846FFF758FFE18828461E
:10316000FFF749FF23893A4631462846FFF7FEFE1E
:10317000E1882846FFF7EDFE13E02389A2886188E5
:103180002846FFF7F3FEE1882846FFF7E2FE238991
:103190003A4631462846FFF739FFE1882846FFF7CF
:1031A0002AFFBDE8F0810A884B8842EA03028B8837
:1031B00042EA0302CB8842EA03020B8942EA030295
:1031C0004B8942EA03028B8942EA0302A0F84420B9
:1031D00070470000002C0140003401400004004012
:1031E00000080040000C00404FF6FF7181804FF056
:1031F00000010180C1804180017270474FF00001E1
:10320000018041808180C180018141818181C181B2
:1032100070474FF00001018041804FF00101818033
:103220004FF00001C180018170474FF00001018023
:1032300041808180C180018141818181704721B1BC
:10324000028842F00102028005E002884FF6FE7318
:1032500002EA03020280704731B1B0F8442042F420
:103260000042A0F8442005E0B0F84420C2F30E026A
:10327000A0F84420704710B522B1838943EA0103C6
:10328000838106E083896FEA0104A4B203EA0403A0
:10329000838110BD8182704741EA0203A0F8483063
:1032A000704710B522B1838943EA0103838106E0A8
:1032B00083896FEA0104A4B203EA0403838110BD89
:1032C00001894FF6F87201EA0201018170470A464E
:1032D0004FF0000101894FF68F7301EA030141EAC3
:1032E00002010181704730B504460D46294620464B
:1032F000FFF7EDFF208940F00700208130BD2DE968
:10330000F04104460D4616461F46602D06D13B4649
:10331000012231462046FFF729FE05E03B46012207
:1033200031462046FFF772FE29462046FFF7CFFFC1
:10333000208940F007002081BDE8F08130B50C46BF
:103340004FF000010189C9B24FEA036542EA154511
:1033500045EA040545EA0101018130BD2DE9F0414E
:1033600005460E46174698464FF0000443463A4637
:1033700031462846FFF7E2FF2C894FF6F87004EA41
:10338000000444F007044FF68F7004EA000444F090
:1033900070042C81BDE8F081F0B504460D46164658
:1033A0001F463B46324629462046FFF7C7FF208985
:1033B00040F480402081F0BD0185828270470A463A
:1033C0004FF0000101884FF68F7301EA030141EAD3
:1033D000020101807047F0B50C4615461E464FF0BD
:1033E00000010A460B460189028B038C4FF6F877E1
:1033F00001EA070141EA04014FF6FC4702EA07022D
:1034000040F2011742EA07024FF6DD7703EA0703AD
:103410004FEA065745EA174747EA0303018102834B
:103420000384F0BD0A464FF00001018B4FF68F7305
:1034300001EA030141EA0201018370470A464FF0A5
:103440000001018B48F6FF7301EA03014FEA0263B2
:1034500041EA1341018370470A464FF00001818B16
:103460004FF68F7301EA030141EA0201818370473D
:103470000A464FF00001818B48F6FF7301EA030111
:103480004FEA026341EA13418183704721B1028808
:1034900042F08002028005E002884FF67F7302EA64
:1034A00003020280704721B1828842F004028280C8
:1034B00005E082884FF6FB7302EA030282807047C0
:1034C00021B1828842F00802828005E082884FF6AE
:1034D000F77302EA03028280704721B1828842F0CA
:1034E0000102828005E082884FF6FE7302EA030241
:1034F000828070470A464FF00001018B4FF6F77348
:1035000001EA030141EA0201018370470A464FF0D4
:103510000001018B4FF2FF7301EA03014FEA0263DE
:1035200041EA1341018370470A464FF00001818B45
:103530004FF6F77301EA030141EA02018183704704
:103540000A464FF00001818B4FF2FF7301EA03013D
:103550004FEA026341EA1341818370470A464FF004
:103560000001018B4FF6FB7301EA030141EA0201FE
:10357000018370470A464FF00001018B4FF6FF337D
:1035800001EA03014FEA026341EA134101837047F4
:103590000A464FF00001818B4FF6FB7301EA0301ED
:1035A00041EA0201818370470A464FF00001818B96
:1035B0004FF6FF3301EA03014FEA026341EA134188
:1035C000818370470A464FF00001018B4FF67F73ED
:1035D00001EA030141EA0201018370470A464FF004
:1035E0000001018BC1F30E014FEA026341EA13416E
:1035F000018370470A464FF00001818B4FF67F73BD
:1036000001EA030141EA0201818370470A464FF053
:103610000001818BC1F30E014FEA026341EA1341BD
:10362000818370470A464FF00001018C4FF6FD730D
:1036300001EA030141EA0201018470470A464FF0A2
:103640000001018C4FF6F77301EA030141EA020120
:10365000018470470A464FF00001018C4FF6DF737A
:1036600001EA03014FEA025341EA13410184704722
:103670000A464FF00001018C4FF67F7301EA030107
:103680004FEA025341EA1341018470470A464FF062
:103690000001018C4FF6FF5301EA03014FEA026378
:1036A00041EA1341018470470A464FF00001018C42
:1036B0004FF2FF7301EA03014FEA026341EA13414B
:1036C000018470470A464FF00001018C4DF6FF73EC
:1036D00001EA03014FEA027341EA13410184704792
:1036E00030B54FF000034FF0010404FA01F4A3B227
:1036F000048C6FEA0305ADB204EA05040484048C6B
:1037000002FA01F5ADB244EA0504048430BD30B5D7
:103710004FF000034FF0040404FA01F4A3B2048C48
:103720006FEA0305ADB204EA05040484048C02FACE
:1037300001F5ADB244EA0504048430BD70B503461A
:103740004FF000000446184600F118004FF0010544
:1037500005FA01F5ACB21D8C6FEA0406B6B205EAB3
:1037600006051D8409B108290AD100EB610005682E
:1037700025F070050560056845EA020505600EE064
:10378000A1F10405ADB200EB6500056825F4E04544
:10379000056005684FEA026645EA1645056070BD9A
:1037A00021B1028842F00202028005E002884FF651
:1037B000FD7302EA03020280704721B1028842F0E1
:1037C0000402028005E002884FF6FB7302EA03025E
:1037D0000280704721B1828842F08002828005E039
:1037E00082884FF67F7302EA030282807047028864
:1037F0004FF6F77302EA03020280028842EA0102EE
:103800000280704782884FF68F7302EA030282803B
:10381000828842EA01028280704702894FF6F8737B
:1038200002EA03020281028942EA01020281704730
:1038300002894FF67F7302EA03020281028942EA9B
:1038400001020281704781847047818570478186BB
:1038500070470187704781877047A0F84010704714
:1038600002884FF6FF4302EA03020280028842EA1E
:103870000102028070470146888E70470146088F1A
:1038800070470146888F70470146B1F84000704785
:103890000146888C70470146088D704702464FF0FC
:1038A0000000138A0B4202D04FF0010001E04FF0FC
:1038B000000070476FEA01020282704730B502468D
:1038C0004FF0000003460446158A05EA0103958976
:1038D00005EA01041BB114B14FF0010001E04FF003
:1038E000000030BD6FEA0102028270474FF0000114
:1038F00008466D4A126842F480326B4B1A6000BF72
:10390000694A126802F4003001F1010110B9B1F501
:10391000A06FF5D1644A126812F4003F02D04FF054
:10392000010001E04FF00000012842D15F4A126817
:1039300042F010025D4B1A601A46126822F0030230
:103940001A601A46126842F002021A60564A526819
:10395000554B5A601A4652685A601A46526842F4E9
:1039600080625A601A46526822F47C125A601A46E3
:10397000526842F4E8125A601A46126842F08072A5
:103980001A6000BF484A126812F0007FFAD0464A17
:10399000526822F00302444B5A601A46526842F0C1
:1039A00002025A6000BF404A526802F00C02082A24
:1039B000F9D1704710B5FFF799FF10BD10B53A481F
:1039C000006840F0010038490860084640683849FE
:1039D00000EA01003449486008460068354900EAB9
:1039E0000100314908600846006820F48020086022
:1039F0000846406820F4FE0048604FF41F008860CD
:103A0000FFF7D8FF4FF000602B49086010BD10B5DC
:103A10004FF0000108460246234B5B6803F00C019F
:103A200021B1042906D008292CD107E0234B244CCE
:103A300023602BE0214B224C236027E01A4B5B686C
:103A400003F47010184B5B6803F480324FF00203EC
:103A500003EB90402AB91B4B00FB03F3184C236087
:103A60000FE0114B5B6813F4003F05D0154B00FBD2
:103A700003F3134C236004E0104B00FB03F3104CE2
:103A8000236003E00D4B0E4C236000BF00BF064BCC
:103A90005B68C3F303130C4CE15C094B1B6823FA0E
:103AA00001F3074C236010BD0010024000200240CB
:103AB0000000FFF8FFFFF6FE08ED00E000127A00BC
:103AC000C800002000093D00CC00002030B50B46A6
:103AD000014600202022012409E021FA02F59D423E
:103AE00005D303FA02F5491B04FA02F52844151E12
:103AF000A2F10102F1DC30BD2DE9F05F05460020A6
:103B000092469B4688460646814640241BE028464E
:103B100041464746224600F0F2F952465B46801A7B
:103B2000994110D310461946224600F0D9F92D1AB2
:103B300067EB01084F4622460120002100F0D0F932
:103B400017EB00094E41201EA4F10104DFDC4846BA
:103B500031462A464346BDE8F09F2DE9FE4F074611
:103B600081EA0300C00F0E46019021F0004123F0CE
:103B70000044B81AA14105D23846314617461E46C0
:103B80000B46024623F00040104304D1384631462C
:103B900003B0BDE8F08F350DC5F30A00C3F30A5139
:103BA0000290401A0090402868DAC3F3130040F4F2
:103BB000801B0198924620B10023D2EB030A63EBED
:103BC0000B0B00985946C0F14002504600F088F9AE
:103BD00080460C4650465946009A00F0A0F9C0199C
:103BE0007141EF1785EA11533B4340D0019A52B31C
:103BF000009A012A11DC0022801A4FF0004361EB89
:103C0000055103EA05538018CDE9002341F58011E1
:103C10004246234600F0A2F9BAE72E050025401BD4
:103C200061EB0601401941F5801200185241281835
:103C3000A6F5001343EB020140EAD470294318EBC8
:103C40000808644113E064084FEA38084FF00002A6
:103C500044EAC0744FEA0553801A61EB03018018EF
:103C600041F5801149084FEA300080185941424619
:103C7000234603B0BDE8F04F00F063B9019801227C
:103C800040000023D0EB020263EBE07301984FEA9F
:103C9000E074381A66EB0401EBE783F000435CE75D
:103CA00081F0004159E72DE9FE4F81EA030421F03C
:103CB000004504F0004423F000414FF0000A009456
:103CC00050EA050302D052EA010304D10020014664
:103CD00003B0BDE8F08FC1F30A53C5F30A541C4486
:103CE000A0FB02B3C5F3130545F4801CC1F3130117
:103CF00041F480180CFB023300FB083EA4F2F334BD
:103D0000810A930A41EA8C5143EA88530194A1FB4A
:103D100003474FEA9C2505FB03734FEA982601FBF6
:103D200006373D05260545EA1435BBEB06016EEB6B
:103D30000503850E920E45EA8C1542EA8812A5FB12
:103D40000206261E67EB00070C0D44EA0334A41993
:103D500047EB1350C1F313064FF0000319464FEA27
:103D6000033343EA165343EA0403019CE5FB0201D3
:103D7000A4F10C040294009C4FEA0632CDE900A4A1
:103D800000F0ECF8A4E72DE9F04D81EA030404F01B
:103D9000004B21F0004714464FF0000A23F0004189
:103DA00050EA070220D054EA01021DD0C1F30A559F
:103DB0000246C1F31300C7F30A56C7F3130340F4D6
:103DC000801143F48013A6EB0508101BD64608F2B9
:103DD000FD3873EB010002D308F1010801E09218ED
:103DE0005B41B8F1000F03DA00200146BDE8F08D19
:103DF00000204FF48015064607460EE0B2EB040C97
:103E000073EB010C04D3121B064363EB01032F4336
:103E10006D084FEA300092185B4150EA050CEDD175
:103E200052EA030012D082EA040083EA0105284323
:103E300003D100224FF0004308E0101B8B4102D257
:103E40000122002302E06FF0010253101AEB06007A
:103E500047EB085110EB0A0041EB0B01BDE8F04DB8
:103E600000F06FB8C1F30A52C1F3130140F2FF33FF
:103E700041F480119A4202DA00200146704740F274
:103E800033439A42A2F2334202DC524200F037B886
:103E900000F026B830B5002904DB4FF00044404262
:103EA00064EB0101002B04DB4FF00044524264EB51
:103EB0000303994208BF904230BD0000064C074DF5
:103EC00006E0E06840F0010394E8070098471034EA
:103ED000AC42F6D3FCF730F9F8480008184900085E
:103EE000202A04DB203A00FA02F1002070479140BA
:103EF000C2F1200320FA03F3194390407047202AAF
:103F000004DB203A21FA02F00021704721FA02F383
:103F1000D040C2F120029140084319467047202A40
:103F200006DBCB17203A41FA02F043EAE071704712
:103F300041FA02F3D040C2F12002914008431946F1
:103F4000704710B5002B08DA401C41F100019218AF
:103F50005B411A4301D120F0010010BD2DE9F04D65
:103F600092469B4611B1B1FA81F202E0B0FA80F2BA
:103F700020329046FFF7B4FF06460F4640EA0A009B
:103F800041EA0B0152465B46084303D130463946AD
:103F9000BDE8F08D194652EA010015D0C8F1400283
:103FA0005046FFF7ACFF04460D4650465946424680
:103FB000FFF796FF084301D0012000E000200443F2
:103FC00045EAE07526432F430A984FEAD625A0EB31
:103FD00008000A304FEA46534FF0000245EA4755C1
:103FE0004FEAD72402D500200146D1E70105501938
:103FF0006141DDE9084500196941BDE8F04DA0E7E0
:1040000037B508461146054B6A4600F0C3F804462A
:104010006946002000F06BFC20463EBDEF480008DA
:1040200002E008C8121F08C1002AFAD17047704781
:10403000002001E001C1121F002AFBD170470000DF
:104040002DE9FF5FDDE90210020DDDF838B0014314
:104050000FD10F9801244AA3012807D000980F9A86
:10406000C0E90031C0E90242BDE8FF9F6FEA0B01E1
:10407000F4E7A2F2FF3244F61050424315140F98B1
:1040800001280ED0A5EB0B00401C4FF000043D4E64
:10409000DFF8F490B0F1000AA04605DACAF1000793
:1040A00017E0CBF10000F0E7074612E0F80707D071
:1040B0002246334640464946FFF7F5FD804689468D
:1040C0002246334610461946FFF7EDFD04460E46DC
:1040D0007F10002FEAD1DDE90201BAF1000F42465C
:1040E0004B4602DAFFF7DFFD01E0FFF74CFE044626
:1040F0000E460022254BFFF7CDFE03D84FF0FF30D0
:10410000014607E00022224B20463146FFF725FDFD
:10411000FFF7A8FE102409E0002C0ADB0A22002386
:10412000FFF7EAFC019B30321A55641E50EA010287
:10413000F2D1641C019AC4F1110314440F9A012AAC
:1041400007D00122084301D15B450DDD00226D1C23
:104150000DE0084303D1A3EB0B056D1E09E0002021
:104160004FF0110B0F908AE701DA00226D1E002A32
:1041700085D000980F99C0E90231C0E9004573E786
:1041800030000000000024400000F03F0000F04339
:104190000000E03F2DE9FF4F95B006469A4689465C
:1041A000002521E2252801D01799A6E00024F9492D
:1041B0002746761C4FF0010803943278203A08FA1B
:1041C00002F0084202D00443761CF6E730782A2831
:1041D00011D06FF02F023078A0F13001092916D8E4
:1041E000039944F0020401EB810102EB4101084410
:1041F000761C0390EFE759F8041B0391002903DABA
:10420000484244F40054039044F00204761C307891
:104210002E2816D116F8010F44F004042A280DD0D8
:104220006FF02F013078A0F13002092A09D807EB8E
:10423000870201EB42028718761CF3E759F8047BEA
:10424000761C30786C280FD006DC4C2817D06828F4
:104250000DD06A2814D104E0742810D07A280FD128
:104260000DE044F400140AE044F4801401E044F446
:1042700040147178814202D1761C04F58014761CBA
:1042800096F800C0BCF1660F10D01ADCBCF1580FD4
:1042900070D00CDCBCF1000F6DD0BCF1450FF3D039
:1042A000BCF1460FF0D0BCF1470F24D1A4E1BCF122
:1042B000630F40D0BCF1640F74D0BCF1650F1AD10C
:1042C0009AE1BCF1700F6ED00CDCBCF1670FEDD041
:1042D000BCF1690F75D0BCF16E0F12D0BCF16F0F3D
:1042E00009D1B3E0BCF1730F2FD0BCF1750F76D0BC
:1042F000BCF1780F74D017996046524690476D1CF8
:1043000070E1C4F30250022809D003280DD0D9F877
:10431000001004280DD00D6009F1040962E1D9F8FC
:104320000010EA17C1E90052F6E7D9F800100D8035
:10433000F2E70D70F0E759F8041B8DF8001000202B
:104340008DF80100EB46012003E059F804BB4FF063
:10435000FF3061074FF0000102D40FE008F10101C6
:104360008846B94211DA8045F8DB1BF808100029AD
:10437000F4D10AE060E03BE108F1010188468142A6
:10438000FADB1BF808100029F6D103985346A0EB7E
:10439000080721463846179A00F091FA284400EBA6
:1043A000080506E00DE049E01BF8010B524617999D
:1043B0009047B8F10108F7D2534621463846179A7C
:1043C0000DE10A21C4F302524FF0000B0091022AC2
:1043D00007D059F8040BC117032A0AD00BE024E0D8
:1043E00025E009F1070020F00702F2E802019146FA
:1043F00005E000B2C117042A01D140B2C11700295B
:1044000006DA0A460021404261EB02012D2202E059
:10441000220504D52B228DF80420012203E0E207B7
:1044200001D02022F7E7904654E00A2100E0102155
:104430004FF0000B00910DE0102008E010204FF02D
:10444000000B44F004040827009003E008204FF01C
:10445000000B0090C4F30252022A05D059F8040B55
:104460000021032A08D009E009F1070020F0070223
:10447000F2E80201914605E080B20021042A01D150
:10448000C0B200214FF00008220723D5BCF1700F05
:1044900028D0009B83F0100353EA0B0309D150EAA4
:1044A000010206D030228DF804208DF805C00222CA
:1044B0009046009B83F0080353EA0B030AD150EAAD
:1044C000010201D1620705D530228DF804204FF09A
:1044D00001087F1EBCF1580F09D02FA20C920CAA24
:1044E000029211E040228DF804200122E0E72FA281
:1044F000F4E75B46009AFFF7FFFA0C9B9B5C029A7D
:10450000A2F101020292137050EA0102F1D1029865
:1045100004A9A1EB000000F1200B600702D524F4F0
:10452000803400E001275F4502DDA7EB0B0000E0CF
:10453000002000EB0B01009003984144A0EB010028
:104540000390E00306D453462146179A039800F0DF
:10455000B6F90544002706E001A85246C05D179948
:1045600090476D1C7F1C4745F6DBE0030CD5534696
:104570002146179A039800F0A2F9054404E0302080
:104580005246179990476D1C0099481E00900029CB
:10459000F5DC1EE00928010030313233343536377E
:1045A000383961626364656600000000303132337F
:1045B000343536373839414243444546000000001F
:1045C0000298029952460078491C02911799904727
:1045D0006D1CBBF10001ABF1010BF1DC50E100F00F
:1045E0005BF9054406F10106307800287FF4DAAD66
:1045F00019B02846BDE8F08F600700D4062709F1FE
:10460000070020F00701F1E80220894600F000438E
:10461000190001D09DA109E0210501D59CA105E06B
:10462000E10701D09BA101E0AFF2840120F000433B
:104630001391BCF1650F11D009DCBCF1450F0DD011
:10464000BCF1460F20D0BCF1470F3ED13EE0BCF19B
:10465000660F19D0BCF1670F7CD137E00021112F14
:1046600001DB112000E0781CCDE9000104A90CA8B1
:10467000FFF7E6FCDDE90D010C9A4FF0000B07F1A6
:104680000108109200914CE04FF000400097CDE9F6
:10469000018004A90CA8FFF7D3FCDDE90E20DDE9B9
:1046A0000C314FF0000B90461093009218B907F1AF
:1046B000010001EB0008B7EB080003D4C0F1FF3B99
:1046C00007F10108A8EB0700019043E0012F00DA91
:1046D00001270021112F01DD112000E03846CDE92E
:1046E000000104A90CA8FFF7ABFCDDE90D010C9A51
:1046F00000914FF0000BB846109221070CD400999E
:10470000B94200DA8846B8F1010F05DD109AA8F128
:104710000101515C302908D0B84202DA10F1040FCF
:1047200006DA0121CDE9011014E0A8F10101E9E761
:10473000002803DC8344A8EB000102E0411C414552
:1047400000DD8846A0EB0B0000F1010001904FF066
:1047500000400290200705D40198404502DB4FF04D
:10476000FF30019000208DF84B0002980DF14B07AF
:10477000B0F1004F26D002200C902B200D90029813
:1047800000280CDA404202902D200D9007E00A210B
:104790000298FFF79BF93031029007F8011D0C9940
:1047A000481E0C900029F2DC02980028EFD1A7F1F6
:1047B00001010D980870307800F0200040F04500AD
:1047C00007F8020D11A8A0EB070000F10700029006
:1047D0001398007800B1012000EB0801019801EB6B
:1047E000E071029801440398A0EB0100A0F10100E0
:1047F0000390E00306D453462146179A039800F02D
:104800005EF805441398007820B1524617999047F6
:1048100005F10105E00322D553462146179A039876
:1048200000F04DF805441AE0BBF1000F07DB0098DB
:10483000584504DD1098179910F80B0001E01799FE
:1048400030205246904701986D1C401E0BF1010B21
:10485000019004D12E205246179990476D1CB8F153
:104860000001A8F10108DFDC05E017F8010B524652
:10487000179990476D1C0299481E02900029F4DC9C
:1048800053462146179A0398A9E600002D00000020
:104890002B000000200000002DE9F0410446002517
:1048A00017461E46880405D406E039462020B04746
:1048B00005F10105641EF8D52846BDE8F0812DE913
:1048C000F0410446002590461E46C80301D5302716
:1048D00000E02027880405D506E041463846B04769
:1048E00005F10105641EF8D52846BDE8F0810A6887
:1048F000531C0B601070704718490008000000201E
:10490000DC00000020400008F4490008DC00002022
:10491000C409000030400008000000000000000052
:104920000000000000000000000000000000000087
:10493000000000000000000000000000474F5F532F
:10494000544F500000000000000000000000000074
:10495000474F5F464F52574152440000000000004D
:1049600000000000474F5F4241434B000000000041
:104970000000000000000000474F5F4C4546540017
:10498000000000000000000000000000474F5F52E0
:1049900049475448000000000000000000000000EB
:1049A000474F5F524F554E4400000000000000008A
:1049B00000000000474F5F465F534C4F5700000018
:1049C00000000000000000000000000000000000E7
:1049D0000102030401020304060708090204060891
:1049E00000A24A04000000000000000001020304CD
:0449F00006070809A5
:0400000508000131BD
:00000001FF
