:020000040800F2
:10000000B8DC002045010008A3240008E91A000814
:100010009F240008E50F0008D93700080000000001
:10002000000000000000000000000000892B000814
:10003000E5110008000000005B010008752C0008B5
:100040005F0100085F0100085F0100085F01000810
:100050005F0100085F0100085F0100085F01000800
:10006000FD1200085F010008B1130008EB0F000843
:100070005F0100085F0100085F0100085F010008E0
:100080005F0100085F010008BD0B00085F01000868
:10009000D7370008E90F00085F010008591400086D
:1000A000D12D00085F010008E52D0008E12D0008B2
:1000B000F52D0008F72D0008F92D00085F01000854
:1000C0005F0100085F0100085F0100085F01000890
:1000D0005F010008F1340008713500085F01000875
:1000E000E91100085F0100085F0100085F010008D6
:1000F000792E00085F0100086D2E00085F010008DE
:100100005F0100085F0100085F0100085F0100084F
:10011000E53400085F010008FD2D0008392E0008B5
:100120005F0100085F0100085F0100085F0100082F
:10013000DFF80CD000F0DCFC00480047810F01081C
:10014000B8DC00200648804706480047FEE7FEE787
:10015000FEE7FEE7FEE7FEE7FEE7FEE7FEE7FEE777
:10016000712D0008310100080649074A086850430C
:1001700043F23902104408604008704701490860A2
:10018000704700007C0600206D4EC64140EA010326
:100190009B0703D009E008C9121F08C0042AFAD23D
:1001A00003E011F8013B00F8013B521EF9D2704701
:1001B000D2B201E000F8012B491EFBD270470022A9
:1001C000F6E710B513460A4604461946FFF7F0FF56
:1001D000204610BD421C10F8011B0029FBD1801ADB
:1001E0007047F0B480EA0102D40F4200B2EB410F35
:1001F00002D20246084611464A0042D0C30DDDB283
:10020000C1F3C752AD1A202D35DAC1F3160141F4FE
:10021000000204B15242C5F1200602FA06F12A4159
:100220001044B3EBD05F23D0C4B1012DA0EBC35079
:1002300009DCF0BC4FF0004202EAC352DBB200F529
:10024000000000F042BB400000F1807000EBC350A2
:10025000A0F1807040EAD170490009E0490841EA04
:10026000C071A0EBC35000F50000400800EBC35084
:10027000F0BC00F021BB6142012202EB4101001BF6
:10028000F6E7F0BC704781F00041AAE780F000403B
:10029000A7E780EA010210B502F00043400022D037
:1002A0004A001FD0010E01EB1261C0F35600C2F3E9
:1002B000560240F4000042F40002A0FB02200004B9
:1002C0007F39140400D0401C50EA124001D4400091
:1002D000491EC2B20C0604EBD010401C4008802A14
:1002E00002D003E0002010BD20F00100002900DA58
:1002F0000020184310BD30B480EA010202F000452E
:1003000030F0004221F0004013D090B1C30DD40D65
:10031000C2F31601C0F31600E41A41F4000140F4E0
:1003200000027D34914201D3641C00E04900002C9E
:1003300002DA30BC002070474FF4000000239142E5
:1003400001D3891A034340084FEA4101F7D151B163
:10035000914202D14FF0004105E002D24FF001017D
:1003600001E06FF0010103EBC450284430BC00F001
:10037000A3BA2DE9FE4F804681EA0300C00F0C4668
:10038000009021F0004123F00045B8EB0200A941A4
:1003900005D24046214690461C460B46024623F0B5
:1003A0000040104347D0270DC7F30A00C3F30A519A
:1003B0000290401A019040286BDAC3F3130040F416
:1003C000801B0098924620B10023D2EB030A63EB16
:1003D0000B0B01985946C0F14002504600F0EFF96E
:1003E00006460D4650465946019A00F007FA10EBB2
:1003F00008006141002487EA115284EAE7731A4336
:1004000040D0009A62B3019A012A4FEA075215DCE4
:10041000001B61EB02014FF0004202EA0752CDE9F6
:100420000042001C41F5801132462B4600F08AFA4A
:1004300003B0BDE8F08F40462146F9E7001B61EBB1
:100440000201001C41F5801300185B412018A2F541
:10045000001747EB030140EAD570B6196D4111E072
:100460006D084FEA360645EAC0754FEA0752001B91
:1004700061EB0201001C41F5801149084FEA300090
:100480000019514132462B4603B0BDE8F04F00F051
:100490004ABA0098012240000023D0EB020263EB2D
:1004A000E073009821464FEAE074B8EB000061EB7E
:1004B0000401E9E783F000435BE781F0004158E77E
:1004C0002DE9FE4F81EA030404F0004421F00041CD
:1004D00000944FF0000B23F0004350EA01045ED07B
:1004E00052EA03045BD0C3F30A54C1F30A552C4407
:1004F000A4F2F3340194A0FB0254C1F3130141F4BC
:100500008011C3F3130343F4801301FB024400FB87
:10051000034E840A970A44EA815447EA8357A4FBAE
:10052000076802958D0A05FB07854FEA932C04FBAB
:100530000C542705029D4FEA065847EA1637B5EBDB
:1005400008056EEB070C870E920E47EA811742EA08
:100550008312A7FB0201B6EB0B0164EB00042B0D29
:1005600043EA0C335E1844EB1C50DA465146E7FB75
:100570000201C5F313044FEA0B3343EA14534FEA65
:100580000432019C43EA0603A4F10C040294009C8B
:10059000CDE900B400F0D6F903B0BDE8F08F00203B
:1005A0000146F9E7C10F80EAE0700844CA079623C4
:1005B000002100F08AB996230022114600F085B987
:1005C0000EB540F2334102910021CDE900110A46F7
:1005D0000B4600F0B7F903B000BD00F0004220F078
:1005E0000040C10DC0F3160040F400007F2901DA7D
:1005F00000207047962903DCC1F19601C84001E054
:1006000096398840002AF4D04042704770B5C1F353
:100610000A5201F000450024C1F3130140F2FF33F8
:1006200041F480119A4201DA002070BD40F2334358
:100630009A42A2F2334203DC524200F0CFF800E0CB
:1006400090402C43F1D0404270BD00F0004230F0A9
:1006500000400AD0C10D01F56071C0F3160042EAF6
:100660000151C208400711437047002001467047FE
:1006700030B5041E71F1000404DB4FF00044404229
:1006800064EB0101141E73F1000405DB1C464FF0FE
:100690000043524263EB04038B4208BF824230BDE9
:1006A00030B5041E71F1000404DB4FF000444042F9
:1006B00064EB0101141E73F1000405DB1C464FF0CE
:1006C0000043524263EB0403994208BF904230BD9D
:1006D00001F0004330B421F0004150EA010206D09D
:1006E0000A0DA2F56072C1F31301002A02DC30BCCE
:1006F00000207047440F44EAC104C100E01830BC38
:1007000000EBC25000F0D8B8002801DBC0F1004077
:10071000002901DBC1F1004181427047002801DB63
:10072000C0F10040002901DBC1F10041884270475F
:1007300030B50B46014600202022012409E021FAB1
:1007400002F59D4205D303FA02F5491B04FA02F5AE
:100750002844151EA2F10102F1DC30BD2DE9F05F45
:100760000546002092469B46884606468146402420
:100770001BE0284641464746224600F02FF85346E4
:100780005A46C01A914110D311461846224600F02D
:1007900016F82D1A67EB01084F462246012000216A
:1007A00000F00DF817EB00094E41201EA4F10104E2
:1007B000DFDC484631462A464346BDE8F09F202A02
:1007C00004DB203A00FA02F1002070479140C2F1A8
:1007D000200320FA03F3194390407047202A04DBDA
:1007E000203A21FA02F00021704721FA02F3D040AA
:1007F000C2F120029140084319467047202A06DBC7
:10080000CB17203A41FA02F043EAE07306E041FADE
:1008100002F3D040C2F120029140084319467047CC
:10082000014900F003B800008CD8002010B5006822
:100830003C22B0FBF2F302FB1303B0FBF2F00B60BF
:10084000B0FBF2F302FB1303B0FBF2F018224B6093
:10085000B0FBF2F302FB1303B0FBF2F0021D8B605E
:100860000723B2FBF3F403FB1422800040F2B553DC
:1008700000F66C308A61B0FBF3F2B0FBF3F403FBDB
:100880001400443280084A61C8613B2802D39207B1
:1008900000D0401C0022074C13460A61E25C8242F1
:1008A00003D8801A5B1C0B61F8E7401CC86008463F
:1008B00010BD0000A80603080029A8BF7047401C0F
:1008C000490008BF20F00100704710B4B0FA80FC66
:1008D00000FA0CF050EA010404BF10BC704749B1A3
:1008E000CCF1200421FA04F411FA0CF118BF012113
:1008F00021430843A3EB0C01CB1D4FEA00614FEAF3
:10090000102042BF002010BC704700EBC3501044C1
:100910000029A4BF10BC7047401C490008BF20F04C
:10092000010010BC704710B5141E73F1000408DA02
:10093000401C41F1000192185B411A4301D120F0A3
:10094000010010BD2DE9F04D92469B4611B1B1FA60
:1009500081F202E0B0FA80F220329046FFF72FFFDA
:1009600004460F4640EA0A0041EA0B0153465A4644
:10097000084313D0114653EA010019D0C8F14002D0
:100980005046FFF72BFF05460E4650465946424655
:10099000FFF715FF084305D0012004E02046394643
:1009A000BDE8F08D0020054346EAE0762C4337434E
:1009B0000A986305E40AA0EB08000022FD0A44EA55
:1009C00047540A3002D500200146E9E70105101915
:1009D0006941DDE9084500196941BDE8F04DA2E72C
:1009E0002DE9F04D81EA030404F0004B21F00045AD
:1009F00014464FF0000A23F0004150EA050220D0CF
:100A000054EA01021DD0C5F30A570246C5F3130389
:100A1000C1F31300C1F30A5640F4801543F4801368
:100A2000A7EB0608101BD64608F2FD3873EB05004D
:100A300002D308F1010801E092185B41B8F1000F00
:100A400003DA00200146BDE8F08D00204FF480114C
:100A5000064684460EE0171B73EB050705D3121BF1
:100A600063EB050306434CEA010C49084FEA3000EA
:100A700092185B4150EA0107EDD152EA030012D00F
:100A800082EA040083EA0501084305D0101BAB414C
:100A900006D20122002306E000224FF0004302E0CC
:100AA0006FF0010253101AEB06004CEB085110EBEB
:100AB0000A0041EB0B01BDE8F04DFFF734BFC1F375
:100AC0000A52C1F3130140F2FF3341F480119A42FC
:100AD00002DA00200146704740F233439A42A2F204
:100AE000334202DC5242FFF779BEFFF768BE0000D6
:100AF000064C074D06E0E06840F0010394E807006B
:100B000098471034AC42F6D3FFF716FB200E0308CB
:100B1000400E030870B521F0004303430CD0C1F32D
:100B20000A550024D5EB040564EB0403D617AD1A6F
:100B3000B34102DB0020014670BD201841EB025199
:100B400070BD0EB5C10F80EAE0700844CA070021ED
:100B500040F233438DE80E000A460B46FFF7F2FEE3
:100B600003B000BD70B58C1810F8015B15F00703D9
:100B700001D110F8013B2A1106D110F8012B03E036
:100B800010F8016B01F8016B5B1EF9D12B0705D43E
:100B90000023521E0DD401F8013BFAE710F8013B87
:100BA000CB1A921C03E013F8015B01F8015B521EA3
:100BB000F9D5A142D8D3002070BD000010B54FF484
:100BC0009061054800F033F9012804D14FF4906199
:100BD000014800F007F910BD0024014008B50121CB
:100BE000084601F055FD01214FF4047001F080FD2D
:100BF000FF20ADF8000000208DF8030069460C4886
:100C000000F07EFE0320ADF8000000208DF8030008
:100C10006946084800F074FE2F20ADF8000000205F
:100C20008DF803006946044800F06AFE08BD000024
:100C300000080140000C01400010014000B591B0D7
:100C4000654800F0F5F96548069065480790002072
:100C500008901020099000200A9080200B904000FE
:100C60000C9080000D9020200E9000020F9000202C
:100C7000109006A9584800F097FA0121564800F054
:100C8000CBF90020019001208DF808008DF80900B3
:100C90004FF4602003900020049010208DF8140081
:100CA00001A94E484C3800F0DFF8052310220D2131
:100CB0004A484C3800F000F905230F220C21474820
:100CC0004C3800F0F9F805230E220B2143484C382C
:100CD00000F0F2F805230D220A2140484C3800F0BC
:100CE000EBF805230C220F213C484C3800F0E4F8C7
:100CF00005230B220E2139484C3800F0DDF805237E
:100D00000122092135484C3800F0D6F8052302228B
:100D1000082132484C3800F0CFF805230322072180
:100D20002E484C3800F0C8F80523042203212B4834
:100D30004C3800F0C1F805231A46042127484C38E6
:100D400000F0BAF805230622194624484C3800F072
:100D5000B3F805230722062120484C3800F0ACF8F0
:100D60000523082200211D484C3800F0A5F8052372
:100D70000922012119484C3800F09EF805230A2267
:100D8000022116484C3800F097F8012113484C38DE
:100D900000F038F8012111484C3800F028F80F48CD
:100DA0004C3800F0E5F800BF0C484C3800F051F822
:100DB0000028F9D109484C3800F0EAF800BF07488C
:100DC0004C3800F02AF80028F9D1012103484C38AA
:100DD00000F0D3F811B000BD080002404C240140DF
:100DE00058A4002000220A12D3430360704721B1A7
:100DF000826842F00102826003E0826822F0010210
:100E00008260704721B1826842F48072826003E0A0
:100E1000826822F4807282607047014600208A68EE
:100E200002F004020AB1012000E00020704770B512
:100E300002460020002300240B125568CEB205EABA
:100E4000060415681D4015B10CB1012000E000201A
:100E500070BD014600208A6802F008020AB1012034
:100E600000E000207047000030B50246002000235B
:100E700050680F4C20400D790C6844EA052420434B
:100E8000506090680B4C2040D1E902542C434D79BE
:100E900044EA450420439060D06A20F470000C7C42
:100EA000641EE4B2234340EA0350D06230BD000028
:100EB000FFFEF0FFFDF7F1FFF0B504460D46002000
:100EC0000021092D11DDE068A5F10A0606EB4607B1
:100ED000072606FA07F18843A5F10A0606EB46063F
:100EE00003FA06F10843E0600CE0206905EB4507D2
:100EF000072606FA07F1884305EB450603FA06F1D3
:100F000008432061072A0FDA606B561E06EB86073E
:100F10001F2606FA07F18843561E06EB860605FAD9
:100F200006F10843606322E00D2A0FDA206BD61F1A
:100F300006EB86071F2606FA07F18843D61F06EB45
:100F4000860605FA06F10843206310E0E06AA2F184
:100F50000D0606EB86071F2606FA07F18843A2F165
:100F60000D0606EB860605FA06F10843E062F0BDC1
:100F7000816841F008018160704721B1826842F4C4
:100F8000A002826003E0826822F4A00282607047BF
:100F9000816841F004018160704710B5012001F0C3
:100FA000C7FB002001F0C4FB10BD000008B50146DE
:100FB000002000900348009000980844009000989A
:100FC000008808BD006C004008B500220092044A69
:100FD0000092009A02440092009A116008BD00003D
:100FE000006C004000BFFEE7704710B5022000F023
:100FF000C5F810B1022000F001F810BD00F08051DA
:1010000011B10349086001E00249486070470000DF
:10101000040402400000024021B1026842F00102D3
:10102000026004E002684FF6FE731A4002607047E7
:1010300001684FF6FE7211400160002101604160BD
:101040008160C1604B49884208D14A4908394968E2
:1010500041F00F01474A083A51608AE0454914318E
:10106000884208D143490839496841F0F001414AB2
:10107000083A51607DE03F492831884208D13D4916
:101080000839496841F470613A4A083A516070E0A1
:1010900038493C31884208D136490839496841F419
:1010A0007041344A083A516063E032495031884215
:1010B00008D130490839496841F470212D4A083A6D
:1010C000516056E02B496431884208D129490839DA
:1010D000496841F47001274A083A516049E02549BE
:1010E0007831884208D123490839496841F0706154
:1010F000204A083A51603CE01F49884206D1011F4E
:10110000096841F00F01021F116032E01A491431E1
:10111000884208D11849091F096841F0F001164AB0
:10112000121F116025E014492831884208D1124964
:10113000091F096841F470610F4A121F116018E01D
:101140000D493C31884208D10B49091F096841F417
:101150007041094A121F11600BE007495031884263
:1011600007D10549091F096841F47021024A121F7D
:101170001160704708000240080402400146002048
:10118000002201F0805313B1054B1A6801E0054BB2
:101190001A6802EA01030BB1012000E00020704749
:1011A000000402400000024010B50022026847F629
:1011B000F0739A430C6A8B6823430C6923434C6990
:1011C00023438C692343CC6923434C6A23438C6AB1
:1011D00023431A430260CB6843600B6883604B680B
:1011E000C36010BD7047000070B54FF4004000F0C0
:1011F00063F930B14FF4004000F058F900200EF0D0
:10120000D3FC4FF4005000F057F9002868D035485F
:101210000068007807280FD13348007860B1334860
:1012200001880088401C314A108047F230508142CA
:1012300052DD114608804FE02A48006840780128B6
:1012400009D0284800684078022804D02548006862
:101250000078072823D126480068C0F38035244849
:101260000068C0F34034A5420CD022484069401EBB
:101270002049486120480068006F401E1E490968E7
:10128000086729E01B484069401C1A4948611A4810
:101290000068006F401C1849096808671CE0114885
:1012A00000680078C0B912480068C0F38035104863
:1012B0000068C0F34034A54207D00F480068006FB3
:1012C000401E0D490968086706E00B480068006F7A
:1012D000401C0949096808674FF4005000F0E6F81F
:1012E00070BD000010000020FD030020FE03002060
:1012F0000814014024AE00206801002070B50420CD
:1013000000F0DAF8002849D02548006800F0040011
:10131000002840D0234800684078012809D021489F
:1013200000684078022804D01E480068007807282A
:101330002CD11B480068C0F3400419480068C0F372
:101340008005AC4211D11848C068401E1649C860DB
:10135000164802684432016840314FF0FF3005F012
:1013600021F80020104948610FE00F48C068401C78
:101370000D49C8600D4802684432016840310120BF
:1013800005F010F800200849486104E00648C068EC
:10139000401C0549C860042000F082F870BD0000C0
:1013A000081401401000002024AE00206801002035
:1013B00070B5102000F080F8002843D02248006863
:1013C00000F0100000283AD020480068407801283A
:1013D00009D01E4800684078022804D01B480068E5
:1013E0000078072826D118480068C0F30014164872
:1013F0000068C0F34015AC420DD115488068401C10
:1014000013498860134802684C3201684831012052
:1014100004F0C8FF0DE00E488068401E0C4988604B
:101420000C4802684C32016848314FF0FF3004F03C
:10143000B9FF04E006488068401C05498860102018
:1014400000F02EF870BD00000818014010000020C8
:1014500024AE00206801002010B5802000F02CF898
:1014600028B1802000F022F801200EF09DFB4FF4FF
:10147000807000F021F830B14FF4807000F016F861
:1014800002200EF091FB202000F016F820B1034856
:101490000068202000F00AF810BD0000080C014090
:1014A00001490860704700001404014001490860C8
:1014B0007047000014040140014600200022074B41
:1014C0001B6803EA0102054B14331B680B4013B180
:1014D0000AB1012000E00020704700000004014034
:1014E000002123498279002A3AD00A46126803680B
:1014F0009A430B461A600A1D126803689A430B1D33
:101500001A60027911440A6803681A430A60184A8B
:101510000832126803689A43154B08331A601A1D83
:10152000126803689A43124B0C331A604279102AEE
:101530000ED11A1F126803681A430D4B08331A6044
:101540001A1D126803681A43094B0C331A600DE028
:101550000749427911440A6803681A430A6005E0A2
:10156000027911440A6803689A430A6070470000D0
:10157000000401400021016001710C214171002132
:10158000817170471CB50420FFF790FF1020FFF712
:101590008DFF4FF40050FFF789FF0221032000F078
:1015A0008FF90421084600F08BF90D21032000F08B
:1015B00087F91420009000208DF8040008208DF891
:1015C000050001208DF806006846FFF789FF4FF4FB
:1015D0000050009000208DF8040010208DF80500C8
:1015E00001208DF806006846FFF77AFF1CBD000059
:1015F0000149C860704700000020024030B5044631
:1016000004254FF4302000F085F80546042D17D14D
:101610000C48006940F002000A490861084644612C
:10162000006940F0400008614FF4302000F072F88B
:1016300005460448006941F6FD710840014908610A
:10164000284630BD0020024004200B49C96801F043
:10165000010109B101200EE00749C96801F0040148
:1016600009B1022007E00449C96801F0100109B17D
:10167000032000E004207047002002400348006976
:1016800040F08000014908617047000000200240DE
:1016900078B506460C46042500200090E80200F0CC
:1016A00039F80546042D24D11348006940F00100A3
:1016B000114908613480E80200F02CF80546042D39
:1016C00010D1B01C0090200C00990880E80200F0B6
:1016D00021F805460848006941F6FE7108400649B0
:1016E000086106E00448006941F6FE7108400249BD
:1016F0000861284678BD00000020024002480349E6
:101700004860034848607047230167450020024055
:10171000AB89EFCD00B502460423FFF795FF0346E2
:1017200003E0FFF791FF0346521E012B01D1002A6F
:10173000F7D102B90523184600BD000008B54FF4E3
:10174000C040ADF8000028208DF8030003208DF87C
:1017500002006946564800F0D3F84FF40050ADF847
:10176000000048208DF8030003208DF80200694630
:10177000504800F0C5F80620ADF8000004208DF8B0
:10178000030003208DF802006946494800F0B8F8CC
:101790001020ADF8000004208DF8030003208DF820
:1017A00002006946444800F0ABF84FF42070ADF8F1
:1017B000000010208DF8030003208DF80200694618
:1017C0003E4800F09DF80820ADF8000069463A4810
:1017D00000F096F88020ADF8000010208DF803008E
:1017E00003208DF802006946344800F089F84FF470
:1017F000C070ADF8000004208DF8030003208DF8C0
:10180000020069462C4800F07BF80620ADF8000085
:1018100004208DF8030003208DF802006946244857
:1018200000F06EF84FF40060ADF8000048208DF82D
:10183000030003208DF8020069461D4800F060F89F
:101840000120ADF8000048208DF8030003208DF83A
:1018500002006946164800F053F84FF40040ADF816
:10186000000018208DF8030003208DF8020069465F
:10187000114800F045F84FF40070ADF80000182052
:101880008DF8030003208DF8020069460A4800F035
:1018900037F80420ADF8000010208DF80300032075
:1018A0008DF802006946044800F02AF808BD0000DF
:1018B00000140140000C01400018014000100140DC
:1018C00030B500228B071C0F0F2303FA04F20B4BD9
:1018D0008C1053F824309343084C8D1044F8253075
:1018E00023468C1053F824308C07240F00FA04F49C
:1018F0002343024C8D1044F8253030BD08000140D0
:101900002DE9F04102460025002600200023002496
:10191000002791F803C00CF00F0591F803C00CF0FC
:10192000100CBCF1000F03D091F802C04CEA050581
:1019300091F800C0BCF1000F31D0146800202BE0FA
:101940004FF0010C0CFA00F3B1F800C00CEA0306EA
:101950009E4220D183004FF00F0C0CFA03F7BC43DA
:1019600005FA03FC4CEA040491F803C0BCF1280F0B
:1019700006D14FF0010C0CFA00FCC2F814C00AE0CA
:1019800091F803C0BCF1480F05D14FF0010C0CFADF
:1019900000FCC2F810C0401C0828D1D31460B1F874
:1019A00000C0BCF1FF0F34DD546800202EE000F1D0
:1019B000080C4FF0010808FA0CF3B1F800C00CEA6B
:1019C00003069E4221D183004FF00F0C0CFA03F75F
:1019D000BC4305FA03FC4CEA040491F803C0BCF1D3
:1019E000280F05D100F1080C08FA0CF8C2F8148091
:1019F00091F803C0BCF1480F07D100F1080C4FF07B
:101A0000010808FA0CF8C2F81080401C0828CED350
:101A10005460BDE8F0810000F0B50A4600230024C0
:101A20000021002500F00046B6F1004F02D11D4E06
:101A3000F16901E01B4E7168C0F3034583B200F405
:101A40004016B6F5401F08D121F07061154E76683A
:101A500026F07066134F7E6012E000F48016B6F533
:101A6000801F06D1032606FA05F4A14341F07061F8
:101A700006E0460D360103FA06F6B14341F0706107
:101A800022B1460D360103FA06F6314300F0004656
:101A9000B6F1004F02D1034EF16101E0014E7160D9
:101AA000F0BD0000000001400246002093680B409A
:101AB0000BB1012000E000207047416170470161D7
:101AC00070470AB1016100E04161704710B50446FA
:101AD000204602F085FE04464FF4C87240F2B6314B
:101AE000204629F087FD10BD01F0C2FC00BFFEE7D3
:101AF00008B54FF48070ADF8000014208DF8030095
:101B000003208DF8020069460B48FFF7F9FE4FF4F9
:101B10000040ADF8000014208DF8030003208DF87C
:101B2000020069460548FFF7EBFE4FF40041034809
:101B3000FFF7C3FF08BD000000180140001401407A
:101B400010B54FF480710D48FFF7B7FF00F0E3F8D0
:101B50000122D1030A48FFF7B4FF00F0DCF84FF48C
:101B600080710648FFF7ABFF00F0D5F84FF48071A5
:101B70000248FFF7A2FF00F0CEF810BD00180140A8
:101B80000014014070B50446082522E04FF480712E
:101B90001548FFF792FF00F0BEF804F0800020B176
:101BA0000122D1031148FFF78CFF04F0800028B90F
:101BB00000224FF400410D48FFF783FF6006040E3A
:101BC00000F0A9F84FF480710748FFF778FF00F0A4
:101BD000A2F8281EA5F10101CDB2D7D14FF4807132
:101BE0000148FFF76AFF70BD001801400014014072
:101BF00010B50122D1030D48FFF763FF4FF4807148
:101C00000B48FFF75CFF00F086F800224FF400411C
:101C10000648FFF756FF00F07EF84FF48071044845
:101C2000FFF74BFF00F077F810BD000000140140F3
:101C30000018014010B54FF480710E48FFF73DFFCA
:101C400000F069F800224FF400410B48FFF739FF1C
:101C500000F061F84FF480710648FFF730FF00F0A4
:101C60005AF80122D1030448FFF72BFF00F053F884
:101C700010BD0000001801400014014010B54FF4E1
:101C800080711348FFF719FF00F045F80122D103D6
:101C90001048FFF716FF00F03EF84FF480710C4833
:101CA000FFF70DFF00F037F80B48006800F40070F4
:101CB00038B101200949086009480068401C0849FA
:101CC00008604FF480710248FFF7F7FE10BD000076
:101CD0000018014000140140080C0140E4030020FA
:101CE000E803002070B504460D461646FFF780FF56
:101CF00004F0FE00FFF746FFFFF7C0FF2846FFF79E
:101D000041FFFFF7BBFF3046FFF73CFFFFF718FF2F
:101D1000FFF790FF70BD0B2001E0411E48B2002884
:101D2000FBDC704710B50021014800F0B6FE10BD85
:101D30007CA400202DE9F04F89B081460E464FF07B
:101D4000000B00F0E9FAF64909680844F449086014
:101D500000F0F0FAF34909680844F2490860F248D3
:101D60000078401CF049087008460078B04203DA59
:101D7000002009B0BDE8F08F0020EB490870E94869
:101D80000068B0FBF6F0E7490860E5480068B0FB82
:101D9000F6F0E349086000F0B7FA0546E34800684A
:101DA0000078072803D1DF480088E1490880002D2A
:101DB00006DBB5F5C87F1CDD40F2DC50854218DA41
:101DC000002000F05FFB40F2DC50854205D1D9A035
:101DD0000FF07EF84FF0030B05E02946DAA00FF074
:101DE00077F84FF0040B0020DE490880DE490870C8
:101DF00063E0DD480078032822D0CA4800686428E0
:101E00001ED2DA4800884FF6F071884218DAD748B7
:101E10000088401CD549088008460088B0F57A7FC4
:101E20004BDD4FF6F17008800220CF49087000208A
:101E3000CC49088000F026FBCDA00FF049F83CE02B
:101E4000C9480078032838D0B6480068FEF7B8FBC8
:101E500007460022CC4BFEF723FC2ED20320C249BA
:101E600008700024BF480480002000F00BFBAF483E
:101E700000680078062804D1AA480168C3A00FF0C2
:101E800027F800F0EDF94FF40050ADF820001020D5
:101E90008DF8230003208DF8220008A9C348FFF71E
:101EA0002FFDC2480C30006820F40050BF490C31AF
:101EB00008600020BE49088000BF00F0EEFA10B9AB
:101EC0000020A8490880A8480078002872D001287E
:101ED00004D0022871D003286ED1A2E09048006897
:101EE00044F26E11884227D990480068007806288D
:101EF00002D1B0A00EF0ECFF9A48B0F90000012822
:101F000004DD9848B0F90000401E00E0002000B257
:101F1000944908800846B0F900404FF0020B9348FE
:101F200000884FF6FF7188423ED100208F4908801B
:101F3000A4A00EF0CDFF37E0A848A94B0090794847
:101F4000008802B20FFA89F1A64800F095F9C8217D
:101F500090FBF1F473480088A34908807F34FF2C7C
:101F600000DDFF24002C00DA00247E48B0F90000D8
:101F7000201A022807DD7B48B0F90000841CFF2CE2
:101F80000FDDFF240DE07748B0F90000201A10F1B2
:101F9000020F06DA7348B0F90000841E002C00DA44
:101FA000002420B26F49088090490C70A0B200F064
:101FB00069FA77E068E000E073E08D4800884FF64A
:101FC000FF71884203D100208949088022E08848B7
:101FD0000088401C864908800846008841F27071DC
:101FE000884217DD0020824908804D480068B0F51E
:101FF0007A5F0FD24FF6FF7008805C49088001209D
:1020000059490870494800680078062802D179A02B
:102010000EF05EFF002053490880044600F032FABB
:1020200040E000204F49088004466148018800884C
:10203000401C5F4A108032291FDD002011460880B5
:1020400001204949087000F0D5F938480068007847
:10205000062803D16DA00EF03BFF0EE03348006868
:102060000078072809D16F4801780078401C6D4A34
:102070001070022901DD4FF0050B00F071F910B16D
:10208000002000F0FFF90DE0052D02DCB5F5B47F6E
:1020900002DA0120344908700024204600F0F2F9E9
:1020A00000BF00BF00BF6048007805282BDD00207E
:1020B0005D4908701D4800680078062828D12DF079
:1020C000C1FC00F04DF9824618490968D1F80002B8
:1020D000FEF7BBFACDE90601234801783348083002
:1020E0000068C0F34030214A12882B468DE8100C5E
:1020F000CDE9032005910B480268094801684BA00F
:102100000EF0E6FE04E048480078401C464908709E
:1021100000200349086003490860584629E600008A
:1021200084020020800200207E0200201000002097
:1021300002040020496E76616C6964204261747407
:102140006572790D0A00000054656D7065726174E6
:10215000757265206F766572206C696D69742025D3
:10216000640D0A00E80100207802002088020020A7
:102170004C6942617420436861726765206F7665BF
:1021800072210D0A00000000007087405E5E5E5EF6
:102190005E4C425F4348535F4552524F522D2D25AE
:1021A000645E5E5E5E5E5E0D0A0000000018014027
:1021B0008E020020766F6C74206F7665726C6F6192
:1021C000640D0A004C69426174204375746543755F
:1021D0007272656E74210D0A00000000EA01002091
:1021E00020770020047700207C0200207A02002063
:1021F0008A0200204C6942617420436861726765FD
:102200002072657374617274210D0A0072657475B1
:10221000726E20746F206368617267652E2E2E0DBA
:102220000A000000790200208C020020766F6C7496
:102230003D25642C6375723D25642C746D703D25BD
:10224000642C70776D3D25642D25642825642C252C
:10225000642C25642C25642925660D0A00000000E5
:1022600000B54FF47A7003490880012000F014F99A
:1022700000BD00003C2C01402DE9F04104460E4613
:10228000069D00202680B4F808C0A4F80AC0218169
:10229000B4F808C0B4F80A80ACEB080C0FFA8CF75D
:1022A000B4F800C0ACEB020C0FFA8CF16D1C95F881
:1022B00000C00CF00F0C85F800C0B4F80CC095F805
:1022C000008033F81880ACEB080C0FFA8CFCA4F8F3
:1022D0000CC0B4F80CC08C440FFA8CFCA4F80CC0F1
:1022E00095F800C023F81C10B4F902C00CFB0100E3
:1022F000B4F904C0B4F90C800CFB0800B4F906C0B2
:102300000CFB0700BDE8F08110B50249C88AFFF751
:10231000DDFB10BD58A400200548808B40F2273219
:1023200050432D305B2290FBF2F188B270470000E1
:1023300058A400200948C18B01EBC10000EB01103B
:102340000F301F2290FBF2F0A0F10C01002901DAFE
:10235000002000E00846014688B2704758A40020DB
:1023600003480088C0F57A70C0F38F007047000002
:102370003C2C014010B5002000F08EF800F03AF837
:1023800000F002F810BD000010B520211248FDF742
:1023900016FF20211148FDF712FF114800210160AE
:1023A0001048016001200F4948800C2088801020CF
:1023B000C88000200C4908704FF4AF70084948806D
:1023C000002088803220C880002008490880012031
:1023D0000749087010BD00002077002040770020DA
:1023E0000477002012770020EA010020E801002095
:1023F0007802002000B585B0012140F6410000F0D0
:1024000077F901211C48FFF707FB1C48006820F4FE
:1024100000501A4908604814ADF8100018208DF8D3
:10242000130003208DF8120004A914480C38FFF79C
:1024300067FA1248006820F40050104908606020D4
:10244000ADF800000120ADF802000020ADF8080052
:102450004FF47A70ADF806006946094800F010FFA5
:102460000821074800F05CFF4FF47A7004493C31C2
:10247000088005B000BD0000C00016000C18014027
:10248000002C01404FF47A71A1EB8001014A1180C8
:10249000704700003C2C014070470120704700BF8E
:1024A000FEE7704708B54FF4E06000F0B3F836205F
:1024B0008DF8000003208DF801008DF80200012046
:1024C0008DF80300684600F06DF837208DF80000A5
:1024D00003208DF8010004208DF8020001208DF802
:1024E0000300684600F05EF825208DF80000022009
:1024F0008DF801008DF8020001208DF80300684678
:1025000000F050F834208DF8000002208DF8010012
:1025100003208DF8020001208DF80300684600F0CA
:1025200041F84FF4A06000F075F808208DF8000025
:1025300000208DF801008DF8020001208DF80300C5
:10254000684600F02FF80A208DF8000001208DF871
:1025500001008DF802008DF80300684600F022F8B3
:1025600028208DF8000004208DF801008DF802006D
:1025700001208DF80300684600F014F84FF4C060A5
:1025800000F048F826208DF8000003208DF80100A7
:102590008DF8020001208DF80300684600F002F873
:1025A00008BD000070B5002100230F22C47804B3D9
:1025B000154C246804F4E064C4F5E064210AC1F118
:1025C0000403CA40447804FA03F184781440214398
:1025D00009010E4C0678A155047804F01F0501246A
:1025E000AC4005786D11AD0005F1E025C5F800415E
:1025F00009E0047804F01F050124AC40044D06787E
:10260000761145F8264070BD0CED00E000E400E0D6
:1026100080E100E002490143024A11607047000076
:102620000000FA050CED00E0014908627047000067
:1026300000000E4210B500F08BF8FFF733FFFEF7F5
:10264000A1FFFFF77BF828F0DFF80DF0CBFF00F0DB
:1026500099F910BD0B4909680B4A126891420FD0D5
:1026600008490A6809498A4202D38739054A116034
:1026700004490968087803490968491C014A11603E
:10268000704700005404002050040020B7AF002021
:1026900029B1064A52690243044B5A6104E0034AD5
:1026A00052698243014B5A6170470000001002409A
:1026B00029B1064AD2690243044BDA6104E0034AB5
:1026C000D2698243014BDA6170470000001002407A
:1026D00029B1064A12690243044B1A6104E0034A15
:1026E00012698243014B1A617047000000100240DA
:1026F00029B1064A92690243044B9A6104E0034AF5
:1027000092698243014B9A617047000000100240B9
:1027100029B1064AD2680243044BDA6004E0034A56
:10272000D2688243014BDA6070470000001002401B
:102730000149086070470000400442420348406A73
:1027400040F080700149486270470000001002406C
:1027500010B500F00DFB012146F67D20FFF7C8FF04
:1027600001210848FFF7A4FF01210846FFF7C0FF39
:1027700001210846FFF78CFF0121034800F07DFB93
:1027800010BD00000F000A000004004030B5002119
:102790000022002400232D4D6D6805F00C0121B1AD
:1027A000042905D0082923D105E0294D056022E040
:1027B000274D05601FE0254D6D6805F47012234D0F
:1027C0006D6805F48034022505EB92421CB9214D59
:1027D000554305600BE01D4D6D6805F400351DB1D6
:1027E0001C4D5543056002E0194D5543056002E05C
:1027F000174D056000BF00BF144D6D6805F0F00176
:102800000909154D6B5C0568DD4045600F4D6D682D
:1028100005F4E061090A104D6B5C4568DD40856098
:102820000A4D6D6805F46051C90A0B4D6B5C456833
:10283000DD40C560054D6D6805F44041890B074DCD
:102840006B5CC568B5FBF3F5056130BD0010024057
:1028500000127A0000093D0002030020120300204C
:1028600010B501460022002300204A11012A02D19E
:10287000094C236806E0022A02D1074C236A01E0D2
:10288000054C636A01F01F02012494401C400CB106
:10289000012000E0002010BD0010024000210B4A82
:1028A00011700A4A203A82F82010012802D0042828
:1028B00008D103E00121054A117004E00521034A13
:1028C000117000E000BF00BF704700002010024000
:1028D00001490860704700003C0442420249096A0D
:1028E0000143014A116270470010024010B50420F4
:1028F000FEF75CFB4AF2A55188420AD00DA00EF00B
:10290000E7FA00F043F84AF2A5510420FEF75CFB19
:102910000FE07B20FFF7A4FF10B97A20FFF7A0FF9C
:10292000FFF70CFF0120FFF7D3FF00F077F800F06E
:102930006BF810BD72746320706F776572206C6FD6
:1029400073740D0A000000000348008840F0100076
:1029500001490880704700000428004003480088AF
:102960004FF6EF7108400149088070470428004085
:10297000002103480188001F008841EA0040704799
:102980001C28004010B5FFF7B1FF10BD10B50121A4
:102990004FF0C050FFF78CFE0120FFF745FEFEF719
:1029A000FCFA0120FFF77AFF00BF4120FFF758FF34
:1029B0000028FAD04FF48070FFF790FF0120FFF756
:1029C00087FF00F02BF800F01FF847F6FF7000F0CB
:1029D0000BF800F019F80120FFF77AFF00F01EF85D
:1029E00000F012F810BD000000B50246FFF7ACFF82
:1029F000C2F3034003490880091D0A80FFF7AEFFB8
:102A000000BD00000828004000BF0348008800F017
:102A100020000028F9D070470428004007480088AB
:102A20004FF6F77108400549088000BF0348008849
:102A300000F008000028F9D070470000042800408A
:102A400000B50246104600F053F851681368C91AE1
:102A50004318104600F04CF893FBF0F100FB1130E6
:102A600000BD00B5024610685168884202D14FF09F
:102A7000FF3000BD116802F10C00435C104600F00D
:102A800037F81168491C884202D10020106002E02A
:102A90001068401C10601846EBE70022026042609C
:102AA0008260C0F80C12704770B504460D46164699
:102AB0006068401C2168884202D10020206060606C
:102AC000616804F10C004554204600F011F861687B
:102AD000491C884202D10020606002E06068401C0E
:102AE0006060D4F80C0210B1D4F80C02804770BDBD
:102AF00001464FF4007070472DE9F041054600266D
:102B0000B04636E002211E48FEF7D9FF05F08000EE
:102B100020B110211B48FEF7D2FF03E01021194815
:102B2000FEF7CBFF6806050E002400E0641C022CB3
:102B3000FCDB02211248FEF7C0FF002400E0641C09
:102B4000022CFCDB08210F48FEF7AEFF074670069B
:102B5000060E0FB1701CC6B202210948FEF7AFFF86
:102B6000002400E0641C142CFCDB08F1010000F0E0
:102B7000FF08B8F1080FC5DB3046BDE8F081000062
:102B800000180140000C0140704710B500F002F839
:102B900010BD00000CB50020019000903348006883
:102BA00040F480303149086000BF3048006800F4CC
:102BB000003000900198401C0190009818B90198CD
:102BC000B0F5A06FF1D12948006800F4003010B1D1
:102BD0000120009001E0002000900098012843D1DE
:102BE0002348006840F0100021490860084600684A
:102BF00020F0030008600846006840F0020008600A
:102C00001A484068194948600846406848600846C4
:102C1000406840F4806048600846406820F47C10BA
:102C200048600846406840F4E8104860084600687C
:102C300040F08070086000BF0C48006800F0007031
:102C40000028F9D00948406820F00300074948608F
:102C50000846406840F00200486000BF03484068F2
:102C600000F00C000828F9D10CBD00000010024053
:102C70000020024010B51D480068401C1B49086038
:102C80001B480068401C1A4908601A4801880088DF
:102C9000401C184A10804EF6602081420CDD002056
:102CA0001146088014480088401C134908801348C6
:102CB0000088401C11490880114801780078401CA8
:102CC0000F4A107009290FDD0020114608700D49C8
:102CD0000968B1F8160108F055FF0446094909686A
:102CE000087821461FF0E2FB10BD0000A40300207D
:102CF000A8030020080000200A0000200C0000208B
:102D0000AC0300201000002030B500BF154800685B
:102D10004FF47A72B0FBF2F1B1F1807F01D3012060
:102D20001DE021F07F40401E4FF0E022506150171F
:102D30000F22002807DA13071D0E0B4B00F00F04BB
:102D4000241F1D5503E013071C0E084B1C5400BF25
:102D500000204FF0E0229061072010610020002841
:102D6000D4D130BD1803002018ED00E000E400E0ED
:102D700010B51348006840F001001149086008468A
:102D80004068104908400E494860084600680E49EE
:102D900008400B4908600846006820F4802008605D
:102DA0000846406820F4FE0048604FF41F00886029
:102DB000FFF7EBFE4FF000600449086010BD000013
:102DC000001002400000FFF8FFFFF6FE08ED00E0F3
:102DD00010B58021014800F06BF810BD002C0140B7
:102DE00070470000024800880020014908807047B1
:102DF000102C0140704770477047000010B501214A
:102E00000B4800F067F988B1002009498884094817
:102E10000068D0F8D40142F21071084405490968ED
:102E2000C1F8D4010121024800F042F810BD0000B1
:102E3000001000401000002010B50121094800F0EA
:102E400049F968B100200749243108800648006824
:102E500000F58030044908600121024800F028F89C
:102E600010BD0000001400404C000020002001496B
:102E70000880704724340140704721B1028842F035
:102E80008002028004E002884FF67F731A400280BD
:102E9000704730B5002301248C40A3B2048C9C43BE
:102EA0000484048C02FA01F5ADB22C43048430BDD5
:102EB000CA430282704721B1028842F001020280B7
:102EC00004E002884FF6FE731A400280704731B169
:102ED000B0F8442042F40042A0F8442005E0B0F8E5
:102EE0004420C2F30E02A0F84420704710B50446F7
:102EF0006848844208D10121C014FFF709FC002171
:102F0000E014FFF705FCC4E0B4F1804F08D10121C3
:102F10000846FFF7DDFB00210120FFF7D9FBB8E0F1
:102F20005D48844208D101210220FFF7D1FB002136
:102F30000220FFF7CDFBACE05848844208D10121C4
:102F40000420FFF7C5FB00210420FFF7C1FBA0E030
:102F50005348844208D101210820FFF7B9FB002122
:102F60000820FFF7B5FB94E04E48844208D10121C8
:102F70001020FFF7ADFB00211020FFF7A9FB88E030
:102F80004948844208D101212020FFF7A1FB0021FC
:102F90002020FFF79DFB7CE04448844208D10121BA
:102FA0004014FFF7B5FB00216014FFF7B1FB70E0A0
:102FB0003F48844209D10121C804FFF7A9FB002141
:102FC0004FF40020FFF7A4FB63E03A48844209D1A4
:102FD00001210805FFF79CFB00214FF48010FFF74B
:102FE00097FB56E03448844209D101214805FFF798
:102FF0008FFB00214FF40010FFF78AFB49E02F48B8
:10300000844208D101214020FFF762FB00214020CB
:10301000FFF75EFB3DE02A48844208D10121802071
:10302000FFF756FB00218020FFF752FB31E02548D7
:10303000844208D101218015FFF74AFB0021A01529
:10304000FFF746FB25E02048844209D1012108040E
:10305000FFF75EFB00214FF48030FFF759FB18E0CB
:103060001A48844209D101214804FFF751FB00218D
:103070004FF40030FFF74CFB0BE01548844208D1B9
:1030800001218804FFF744FB00214FF48020FFF763
:103090003FFB10BD002C0140000400400008004030
:1030A000000C0040001000400014004000340140BB
:1030B000004C014000500140005401400018004005
:1030C000001C00400020004000400140004401403E
:1030D0000048014030B50246002000230024158A34
:1030E00005EA0103958905EA010413B10CB1012039
:1030F00000E0002030BD1AB183890B43838102E0D8
:1031000083898B438381704701894FF6F8721140A0
:103110000181704770B5002400220023058C4FF612
:10312000FE7635400584028C8388048B4FF68F75BC
:103130002C40B51E2C400D882C43751E2A400D894D
:103140002A434D882A43144DA8420BD0134DA84260
:1031500008D0134DA84205D0124DA84202D0124DFE
:10316000A84213D14FF6F7752A404D892A434FF6EE
:10317000FB752A408D882A434FF6FF652B404FF69A
:10318000FF552B408D892B43CD892B4383800483AE
:10319000CD888586028470BD002C0140003401403A
:1031A0000040014000440140004801400A4600211F
:1031B000018B4FF6F77319401143018370470000EC
:1031C00070B5002400220023058C4FF6EF763540C1
:1031D0000584028C8388048B48F6FF752C404FF6DB
:1031E000FF452C400D884FF6FF7606EA05252C4357
:1031F0004FF6DF752A400D8906EA05152A434D88EA
:1032000006EA05152A43154DA84202D0144DA842DE
:103210001DD14FF67F752A404D894FF6FF7606EA9D
:1032200005152A434FF6BF752A408D8806EA051515
:103230002A434FF6FF352B404FF2FF752B408D8907
:1032400006EA85052B43CD8906EA85052B43838055
:103250000483CD880587028470BD0000002C0140E6
:10326000003401400A460021018B4FF2FF731940E0
:103270004FF6FF7303EA02231943018370470000EE
:1032800070B5002400220023058C4FF6FF66354000
:103290000584028C8388848B4FF68F752C404FF603
:1032A000FC752C400D882C434FF6FF552A400D89A4
:1032B0004FF6FF7606EA05252A434D8806EA0525DE
:1032C0002A43154DA84202D0144DA8421DD14FF2F9
:1032D000FF752A404D894FF6FF7606EA05252A43F9
:1032E0004FF6FF352A408D8806EA05252A434EF61B
:1032F000FF752B404DF6FF752B408D8906EA0515AD
:103300002B43CD8906EA05152B4383808483CD8822
:103310008587028470BD0000002C0140003401400C
:103320000A460021818B4FF6F773194011438183C0
:103330007047000070B5002200230024058C4EF673
:10334000FF7635400584038C8488828B48F6FF75B0
:103350002A404FF6FF452A400D884FF6FF7606EAD1
:1033600005252A434DF6FF752B400D8906EA0535E4
:103370002B434D8806EA05352B430B4DA84202D05E
:103380000A4DA84208D14BF6FF752C408D894FF6A7
:10339000FF7606EA85152C4384808283CD88A0F8C9
:1033A0004050038470BD0000002C014000340140F7
:1033B0000A460021818B4FF2FF7319404FF6FF73CD
:1033C00003EA022319438183704700000022028828
:1033D0001D4B98420ED01D4B98420BD0B0F1804F40
:1033E00008D01B4B984205D01A4B984202D01A4B7A
:1033F000984204D14FF68F731A404B881A43174BEB
:10340000984207D0164B984204D04FF6FF431A401B
:10341000CB881A4302808B8883850B8803850A4BEF
:1034200098420BD0094B984208D00E4B984205D0D9
:103430000D4B984202D00D4B984201D10B7A038676
:103440000123838270470000002C014000340140BA
:103450000004004000080040000C00400010004044
:103460000014004000400140004401400048014079
:10347000012080F3138800BF02480349086000BFA1
:10348000FEE700000400FA050CED00E073B5054608
:1034900001A8FDF7C5F90446606900F26C7060612F
:1034A0002C2221462846FCF771FE7CBD30B58BB03E
:1034B0000446FFF75DFA054629466846FFF7E6FF32
:1034C0002C2269462046FCF761FE0BB030BD00009F
:1034D00010B5012240F22771014800F0BBF810BD81
:1034E000004400400148008870470000004C004044
:1034F0002DE9F0411C48058805F0800040B100220C
:1035000040F22771184800F0A5F80026761C761CBA
:1035100005F0200028B3154C1348001D0088C7B2E1
:103520002046FFF78DFA00F101082046FFF7E0FA88
:10353000804504D1A068401CA060BDE8F0816168AE
:1035400004F10C0047542046FFF7D2FA6168491C89
:10355000884202D10020606002E06068401C606028
:1035600000BF00BFE9E70000003801407CA4002054
:1035700070B540F227711A4800F042F8012820D1B6
:10358000184C20686168884214D0216804F10C004E
:10359000405C1349091D08802046FFF7A9FA2168FD
:1035A000491C884202D10020206009E02068401CAC
:1035B000206005E0002240F22771094800F04AF837
:1035C00000BF40F22551064800F01AF8012806D144
:1035D000034800F0F7F8C5B228462AF073FB70BD27
:1035E00000440040BCA6002021B1828942F4005270
:1035F000828104E082894DF6FF731A408281704710
:1036000070B50246002400230025002040F66A160B
:10361000B14200D100BFC1F3421501F01F030126E2
:1036200006FA03F3012D02D19689334006E0022DFC
:1036300002D1168A334001E0968A33400C120126EB
:1036400006FA04F41688344013B10CB1012000E0EE
:10365000002070BDF0B503460024002600250020A0
:1036600040F66A17B94200D100BF1846C1F34214B0
:1036700001F01F06012707FA06F5012C01D10C30D5
:1036800004E0022C01D1103000E014301AB10768B8
:103690002F43076002E00768AF430760F0BD0000FA
:1036A0002DE9F04786B005460E460024A24600BF2D
:1036B000A1460027B08900B100BF2F462C8A4CF6E6
:1036C000FF700440F08804432C82AC894EF6F3105E
:1036D0000440B08831890843718908430443AC81B0
:1036E000AC8A4FF6FF400440B0890443AC8201A885
:1036F000FFF74CF81F48874202D1DDF810A001E027
:10370000DDF80CA0A88900F4004040B10AEBCA0023
:1037100000EB0A1031684900B0FBF1F807E00AEB52
:10372000CA0000EB0A1031688900B0FBF1F8642090
:10373000B8FBF0F004012009642101FB1089A8897D
:1037400000F4004040B1322000EBC900B0FBF1F0C2
:1037500000F00700044308E0322000EB0910642168
:10376000B0FBF1F000F00F0004432C8106B0BDE87F
:10377000F087000000380140054A1080002101E078
:103780004A1C91B240F27A329142F9DB7047000054
:103790000438014070B504460DE02178084800F077
:1037A00016F8002501E0681C85B240F27A308542A7
:1037B000F9DB641C00BF20780028EED170BD00004A
:1037C0000038014001468888C0F308007047C1F303
:1037D000080282807047704700BFFEE770B50A4A52
:1037E00012685168094A1268526C1068FCF751FD62
:1037F000044606490968C96B0868FCF7D3FE05460C
:103800002146FCF740FD70BD6404002078040020D0
:1038100070B50A4A12689168094A1268526C1068B9
:10382000FCF737FD044606490968096C0868FCF78F
:10383000B9FE05462146FCF7D4FC70BD64040020A7
:10384000780400200FB4084B10B504A902AA03980D
:1038500000F02AFC044602A9002000F0BCFF20462C
:1038600010BC5DF814FB0000D747000837B51446BC
:103870000846064B6A46214600F016FC0446694697
:10388000002000F0A8FF20463EBD0000D7470008FA
:10389000490050EAC12018BF04204A0D18BF40F06B
:1038A000010040F2FF72B2EB515F08BF40F002002E
:1038B000012808BF052070472DE9F74F144694B042
:1038C0000021C4E902111599079121F00045C94969
:1038D0008D4206DC1599C4E9000117B00020BDE84F
:1038E000F08FC549DFF814A3A9423CDD0799C44E07
:1038F0000029C44FC44A1599534619DDFCF7DAFD77
:10390000554506D0C14AC24BFCF7D4FDC4E90001BD
:103910000AE04FF0D352BE4BFCF7CCFD32463B469B
:10392000FCF7C8FDC4E9000117B00120BDE8F08F25
:10393000FCF71FFD554506D0B44AB54BFCF719FD01
:10394000C4E900010AE04FF0D352B14BFCF711FD7E
:1039500032463B46FCF70DFDC4E9000117B04FF0BD
:10396000FF30BDE8F08FAB49A942159978DB21F013
:10397000004183468846A84AA84BFCF7A1FD0022D7
:10398000A74BFCF7F6FCFCF741FE0990FDF7D9F8D0
:1039900006460F469C4A5346FCF792FD43465A465C
:1039A000FCF78BFD80468A46984A994B304639464B
:1039B000FCF786FD2A0D01250B9242465346FCF783
:1039C0007CFD032DC4E9000139D00B98C1F30A51E5
:1039D000401A05EB45111139814230DA9148C3464E
:1039E000784400EB0510CDF80CA00C90D0E9002332
:1039F00030463946FCF764FD02460B4604910690BA
:103A000058460399FCF756FD80468A4602460B4607
:103A100058460399FCF74EFD049B069AFCF74AFDB5
:103A200083460C9803913946D0E902233046FCF7CF
:103A300047FD5A46039BFCF73DFD6D1CBDE707980B
:103A40000028A2BF099817B0BDE8F08F616881F027
:103A500000416160099817B04042BDE8F08FFFE770
:103A600084461598C1F31301C0F30A50A0F2F53053
:103A70004FEA601800F01F06C6F1200013900020E6
:103A80000690079041F4801E05206D4676B1664A87
:103A900008EB00017A4452F8213002EB8101B34077
:103AA0004A68139922FA01F1194305E05F4908EBCE
:103AB0000002794451F82210A1FB0E27A1FB0C1340
:103AC0001A449A4234BF0123002303EB070A05EB93
:103AD0008003D3E901B70F448F4234BF0121002195
:103AE00093448B4411B1934502D903E0934501D22D
:103AF000012100E00021C3E901B7514445F820103D
:103B0000011EA0F10100C1DC0298059F00F10050E8
:103B1000800F12900298DDE903568000FDF711F83E
:103B2000834628460D91FCF74BFD6FF01D02FCF714
:103B3000F1FFCDE90E013046FCF742FD6FF03D028A
:103B4000FCF7E8FF80468A463846FCF739FD6FF0FF
:103B50005D02FCF7DFFF0746424653461191FCF732
:103B600008FCDDE90E23FCF704FC5A460D9BFCF72C
:103B700000FC00250E465A4628460D9BFCF79AFC91
:103B8000DDE90E23FCF796FC42465346FCF792FC17
:103B90003A46119BFCF791FCDFF898A0244A534663
:103BA000FCF78EFC07468846234A244B31462846BC
:103BB000FCF786FC3A464346FCF7DBFB07468846A3
:103BC0004FF0A842534631462846FCF779FC3A4666
:103BD0004346FCF7CEFB159A12F0004F04D0129A20
:103BE00081F0004152421292C4E90001129817B0CC
:103BF000BDE8F08FFB21E93F7CD90240FB21F93F72
:103C00007370032E8A19A33B000040543163621A7B
:103C100061B4D03DFB21394183C8C96D305FE43FB9
:103C20000000E03FD4CB020050CB020032CB0200B8
:103C3000182D4454FB21F93D3326A611460B113CA7
:103C40002DE9FF4D21F0004807460C46B8F1795F99
:103C500008DAFCF7DBFC002801BF0020324904B081
:103C6000BDE8F08D3A46234610461946FCF728FC7D
:103C7000054602462D480E460B460621784400F0C4
:103C80005DF82A463346FCF71BFCDDE90223824639
:103C90008B4638462146FCF713FC04460F46524635
:103CA0005B4628463146FCF70BFC22463B46FCF7B8
:103CB00001FC07468A464FF0FF3228463146FCF7A2
:103CC00029FF1B4A90450ADA3A465346FCF7F2FBB5
:103CD00004B00022BDE8F04D134BFCF7EEBB154AD3
:103CE0004245A8BFA8F500154FF00004B8BF124D1B
:103CF00022462B46FCF7DEFB0646884622462B462C
:103D000000200949FCF7D6FB04460D463A465346C7
:103D100030464146FCF7CEFB04B022462B46BDE8B8
:103D2000F04DFCF7CABB00000000F03F08C90200DC
:103D30003333D33F0000E93F0000D23F2DE9F0418B
:103D40004F1E00EBC7010446D1E9000115461E468F
:103D500037F006020DD02A463346FCF7B1FB7F1E32
:103D600004EBC703D3E90023FCF703FB37F006029B
:103D7000F1D1022F25D0042F13D0062F18BFBDE894
:103D8000F0812A463346FCF79BFBD4E90A23FCF773
:103D9000F0FA2A463346FCF793FBD4E90823FCF7F4
:103DA000E8FA2A463346FCF78BFBD4E90623FCF7F6
:103DB000E0FA2A463346FCF783FBD4E90423FCF7F8
:103DC000D8FA2A463346FCF77BFBD4E90223FCF7FA
:103DD000D0FA2A463346FCF773FBD4E90023BDE84A
:103DE000F041FCF7C6BA00002DE9FF4D054621F071
:103DF000004084B00C46B0F1795F0BDA2846FFF73B
:103E000047FD042808BF00F06FF8284608B0214697
:103E1000BDE8F08D2A460B461046FCF751FB0646DE
:103E20000F462A462346FCF74BFB804626488A4627
:103E300032463B4605217844FFF780FF83461098C1
:103E4000029160B3214A224B40465146FCF738FBB1
:103E5000CDE900015A4640465146029BFCF730FB33
:103E600082468846DDE906014FF0FF32FCF752FE3C
:103E700052464346FCF71EFB32463B46FCF720FB0E
:103E8000DDE90623FCF716FBDDE90023FCF712FB56
:103E900008B02A462346BDE8F04DFCF70EBB0B46A2
:103EA0005A4630463946FCF70BFB084A084BFCF7EC
:103EB00060FA42465346FCF703FB08B02A46234605
:103EC000BDE8F04DFCF755BA46C8020049555555B6
:103ED0005555C5BF0122FCF71DBE002213461046F2
:103EE0001146FCF77DBD0000024A00201107FCF7D7
:103EF00011BE000001FDFFFF02E008C8121F08C14B
:103F0000002AFAD170477047002001E001C1121F5A
:103F1000002AFBD17047000001490860704700008B
:103F2000800600202DE9FF5F82B00021DDE904302A
:103F3000020DDDF840B0034318D044F61050A2F251
:103F4000FF3242431514119801281FD0A5EB0B0036
:103F5000401C5FEA000A4FF000064E4FDFF8389130
:103F6000B046504615D5CAF1000413E0119801245B
:103F70004AA3012801D16FEA0B010298119AC0E906
:103F80000031C0E9024206B0BDE8F09FCBF100006D
:103F9000DFE704460021404A491842EB0450CDE9CE
:103FA000001012E0E00707D032463B464046494643
:103FB000FCF786FA8046894632463B46104619464B
:103FC000FCF77EFA06460F466410002CEAD1DDE9C4
:103FD0000401DDE90023BAF1000F06DAFCF770FAFC
:103FE00042464B46FCF76CFA05E0FCF7F9FC42460A
:103FF0004B46FCF7F5FC04460E460022284BFCF726
:104000004FFB03D84FF0FF30014607E00022254B5D
:1040100020463146FCF7ADF9FCF751FD102409E0CC
:10402000002C0ADB0A220023FCF798FB039B3032AA
:104030001A55641E50EA0102F2D1641C039AC4F1BD
:1040400011031444119A012A03D0012208430DD10F
:104050000AE0084304D000204FF0110B119072E7E2
:10406000A3EB0B056D1E0DE05B4504DD4FF0000278
:1040700005F1010504E003DA4FF00002A5F10105A6
:10408000002AECD002981199C0E90231C0E900453C
:1040900079E70000000014400000F03F300000000D
:1040A0000000F0430000E03F2DE9FF4F95B09B4634
:1040B0008946064600250FE2252877D100242746A9
:1040C000F84A0121059400E0044316F8013F203B23
:1040D00001FA03F01042F7D130782A2811D06FF09E
:1040E0002F033078A0F13002092A16D8059A44F03F
:1040F000020402EB820203EB42021044761C05909C
:10410000EFE759F8042B0592002A03DA504244F4F1
:104110000054059044F00204761C30782E2816D105
:1041200016F8010F44F004042A280DD06FF02F0276
:104130003078A0F13003092B09D807EB870302EB95
:104140004303C718761CF3E759F8047B761C3078D4
:104150006C280FD006DC4C2817D068280DD06A28B0
:1041600014D104E0742810D07A280FD10DE044F463
:1041700000140AE044F4801401E044F4401472781E
:10418000824202D104F58014761C761C30786628B1
:104190000BD013DC582877D009DC002875D04528CF
:1041A000F6D04628F4D047281AD19DE118E06328BC
:1041B00035D0642879D0652812D195E1702873D064
:1041C00008DC6728F1D069286FD06E280DD06F28E1
:1041D00006D1B5E073282CD0752875D0782874D016
:1041E0005A46179990476D1C75E1C4F30250022896
:1041F00009D003280DD0D9F8001004280DD00D6087
:1042000009F1040967E1D9F80010EA17C1E9005281
:10421000F6E7D9F800100D80F2E70D70F0E719F815
:10422000041B8DF8001000208DF80100EA460120E3
:1042300003E059F804AB4FF0FF3061074FF0000185
:1042400002D40DE008F101018846B9420FDA804539
:10425000F8DB1AF808100029F4D108E008F1010190
:1042600088468142FADB1AF808100029F6D1059831
:104270005B46A0EB080721463846179A00F094FAEF
:10428000284400EB080507E04DE029E10DE01AF8AD
:10429000010B5A4617999047B8F10108F7D25B46CF
:1042A00021463846179A13E142E00A220092C4F3ED
:1042B00002524FF0000A022A08D059F804CB032A10
:1042C0004FEAEC710AD00DE029E02AE009F107017C
:1042D00021F00702F2E802C1914609E00FFA8CFCD6
:1042E0004FEAEC71042A03D14FFA8CFC4FEAEC71CF
:1042F000002907DA0A460021DCF1000C61EB02011B
:104300002D2202E0220504D52B228DF80420012263
:1043100003E0E20701D02022F7E7904659E00A21A6
:1043200002E010220DE010214FF0000A00910BE096
:1043300010224FF0000A44F004040827009203E022
:1043400008224FF0000A0092C4F30252022A05D05C
:1043500059F804CB0021032A08D009E009F107012C
:1043600021F00702F2E802C1914605E01FFA8CFC39
:10437000042A01D10CF0FF0C4FF00008220728D5C9
:10438000702806D0009B83F0100353EA0A0305D07F
:104390000EE040228DF80420012208E05CEA0102D0
:1043A00006D030228DF804208DF8050002229046B8
:1043B000009B83F0080353EA0A030AD15CEA010276
:1043C00001D1620705D530228DF804204FF0010895
:1043D0007F1E582804D034A003900EA802900DE050
:1043E00036A0F9E753466046009AFCF7B7F98446D1
:1043F0000398825C0298401E029002705CEA010001
:10440000F0D1029806A9081A00F1200A600702D527
:1044100024F4803400E00127574502DDA7EB0A00B1
:1044200000E0002000EB0A01009005984144401A8A
:104430000590E00306D45B462146179A059800F0E4
:10444000B3F90544002706E001A85A46C05D179954
:1044500090476D1C7F1C4745F6DBE0030CD55B469F
:104460002146179A059800F09FF9054404E0302092
:104470005A46179990476D1C0099481E00900029D4
:10448000F5DC08E0029802995A460078491C02912E
:10449000179990476D1CBAF10001AAF1010AF1DCED
:1044A00065E10000092801003031323334353637F8
:1044B0003839616263646566000000003031323370
:1044C0003435363738394142434445460000000010
:1044D00000F058F90544761C307800287FF4ECADE4
:1044E00019B02846BDE8F08F620700D4062709F10D
:1044F000070222F0070CFCE80223E14603F0004823
:104500005FEA080C02D00FF2702C0DE05FEA045C49
:1045100002D50FF2682C07E05FEAC47C02D00FF2EC
:10452000602C01E0AFF2700C4FF0FF3823F0004335
:10453000CDF850C065280CD006DC452809D04628A7
:104540001DD047283DD13DE0662818D067287ED190
:1045500038E00021112F01DB112000E0781CCDE9AB
:10456000000106A90EA8FFF7DDFCDDE90F010E9A98
:1045700003910021009207F1010A04914DE04FF0F0
:1045800000400097CDE9011006A90EA8FFF7CAFC6C
:10459000DDE90F0203920E9B11990022DDF80CA0B9
:1045A0000093049211B9791C00EB010AB7EB0A00E1
:1045B00004D4C0F1FF3007F1010A0490AAEB070010
:1045C000019044E0012F00DA01270021112F01DDC5
:1045D000112000E03846CDE9000106A90EA8FFF73A
:1045E000A1FCDDE90F010E9A0391002104910092D4
:1045F000BA4621070CD40399514500DA8A46BAF12C
:10460000010F05DD009AAAF10101515C302908D0A3
:10461000B84202DA10F1040F06DA0121CDE90110E7
:1046200015E0AAF10101E9E7002805DC049901443D
:104630000491AAEB000102E0411C514500DD8A46CD
:104640000499401A401C01904FF00040029020074E
:1046500004D40198504501DBCDF8048000208DF88A
:104660004F0002980DF14F07B0F1004F25D02B20DD
:104670000E9002984FF0020800280CDA4042029097
:104680002D200E9007E00A210298FCF751F83031F6
:10469000029007F8011DB8F10001A8F10108F2DC51
:1046A00002980028EFD1791E0E980870307800F03B
:1046B000200040F0450007F8020D12A8C01B00F1D1
:1046C00007081498007800B1012000EB0A01019856
:1046D00001EBE07105984144401A401E0590E0034B
:1046E00006D45B462146179A059800F05DF805440C
:1046F0001498007818B15A46179990476D1CE0033A
:1047000024D55B462146179A059800F04DF80544DC
:104710001CE00498002807DBDDE90301884203DD83
:104720000098405C179901E0179930205A4690474D
:10473000049805F10105401C04900198401E019069
:1047400004D12E205A46179990476D1CBAF10001EA
:10475000AAF1010ADDDC05E017F8010B5A461799AA
:1047600090476D1CB8F10001A8F10108F4DC5B462C
:104770002146179A0598ABE62D0000002B0000009B
:10478000200000002DE9F041044600251E46174692
:10479000880404D405E039462020B0476D1C641E0F
:1047A000F9D52846BDE8F0812DE9F0410446002501
:1047B0001E469046C80301D5302700E02027880414
:1047C00004D505E041463846B0476D1C641EF9D556
:1047D0002846BDE8F0810A68531C0B6010707047D2
:1047E000014640F6AC50814201DC962901DA0020F6
:1047F000704740F2DC5001FB00F2C1F58050B2FB83
:10480000F0F290B2F4E710B5FCF7E8F9FCF716FA0D
:1048100010BD00002DE9FC474FF0000900255BA00A
:104820000CF056FB00242FE05C4800EBC40040680D
:1048300040B35A4800EBC400406859490968896B85
:1048400088421FD856480068806B544901EBC40168
:104850004968401AB0F5167F14D2504850F8341009
:104860004846FBF7BEFC81466D1C4C4951F83400AC
:10487000FBF7EBFE07463A460B46214649A000955A
:104880000CF026FB601C04B2042CCDDB042D7BDB7A
:104890002846FBF787FE044621464846FBF72BFDDA
:1048A00081464846FBF7D1FE07463A460B4641A0F3
:1048B0000CF00EFB002642494846FBF725FF04D2C8
:1048C00040494846FBF72AFF09D33F494846FBF7D2
:1048D00025FF04D33D494846FBF716FF05D23CA00F
:1048E0000CF0F6FA0020BDE8FC87002426E02B48F7
:1048F00000EBC4004068F8B1284800EBC4004068F1
:1049000027490968896B884216D825480068806B5A
:10491000224901EBC4014968401AB0F5167F0BD259
:104920001E4951F83400494605F0B9FA07462449B2
:10493000FBF7EAFE00D2761C601C04B2042CD6DB26
:10494000314625A00CF0C4FA042E1DDB1449096879
:10495000D1F800024946FBF744FC0746FBF73DFE51
:104960000FFA80FA32244846FBF76FFE5246CDE933
:10497000000121461AA00CF0ABFA1FFA8AF1224678
:10498000022009F087F900BF0020ACE75B61646A90
:104990005F615F765D3A0D0A0000000060770020DD
:1049A0001000002025642C25332E33662C25640D41
:1049B0000A0000006176723D25332E33660D0A0031
:1049C0000000A0400000A0C00000A0410000A0C165
:1049D00074746572720D0A006B3D25640D0A000047
:1049E00061646A6B3A25642C25642C25332E33666A
:1049F0000D0A000007B5BEB000203C903A903990F7
:104A0000FB480068B0F95E00389001203590002026
:104A100034903390329031903090F5480068B0F97E
:104A20005E001790409905F033FA801C00B22F9079
:104A3000EF48006844F2C44108442E9000201990C9
:104A40001890199008E000211AAA199842F820102D
:104A50001998401C00B2199019981428F3DB002013
:104A60001990E4480068007801283CD0E1480068CB
:104A70000078042837D0DF4800680078022832D058
:104A8000DC480068007803282DD000231A46194618
:104A9000184612F039FC0421D748FDF70EF8012022
:104AA000D449096881F83701D4A00CF011FA4FF409
:104AB0007A70D7490880D649083908800020D5493E
:104AC0000880042005F04EF900204FF080418887CF
:104AD000C8480068007801461790CFA00CF0F8F99C
:104AE000002041B000BD40F28A201AF0B3F8C0485F
:104AF0000068D0F80C03BE490968C1F8140300200F
:104B0000BB4909680867CC498860C86004F0A8FF01
:104B100008F0DCFF002108460CF0EEF900231A46ED
:104B200040F28A21012012F0EFFB3E9800F0800055
:104B300030B13E9800F07F00179009F0E5FF02E0E9
:104B4000002009F0E1FF3E9800F07F003E90012038
:104B5000A74909684870A64BDDE93F212F981B68DB
:104B6000B3F95E30CDE90032CDE90210A04800680B
:104B7000B0F95C0017909E48006800F5804090F8FE
:104B8000C40416900146ADA0179B3E9A0CF0A0F904
:104B90009848006800783B9096480068D0F800027A
:104BA0003790002136A813F00DFCEDE220F056FE00
:104BB000904800684A3007F0CBFB8E4800680178C7
:104BC0003B98814201D000208BE78A48006800783A
:104BD00001283BD0874800680078042836D08548F3
:104BE00000680078022831D08248006800780328E5
:104BF0002CD000231A461946184612F085FB0421D2
:104C00007D48FCF75AFF01207A49096881F837018D
:104C10007AA00CF05DF94FF47A707D4908807C49E8
:104C20000839088000207B490880042005F09AF8A4
:104C300000204FF0804188876E4800680078014668
:104C4000179075A00CF044F900204AE76948006805
:104C5000B0F84A0000F4407020B9359810B134988B
:104C60000F287DDB00231A461946184612F04CFB2C
:104C7000002004F025FD5E480068C06A17905C487B
:104C80000068806A16905A4803685E3302685C3296
:104C9000DDE9160104F0FCFC00231A46194618460B
:104CA00012F032FB53480068D0F800021190FBF775
:104CB000CCFCCDE916014E480068406C1190FBF722
:104CC000C4FCCDE914014A480068006C1190FBF760
:104CD000BCFCCDE91201DDE93410CDE90C01DDE9C0
:104CE0001601CDE90A0143480068B0F85A2041484E
:104CF0000068B0F858003F490968B1F850103D4BC2
:104D00001B68B3F84E30CDE90531CDE907023948CB
:104D10000068B0F84A000490DDE91401CDE9020111
:104D2000DDE91201CDE900014348C0681190304827
:104D30000068B0F95E0010902D480068B0F95C0082
:104D40000F9001464D48DDE910230CF0C1F835986D
:104D500020B134980F2801DA00203390359800E014
:104D60008EE108B908F020FD22480068007C00F0C0
:104D7000040010B1C82004F0F5FF1E480068D0F808
:104D80000002379000201A49096808672A49C8605C
:104D90001998142801DB0020199016480068D0F8F3
:104DA00000221998411C09B219911AA941F8202032
:104DB0001AA8199917F078FDC0B131A00CF088F845
:104DC000002009F0A1FE0020199008E000211AAA95
:104DD000199842F820101998401C00B2199019989F
:104DE0001428F3DB0020199001207AE656E0000039
:104DF0006801002010000020001801404D4F544F62
:104E0000525F504F5745525F4F46460D0A00000013
:104E1000402C014040000040737461282564292023
:104E2000657272322C73746F7020616C6C206D6FC0
:104E3000746F720D0A00000024AE00205B61646A8A
:104E40005F6261636B5F65646765776179735D73EA
:104E500074613D2564282564292C6E6F773D2825D3
:104E6000642C25642C29746F3D2825642C25642C22
:104E7000296469733D25640D0A000000700D030864
:104E8000666F756E6420726F756E642E2E2E676F5E
:104E9000206C696E652E2E2E0D0A0000F848006801
:104EA000B0F95E104098814220D0409938988842ED
:104EB00006DDF3480068B0F95E104098814215DBCA
:104EC00040993898884206DAED480068B0F95E10DB
:104ED000409881420ADCEA480068B0F95E00179009
:104EE000409904F0D5FF2F99884227DBE5480068F8
:104EF000D0F800021590FBF7A8FBCDE916012F9919
:104F00004098CDE90201DDE91601CDE90001DC4858
:104F10000068B0F95E001590D9480068B0F95C00EF
:104F200014900146D8A0159A0BF0D2FF00231A4620
:104F30001946184612F0E8F90120D2E52E980078BB
:104F400010B93E9809F0E0FD359810B134980F285B
:104F500034DBCB48006844F2C44108448068806A6E
:104F60000088C749096844F2C442114489688988A5
:104F7000884223DA3398401C80B23390CCA0DDE91C
:104F8000333235990BF0A4FF359808B908F00CFCC2
:104F90002E980078022806D1CF4A4FF4437104209E
:104FA00023F07AFB27E02E980078012806D1CA4A20
:104FB0004FF44371032023F06FFB1CE02E98007820
:104FC000022806D1C54A4FF44371032023F064FB45
:104FD00010E02E980078012806D1C04A4FF44371A2
:104FE000042023F059FB05E0BDA03E990BF070FFB3
:104FF000002076E500BF0020349000231A461946B1
:10500000184612F081F900209D49096808670120BF
:105010009B490968487040F28A2019F01BFE9948A4
:105020000068D0F8000296490968C1F8140300200E
:1050300004F016FD00231A4640F28A21012012F0E6
:1050400063F90020AD498860C860002108460BF074
:1050500053FF002032908A49096844F2C442114447
:10506000896808830120359085480068B0F95C00A4
:10507000319083480068B0F95E00309000201890AD
:105080009F48008841F2883188427DDB00209C499E
:1050900008802AF0D7FC7A480068D0F81403002171
:1050A000179006F075FA76490968C1F81403744838
:1050B0000068D0F8140317901DF02CFA05217048F1
:1050C000006800F5457015F09BFC2E980078C0B97B
:1050D0006C480068B0F85A008A490968898C88428F
:1050E00003DB022009F010FD0BE066480068B0F811
:1050F0004E0084490968498B884202DB012009F08F
:1051000003FD5F48006844F2C44108448068806A37
:1051100000885B49096844F2C4421144896889885F
:10512000884205DD57480068D0F80002379050E00B
:1051300054480068D0F8000201461690379804F0F1
:10514000C1FE71491790FBF7E9FA42D23798FBF795
:105150007CFACDE916014B480068D0F800021390A4
:10516000FBF773FACDE91401DDE91601CDE902017F
:10517000DDE91401CDE9000141480068B0F95E00A5
:1051800013903F48006800E078E0B0F95C001290AE
:1051900001465EA0139A0BF09BFE00231A461946A7
:1051A000184612F0B1F8002004F08AFA344800687A
:1051B000C06A179032480068806A169030480368C9
:1051C0005E3302685C32DDE9160104F061FA00200A
:1051D00087E43C98411C3C9128284FDB00203C9000
:1051E00004F06EFA359026480068C06A179024488B
:1051F0000068806A1690224803685E3302685C3259
:10520000DDE9160104F044FA1D480068B0F95C10AD
:105210003198814229D01A480068B0F95E10309860
:10522000814222D0012217493E980968D1F8001224
:10523000CDE90012029012480068B0F95E001790A4
:105240000F480068B0F95C0016900246179BDDE934
:10525000301000F0ADFB0A480068B0F95C003190F6
:1052600007480068B0F95E0030901898411C09B2F8
:1052700018911E286CDB0020199060E04DE10000C1
:1052800068010020100000207879206F6B282564C9
:105290002C25642C25332E3166292C746F793D25FD
:1052A000642C646973745F74793D25640D0A000091
:1052B0006C6F7374206F722063616C63206572720F
:1052C0006F722825642C2564292C63726F756E64B7
:1052D0003D25640D0A0000000000F041000040413F
:1052E0005245545F4E4541525F4552524F522C6ECB
:1052F0007374613D25640D0A0000000024AE002097
:10530000240C00402C000020000034436C6F7374A8
:10531000206F7665722825642C25642C25332E3168
:10532000662C25332E3166290D0A000000211AAAA9
:10533000199842F820101998401C00B21990199839
:105340001428F3DB00201990189075A00BF0C0FD15
:1053500076480068B0F84E0075490968498B884264
:1053600008DC72480068B0F85A0071490968898CF5
:10537000884202DD3298401C32903298142812DBA9
:105380006C480068008800B217906B48006800887D
:1053900000B21690179904F07BFD642803DA01210E
:1053A00000200BF0A9FD002032906448006844F210
:1053B000C44108448068806A00886049096844F2F2
:1053C000C442114489688988884202DD00203390F4
:1053D00006E02E98007818B13498401C00B2349042
:1053E00056480068B0F95C103A98814206D153489B
:1053F0000068B0F95E10399881423DD04F4800688E
:10540000406C1190FBF721F9CDE916014B4800687B
:10541000006C1190FBF719F9CDE9140143480068BD
:10542000D0F800021190FBF710F9CDE91201DDE987
:105430001601CDE90401DDE91401CDE90201DDE940
:105440001201CDE900013D480068B0F95E001190FD
:105450003A480068B0F95C001090014638A0119AF3
:105460000BF036FD35480068B0F95C003A903348DF
:105470000068B0F95E00399030480068B0F95E10FD
:105480004098814220D040993898884206DD2B48C8
:105490000068B0F95E104098814215DB4099389859
:1054A000884206DA25480068B0F95E1040988142CB
:1054B0000ADC22480068B0F95E001790409904F0B9
:1054C000E7FC2F99884228DB18480068D0F80002D2
:1054D0001590FBF7BAF8CDE916012F994098CDE960
:1054E0000201DDE91601CDE9000114480068B0F9B8
:1054F0005E00159011480068B0F95C0014900146F8
:10550000AFF27C20159A0BF0E3FC00231A461946F3
:10551000184611F0F9FE012067E4FFF747BB0000D1
:105520006C6F67206E6561720D0A0000100000202C
:105530002C000020E0030020DC0300206801002094
:105540002A2825642C25642C25332E31662C3029FD
:105550002D5B25332E31662C25332E31662C305DA4
:105560002A0D0A002DE9F04F85B005460E46CD48BC
:105570000068B0F8FC02CDE90060CA480068B0F9E4
:105580005E20C8480068B0F95C102B46C6A00BF03E
:105590009FFCC4480068B0F8FC02002816DDC14832
:1055A0000068B0F8FC02142810DABE480068B0F8B1
:1055B000FC12C7A00BF08CFC0A23CD4A31462846CA
:1055C00029F02EFC012005B0BDE8F08F0520B5497B
:1055D0000968A1F8FC02B3480068B0F95C00A84271
:1055E0007CD14FF0000B03A8AE4A00901268B2F9CC
:1055F0005E10AC4A1268B2F95C0004AB092219F0E3
:105600008FF804460CB90020DDE7A6480068B0F921
:105610005E00B04201DC012001E04FF0FF30804627
:10562000A0480068B0F95E10BDF90C0004F0D8FC89
:10563000801D4FF4E17148430FFA80F9CDF80080E6
:10564000BDF90C30BDF910202146AAA00BF040FC9A
:10565000012C01D0022C0CD1002026F0ABFDB8F1BA
:10566000010F01D1022000E0012082464FF0FF3BF4
:105670000BE0B42026F09EFDB8F1010F01D101200E
:1056800000E0022082464FF0010B002148460EF058
:1056900009FDA3A00BF01CFCA7480068B0F852005D
:1056A000FA281CDBA4480068B0F85400B0F5487F25
:1056B00015DBA1480068B0F85600FA280FDB9FA060
:1056C0000BF006FC774A1268B2F95E10BDF81020A4
:1056D0005A4410B2012200F071F902E02DE00020DE
:1056E00071E7B8F1010F03D15A2026F063FD03E002
:1056F0004FF4877026F05EFD6A480068B0F95E00DE
:10570000B04205DD67480068B0F95E00801B04E028
:1057100064480068B0F95E00301A87B2B81C87B2DE
:1057200000200322CDE900203BB232460146029020
:10573000504610F07DFD012045E75A480068B0F959
:105740005E00B0427DD14FF0000B03A8554A009097
:105750001268B2F95E10534A1268B2F95C0004ABE9
:10576000092218F0EDFE04460CB900202BE74D4845
:105770000068B0F95C00A84201DC012001E04FF0B4
:10578000FF30804647480068B0F95C10BDF9100052
:1057900004F026FCC01C4FF4E17148430FFA80F975
:1057A000CDE90089BDF90C30BDF91020214668A073
:1057B0000BF08EFB012C01D0022C0CD15A2026F0CC
:1057C000F9FCB8F1010F01D1012000E0022082466E
:1057D0004FF0FF3B0CE04FF4877026F0EBFCB8F184
:1057E000010F01D1022000E0012082464FF0010BA1
:1057F000002148460EF056FC62A00BF069FB4E48B3
:105800000068B0F85200FA281CDB4B480068B0F87A
:105810005400B0F5487F15DB47480068B0F85600E3
:10582000FA280FDB5DA00BF053FBBDF80C205A44A7
:1058300011B21C4A1268B2F95C00022200F0BEF8F4
:1058400002E02BE00020BEE6B8F1010F03D10020FA
:1058500026F0B0FC02E0B42026F0ACFC1148006851
:10586000B0F95C00A84205DD0E480068B0F95C00A4
:10587000401B04E00B480068B0F95C00281A87B2AE
:105880000120002103223BB2CDE9002102900A460B
:105890002946504610F0CCFC012094E600BF0020C1
:1058A00091E60000680100205B61646A5F676F5FDA
:1058B0006E65617277616C6C5D2825642C25642CA3
:1058C000292825642C25642C2564290D0A00000054
:1058D000635F61646A5F6E61763D25642C6E6F74F0
:1058E0002061646A5F676F2E2E2E0D0A0000000093
:1058F00000007A44787265743D25642C666F756E7D
:1059000064206C696E65206F6273743D2825642C79
:1059100025642C29795F6469723D25640D0A0000B5
:10592000676F20666F7277617264206F6E6C79208A
:105930006F6B0D0A0000000010000020666F756E8E
:1059400064206D69642C616A7573740D0A0000002F
:1059500078726574303D25642C666F756E64206CBA
:10596000696E65206F6273743D2825642C25642C54
:1059700029785F6469723D25642C646973743D25E0
:10598000640D0A00676F20666F7277617264206F22
:105990006E6C79206F6B320D0A000000666F756EB9
:1059A00064206D69642C616A757374320D0A00009D
:1059B000F0B5074605AC70CC0020F0BD2DE9FF41E5
:1059C00005460E4614464D48CDE900640068B0F91E
:1059D0005E204A480068B0F95C102B4648A00BF0E6
:1059E00077FA02AB03AA3146284603F045FE04F0DD
:1059F000010000282ED041480068B0F95C00A842A0
:105A000028D03E490968086CFAF71FFECDE900016D
:105A10003A480068836A39480068B0F95C102A4641
:105A200042A00BF055FA3549039809688862FDF7E2
:105A3000D5FE32490968086430490968086CFAF7EC
:105A400004FE07460B462D4800683A46816A41A08D
:105A50000BF03EFA04F0020000282ED02748006820
:105A6000B0F95E00B04228D024490968486CFAF7C2
:105A7000ECFDCDE9000121480068C36A1F480068B9
:105A8000B0F95E10324637A00BF022FA1B4902989B
:105A90000968C862FDF7BCFE1849096848641749DF
:105AA0000968486CFAF7D1FD07460B4613480068B1
:105AB0003A46C16A36A00BF00BFA04F00300D8B1E5
:105AC00000200E49096808670C4A1268D16A0B4A1F
:105AD0001268906A094A13685E3312685C3203F0F8
